{
	"contracts/test.sol": {
		"CourseRegistration": {
			"abi": [
				{
					"inputs": [
						{
							"internalType": "uint256",
							"name": "_courseFee",
							"type": "uint256"
						}
					],
					"stateMutability": "nonpayable",
					"type": "constructor"
				},
				{
					"anonymous": false,
					"inputs": [
						{
							"indexed": true,
							"internalType": "address",
							"name": "previousOwner",
							"type": "address"
						},
						{
							"indexed": true,
							"internalType": "address",
							"name": "newOwner",
							"type": "address"
						}
					],
					"name": "OwnershipTransferred",
					"type": "event"
				},
				{
					"anonymous": false,
					"inputs": [
						{
							"indexed": true,
							"internalType": "address",
							"name": "user",
							"type": "address"
						},
						{
							"indexed": false,
							"internalType": "string",
							"name": "email",
							"type": "string"
						},
						{
							"indexed": false,
							"internalType": "uint256",
							"name": "amount",
							"type": "uint256"
						}
					],
					"name": "PaymentReceived",
					"type": "event"
				},
				{
					"inputs": [],
					"name": "courseFee",
					"outputs": [
						{
							"internalType": "uint256",
							"name": "",
							"type": "uint256"
						}
					],
					"stateMutability": "view",
					"type": "function"
				},
				{
					"inputs": [],
					"name": "getAllPayments",
					"outputs": [
						{
							"components": [
								{
									"internalType": "address",
									"name": "user",
									"type": "address"
								},
								{
									"internalType": "string",
									"name": "email",
									"type": "string"
								},
								{
									"internalType": "uint256",
									"name": "amount",
									"type": "uint256"
								}
							],
							"internalType": "struct CourseRegistration.Payment[]",
							"name": "",
							"type": "tuple[]"
						}
					],
					"stateMutability": "view",
					"type": "function"
				},
				{
					"inputs": [
						{
							"internalType": "address",
							"name": "userAddress",
							"type": "address"
						}
					],
					"name": "getPaymentsByUser",
					"outputs": [
						{
							"components": [
								{
									"internalType": "address",
									"name": "user",
									"type": "address"
								},
								{
									"internalType": "string",
									"name": "email",
									"type": "string"
								},
								{
									"internalType": "uint256",
									"name": "amount",
									"type": "uint256"
								}
							],
							"internalType": "struct CourseRegistration.Payment[]",
							"name": "",
							"type": "tuple[]"
						}
					],
					"stateMutability": "view",
					"type": "function"
				},
				{
					"inputs": [],
					"name": "owner",
					"outputs": [
						{
							"internalType": "address",
							"name": "",
							"type": "address"
						}
					],
					"stateMutability": "view",
					"type": "function"
				},
				{
					"inputs": [
						{
							"internalType": "string",
							"name": "email",
							"type": "string"
						}
					],
					"name": "payForCourse",
					"outputs": [],
					"stateMutability": "payable",
					"type": "function"
				},
				{
					"inputs": [
						{
							"internalType": "uint256",
							"name": "",
							"type": "uint256"
						}
					],
					"name": "payments",
					"outputs": [
						{
							"internalType": "address",
							"name": "user",
							"type": "address"
						},
						{
							"internalType": "string",
							"name": "email",
							"type": "string"
						},
						{
							"internalType": "uint256",
							"name": "amount",
							"type": "uint256"
						}
					],
					"stateMutability": "view",
					"type": "function"
				},
				{
					"inputs": [],
					"name": "renounceOwnership",
					"outputs": [],
					"stateMutability": "nonpayable",
					"type": "function"
				},
				{
					"inputs": [
						{
							"internalType": "address",
							"name": "newOwner",
							"type": "address"
						}
					],
					"name": "transferOwnership",
					"outputs": [],
					"stateMutability": "nonpayable",
					"type": "function"
				},
				{
					"inputs": [],
					"name": "withdrawFunds",
					"outputs": [],
					"stateMutability": "nonpayable",
					"type": "function"
				}
			],
			"devdoc": {
				"kind": "dev",
				"methods": {
					"owner()": {
						"details": "Returns the address of the current owner."
					},
					"renounceOwnership()": {
						"details": "Leaves the contract without owner. It will not be possible to call `onlyOwner` functions. Can only be called by the current owner. NOTE: Renouncing ownership will leave the contract without an owner, thereby disabling any functionality that is only available to the owner."
					},
					"transferOwnership(address)": {
						"details": "Transfers ownership of the contract to a new account (`newOwner`). Can only be called by the current owner."
					}
				},
				"version": 1
			},
			"evm": {
				"assembly": "    /* \"contracts/test.sol\":2033:3622  contract CourseRegistration is Ownable {... */\n  mstore(0x40, 0x80)\n    /* \"contracts/test.sol\":2328:2421  constructor(uint256 _courseFee) Ownable(msg.sender) {... */\n  callvalue\n  dup1\n  iszero\n  tag_1\n  jumpi\n  revert(0x00, 0x00)\ntag_1:\n  pop\n  mload(0x40)\n  sub(codesize, bytecodeSize)\n  dup1\n  bytecodeSize\n  dup4\n  codecopy\n  dup2\n  dup2\n  add\n  0x40\n  mstore\n  dup2\n  add\n  swap1\n  tag_2\n  swap2\n  swap1\n  tag_3\n  jump\t// in\ntag_2:\n    /* \"contracts/test.sol\":2368:2378  msg.sender */\n  caller\n    /* \"contracts/test.sol\":375:407  _transferOwnership(initialOwner) */\n  tag_7\n    /* \"contracts/test.sol\":394:406  initialOwner */\n  dup2\n    /* \"contracts/test.sol\":375:393  _transferOwnership */\n  shl(0x20, tag_8)\n    /* \"contracts/test.sol\":375:407  _transferOwnership(initialOwner) */\n  0x20\n  shr\n  jump\t// in\ntag_7:\n    /* \"contracts/test.sol\":330:415  constructor(address initialOwner) {... */\n  pop\n    /* \"contracts/test.sol\":2403:2413  _courseFee */\n  dup1\n    /* \"contracts/test.sol\":2391:2400  courseFee */\n  0x01\n    /* \"contracts/test.sol\":2391:2413  courseFee = _courseFee */\n  dup2\n  swap1\n  sstore\n  pop\n    /* \"contracts/test.sol\":2328:2421  constructor(uint256 _courseFee) Ownable(msg.sender) {... */\n  pop\n    /* \"contracts/test.sol\":2033:3622  contract CourseRegistration is Ownable {... */\n  jump(tag_10)\n    /* \"contracts/test.sol\":1833:2024  function _transferOwnership(address newOwner) internal virtual {... */\ntag_8:\n    /* \"contracts/test.sol\":1907:1923  address oldOwner */\n  0x00\n    /* \"contracts/test.sol\":1926:1932  _owner */\n  0x00\n  0x00\n  swap1\n  sload\n  swap1\n  0x0100\n  exp\n  swap1\n  div\n  0xffffffffffffffffffffffffffffffffffffffff\n  and\n    /* \"contracts/test.sol\":1907:1932  address oldOwner = _owner */\n  swap1\n  pop\n    /* \"contracts/test.sol\":1952:1960  newOwner */\n  dup2\n    /* \"contracts/test.sol\":1943:1949  _owner */\n  0x00\n  0x00\n    /* \"contracts/test.sol\":1943:1960  _owner = newOwner */\n  0x0100\n  exp\n  dup2\n  sload\n  dup2\n  0xffffffffffffffffffffffffffffffffffffffff\n  mul\n  not\n  and\n  swap1\n  dup4\n  0xffffffffffffffffffffffffffffffffffffffff\n  and\n  mul\n  or\n  swap1\n  sstore\n  pop\n    /* \"contracts/test.sol\":2007:2015  newOwner */\n  dup2\n    /* \"contracts/test.sol\":1976:2016  OwnershipTransferred(oldOwner, newOwner) */\n  0xffffffffffffffffffffffffffffffffffffffff\n  and\n    /* \"contracts/test.sol\":1997:2005  oldOwner */\n  dup2\n    /* \"contracts/test.sol\":1976:2016  OwnershipTransferred(oldOwner, newOwner) */\n  0xffffffffffffffffffffffffffffffffffffffff\n  and\n  0x8be0079c531659141344cd1fd0a4f28419497f9722a3daafe3b4186f6b6457e0\n  mload(0x40)\n  mload(0x40)\n  dup1\n  swap2\n  sub\n  swap1\n  log3\n    /* \"contracts/test.sol\":1896:2024  {... */\n  pop\n    /* \"contracts/test.sol\":1833:2024  function _transferOwnership(address newOwner) internal virtual {... */\n  pop\n  jump\t// out\n    /* \"#utility.yul\":88:205   */\ntag_13:\n    /* \"#utility.yul\":197:198   */\n  0x00\n    /* \"#utility.yul\":194:195   */\n  0x00\n    /* \"#utility.yul\":187:199   */\n  revert\n    /* \"#utility.yul\":334:411   */\ntag_15:\n    /* \"#utility.yul\":371:378   */\n  0x00\n    /* \"#utility.yul\":400:405   */\n  dup2\n    /* \"#utility.yul\":389:405   */\n  swap1\n  pop\n    /* \"#utility.yul\":334:411   */\n  swap2\n  swap1\n  pop\n  jump\t// out\n    /* \"#utility.yul\":417:539   */\ntag_16:\n    /* \"#utility.yul\":490:514   */\n  tag_24\n    /* \"#utility.yul\":508:513   */\n  dup2\n    /* \"#utility.yul\":490:514   */\n  tag_15\n  jump\t// in\ntag_24:\n    /* \"#utility.yul\":483:488   */\n  dup2\n    /* \"#utility.yul\":480:515   */\n  eq\n    /* \"#utility.yul\":470:533   */\n  tag_25\n  jumpi\n    /* \"#utility.yul\":529:530   */\n  0x00\n    /* \"#utility.yul\":526:527   */\n  0x00\n    /* \"#utility.yul\":519:531   */\n  revert\n    /* \"#utility.yul\":470:533   */\ntag_25:\n    /* \"#utility.yul\":417:539   */\n  pop\n  jump\t// out\n    /* \"#utility.yul\":545:688   */\ntag_17:\n    /* \"#utility.yul\":602:607   */\n  0x00\n    /* \"#utility.yul\":633:639   */\n  dup2\n    /* \"#utility.yul\":627:640   */\n  mload\n    /* \"#utility.yul\":618:640   */\n  swap1\n  pop\n    /* \"#utility.yul\":649:682   */\n  tag_27\n    /* \"#utility.yul\":676:681   */\n  dup2\n    /* \"#utility.yul\":649:682   */\n  tag_16\n  jump\t// in\ntag_27:\n    /* \"#utility.yul\":545:688   */\n  swap3\n  swap2\n  pop\n  pop\n  jump\t// out\n    /* \"#utility.yul\":694:1045   */\ntag_3:\n    /* \"#utility.yul\":764:770   */\n  0x00\n    /* \"#utility.yul\":813:815   */\n  0x20\n    /* \"#utility.yul\":801:810   */\n  dup3\n    /* \"#utility.yul\":792:799   */\n  dup5\n    /* \"#utility.yul\":788:811   */\n  sub\n    /* \"#utility.yul\":784:816   */\n  slt\n    /* \"#utility.yul\":781:900   */\n  iszero\n  tag_29\n  jumpi\n    /* \"#utility.yul\":819:898   */\n  tag_30\n  tag_13\n  jump\t// in\ntag_30:\n    /* \"#utility.yul\":781:900   */\ntag_29:\n    /* \"#utility.yul\":939:940   */\n  0x00\n    /* \"#utility.yul\":964:1028   */\n  tag_31\n    /* \"#utility.yul\":1020:1027   */\n  dup5\n    /* \"#utility.yul\":1011:1017   */\n  dup3\n    /* \"#utility.yul\":1000:1009   */\n  dup6\n    /* \"#utility.yul\":996:1018   */\n  add\n    /* \"#utility.yul\":964:1028   */\n  tag_17\n  jump\t// in\ntag_31:\n    /* \"#utility.yul\":954:1028   */\n  swap2\n  pop\n    /* \"#utility.yul\":910:1038   */\n  pop\n    /* \"#utility.yul\":694:1045   */\n  swap3\n  swap2\n  pop\n  pop\n  jump\t// out\n    /* \"contracts/test.sol\":2033:3622  contract CourseRegistration is Ownable {... */\ntag_10:\n  dataSize(sub_0)\n  dup1\n  dataOffset(sub_0)\n  0x00\n  codecopy\n  0x00\n  return\nstop\n\nsub_0: assembly {\n        /* \"contracts/test.sol\":2033:3622  contract CourseRegistration is Ownable {... */\n      mstore(0x40, 0x80)\n      jumpi(tag_1, lt(calldatasize, 0x04))\n      shr(0xe0, calldataload(0x00))\n      dup1\n      0x87d81789\n      gt\n      tag_11\n      jumpi\n      dup1\n      0x87d81789\n      eq\n      tag_6\n      jumpi\n      dup1\n      0x8da5cb5b\n      eq\n      tag_7\n      jumpi\n      dup1\n      0xd6a7b7c4\n      eq\n      tag_8\n      jumpi\n      dup1\n      0xf2fde38b\n      eq\n      tag_9\n      jumpi\n      dup1\n      0xf8defa3c\n      eq\n      tag_10\n      jumpi\n      jump(tag_1)\n    tag_11:\n      dup1\n      0x24600fc3\n      eq\n      tag_2\n      jumpi\n      dup1\n      0x5ddfdb71\n      eq\n      tag_3\n      jumpi\n      dup1\n      0x6e6b7984\n      eq\n      tag_4\n      jumpi\n      dup1\n      0x715018a6\n      eq\n      tag_5\n      jumpi\n    tag_1:\n      revert(0x00, 0x00)\n        /* \"contracts/test.sol\":2712:2884  function withdrawFunds() public onlyOwner {... */\n    tag_2:\n      callvalue\n      dup1\n      iszero\n      tag_12\n      jumpi\n      revert(0x00, 0x00)\n    tag_12:\n      pop\n      tag_13\n      tag_14\n      jump\t// in\n    tag_13:\n      stop\n        /* \"contracts/test.sol\":2429:2704  function payForCourse(string memory email) public payable {... */\n    tag_3:\n      tag_15\n      0x04\n      dup1\n      calldatasize\n      sub\n      dup2\n      add\n      swap1\n      tag_16\n      swap2\n      swap1\n      tag_17\n      jump\t// in\n    tag_16:\n      tag_18\n      jump\t// in\n    tag_15:\n      stop\n        /* \"contracts/test.sol\":2079:2103  uint256 public courseFee */\n    tag_4:\n      callvalue\n      dup1\n      iszero\n      tag_19\n      jumpi\n      revert(0x00, 0x00)\n    tag_19:\n      pop\n      tag_20\n      tag_21\n      jump\t// in\n    tag_20:\n      mload(0x40)\n      tag_22\n      swap2\n      swap1\n      tag_23\n      jump\t// in\n    tag_22:\n      mload(0x40)\n      dup1\n      swap2\n      sub\n      swap1\n      return\n        /* \"contracts/test.sol\":1257:1360  function renounceOwnership() public virtual onlyOwner {... */\n    tag_5:\n      callvalue\n      dup1\n      iszero\n      tag_24\n      jumpi\n      revert(0x00, 0x00)\n    tag_24:\n      pop\n      tag_25\n      tag_26\n      jump\t// in\n    tag_25:\n      stop\n        /* \"contracts/test.sol\":2110:2135  Payment[] public payments */\n    tag_6:\n      callvalue\n      dup1\n      iszero\n      tag_27\n      jumpi\n      revert(0x00, 0x00)\n    tag_27:\n      pop\n      tag_28\n      0x04\n      dup1\n      calldatasize\n      sub\n      dup2\n      add\n      swap1\n      tag_29\n      swap2\n      swap1\n      tag_30\n      jump\t// in\n    tag_29:\n      tag_31\n      jump\t// in\n    tag_28:\n      mload(0x40)\n      tag_32\n      swap4\n      swap3\n      swap2\n      swap1\n      tag_33\n      jump\t// in\n    tag_32:\n      mload(0x40)\n      dup1\n      swap2\n      sub\n      swap1\n      return\n        /* \"contracts/test.sol\":654:741  function owner() public view virtual returns (address) {... */\n    tag_7:\n      callvalue\n      dup1\n      iszero\n      tag_34\n      jumpi\n      revert(0x00, 0x00)\n    tag_34:\n      pop\n      tag_35\n      tag_36\n      jump\t// in\n    tag_35:\n      mload(0x40)\n      tag_37\n      swap2\n      swap1\n      tag_38\n      jump\t// in\n    tag_37:\n      mload(0x40)\n      dup1\n      swap2\n      sub\n      swap1\n      return\n        /* \"contracts/test.sol\":2892:3512  function getPaymentsByUser(address userAddress) public view returns (Payment[] memory) {... */\n    tag_8:\n      callvalue\n      dup1\n      iszero\n      tag_39\n      jumpi\n      revert(0x00, 0x00)\n    tag_39:\n      pop\n      tag_40\n      0x04\n      dup1\n      calldatasize\n      sub\n      dup2\n      add\n      swap1\n      tag_41\n      swap2\n      swap1\n      tag_42\n      jump\t// in\n    tag_41:\n      tag_43\n      jump\t// in\n    tag_40:\n      mload(0x40)\n      tag_44\n      swap2\n      swap1\n      tag_45\n      jump\t// in\n    tag_44:\n      mload(0x40)\n      dup1\n      swap2\n      sub\n      swap1\n      return\n        /* \"contracts/test.sol\":1515:1673  function transferOwnership(address newOwner) public virtual onlyOwner {... */\n    tag_9:\n      callvalue\n      dup1\n      iszero\n      tag_46\n      jumpi\n      revert(0x00, 0x00)\n    tag_46:\n      pop\n      tag_47\n      0x04\n      dup1\n      calldatasize\n      sub\n      dup2\n      add\n      swap1\n      tag_48\n      swap2\n      swap1\n      tag_42\n      jump\t// in\n    tag_48:\n      tag_49\n      jump\t// in\n    tag_47:\n      stop\n        /* \"contracts/test.sol\":3520:3619  function getAllPayments() public view returns (Payment[] memory) {... */\n    tag_10:\n      callvalue\n      dup1\n      iszero\n      tag_50\n      jumpi\n      revert(0x00, 0x00)\n    tag_50:\n      pop\n      tag_51\n      tag_52\n      jump\t// in\n    tag_51:\n      mload(0x40)\n      tag_53\n      swap2\n      swap1\n      tag_45\n      jump\t// in\n    tag_53:\n      mload(0x40)\n      dup1\n      swap2\n      sub\n      swap1\n      return\n        /* \"contracts/test.sol\":2712:2884  function withdrawFunds() public onlyOwner {... */\n    tag_14:\n        /* \"contracts/test.sol\":540:553  _checkOwner() */\n      tag_55\n        /* \"contracts/test.sol\":540:551  _checkOwner */\n      tag_56\n        /* \"contracts/test.sol\":540:553  _checkOwner() */\n      jump\t// in\n    tag_55:\n        /* \"contracts/test.sol\":2766:2778  bool success */\n      0x00\n        /* \"contracts/test.sol\":2784:2791  owner() */\n      tag_58\n        /* \"contracts/test.sol\":2784:2789  owner */\n      tag_36\n        /* \"contracts/test.sol\":2784:2791  owner() */\n      jump\t// in\n    tag_58:\n        /* \"contracts/test.sol\":2784:2796  owner().call */\n      0xffffffffffffffffffffffffffffffffffffffff\n      and\n        /* \"contracts/test.sol\":2804:2825  address(this).balance */\n      selfbalance\n        /* \"contracts/test.sol\":2784:2830  owner().call{value: address(this).balance}(\"\") */\n      mload(0x40)\n      tag_59\n      swap1\n      tag_60\n      jump\t// in\n    tag_59:\n      0x00\n      mload(0x40)\n      dup1\n      dup4\n      sub\n      dup2\n      dup6\n      dup8\n      gas\n      call\n      swap3\n      pop\n      pop\n      pop\n      returndatasize\n      dup1\n      0x00\n      dup2\n      eq\n      tag_63\n      jumpi\n      mload(0x40)\n      swap2\n      pop\n      and(add(returndatasize, 0x3f), not(0x1f))\n      dup3\n      add\n      0x40\n      mstore\n      returndatasize\n      dup3\n      mstore\n      returndatasize\n      0x00\n      0x20\n      dup5\n      add\n      returndatacopy\n      jump(tag_62)\n    tag_63:\n      0x60\n      swap2\n      pop\n    tag_62:\n      pop\n        /* \"contracts/test.sol\":2765:2830  (bool success, ) = owner().call{value: address(this).balance}(\"\") */\n      pop\n      swap1\n      pop\n        /* \"contracts/test.sol\":2849:2856  success */\n      dup1\n        /* \"contracts/test.sol\":2841:2876  require(success, \"Transfer failed\") */\n      tag_64\n      jumpi\n      mload(0x40)\n      0x08c379a000000000000000000000000000000000000000000000000000000000\n      dup2\n      mstore\n      0x04\n      add\n      tag_65\n      swap1\n      tag_66\n      jump\t// in\n    tag_65:\n      mload(0x40)\n      dup1\n      swap2\n      sub\n      swap1\n      revert\n    tag_64:\n        /* \"contracts/test.sol\":2754:2884  {... */\n      pop\n        /* \"contracts/test.sol\":2712:2884  function withdrawFunds() public onlyOwner {... */\n      jump\t// out\n        /* \"contracts/test.sol\":2429:2704  function payForCourse(string memory email) public payable {... */\n    tag_18:\n        /* \"contracts/test.sol\":2519:2528  courseFee */\n      sload(0x01)\n        /* \"contracts/test.sol\":2506:2515  msg.value */\n      callvalue\n        /* \"contracts/test.sol\":2506:2528  msg.value == courseFee */\n      eq\n        /* \"contracts/test.sol\":2498:2572  require(msg.value == courseFee, \"Payment must be equal to the course fee\") */\n      tag_68\n      jumpi\n      mload(0x40)\n      0x08c379a000000000000000000000000000000000000000000000000000000000\n      dup2\n      mstore\n      0x04\n      add\n      tag_69\n      swap1\n      tag_70\n      jump\t// in\n    tag_69:\n      mload(0x40)\n      dup1\n      swap2\n      sub\n      swap1\n      revert\n    tag_68:\n        /* \"contracts/test.sol\":2583:2591  payments */\n      0x02\n        /* \"contracts/test.sol\":2597:2634  Payment(msg.sender, email, msg.value) */\n      mload(0x40)\n      dup1\n      0x60\n      add\n      0x40\n      mstore\n      dup1\n        /* \"contracts/test.sol\":2605:2615  msg.sender */\n      caller\n        /* \"contracts/test.sol\":2597:2634  Payment(msg.sender, email, msg.value) */\n      0xffffffffffffffffffffffffffffffffffffffff\n      and\n      dup2\n      mstore\n      0x20\n      add\n        /* \"contracts/test.sol\":2617:2622  email */\n      dup4\n        /* \"contracts/test.sol\":2597:2634  Payment(msg.sender, email, msg.value) */\n      dup2\n      mstore\n      0x20\n      add\n        /* \"contracts/test.sol\":2624:2633  msg.value */\n      callvalue\n        /* \"contracts/test.sol\":2597:2634  Payment(msg.sender, email, msg.value) */\n      dup2\n      mstore\n      pop\n        /* \"contracts/test.sol\":2583:2635  payments.push(Payment(msg.sender, email, msg.value)) */\n      swap1\n      dup1\n      0x01\n      dup2\n      sload\n      add\n      dup1\n      dup3\n      sstore\n      dup1\n      swap2\n      pop\n      pop\n      0x01\n      swap1\n      sub\n      swap1\n      0x00\n      mstore\n      keccak256(0x00, 0x20)\n      swap1\n      0x03\n      mul\n      add\n      0x00\n      swap1\n      swap2\n      swap1\n      swap2\n      swap1\n      swap2\n      pop\n      0x00\n      dup3\n      add\n      mload\n      dup2\n      0x00\n      add\n      exp(0x0100, 0x00)\n      dup2\n      sload\n      dup2\n      0xffffffffffffffffffffffffffffffffffffffff\n      mul\n      not\n      and\n      swap1\n      dup4\n      0xffffffffffffffffffffffffffffffffffffffff\n      and\n      mul\n      or\n      swap1\n      sstore\n      pop\n      0x20\n      dup3\n      add\n      mload\n      dup2\n      0x01\n      add\n      swap1\n      dup2\n      tag_72\n      swap2\n      swap1\n      tag_73\n      jump\t// in\n    tag_72:\n      pop\n      0x40\n      dup3\n      add\n      mload\n      dup2\n      0x02\n      add\n      sstore\n      pop\n      pop\n        /* \"contracts/test.sol\":2667:2677  msg.sender */\n      caller\n        /* \"contracts/test.sol\":2651:2696  PaymentReceived(msg.sender, email, msg.value) */\n      0xffffffffffffffffffffffffffffffffffffffff\n      and\n      0x2333e159bfab9e5471f0b05de3eb962fc027bedccc2b553ae9068c58cdeb0ef6\n        /* \"contracts/test.sol\":2679:2684  email */\n      dup3\n        /* \"contracts/test.sol\":2686:2695  msg.value */\n      callvalue\n        /* \"contracts/test.sol\":2651:2696  PaymentReceived(msg.sender, email, msg.value) */\n      mload(0x40)\n      tag_74\n      swap3\n      swap2\n      swap1\n      tag_75\n      jump\t// in\n    tag_74:\n      mload(0x40)\n      dup1\n      swap2\n      sub\n      swap1\n      log2\n        /* \"contracts/test.sol\":2429:2704  function payForCourse(string memory email) public payable {... */\n      pop\n      jump\t// out\n        /* \"contracts/test.sol\":2079:2103  uint256 public courseFee */\n    tag_21:\n      sload(0x01)\n      dup2\n      jump\t// out\n        /* \"contracts/test.sol\":1257:1360  function renounceOwnership() public virtual onlyOwner {... */\n    tag_26:\n        /* \"contracts/test.sol\":540:553  _checkOwner() */\n      tag_77\n        /* \"contracts/test.sol\":540:551  _checkOwner */\n      tag_56\n        /* \"contracts/test.sol\":540:553  _checkOwner() */\n      jump\t// in\n    tag_77:\n        /* \"contracts/test.sol\":1322:1352  _transferOwnership(address(0)) */\n      tag_79\n        /* \"contracts/test.sol\":1349:1350  0 */\n      0x00\n        /* \"contracts/test.sol\":1322:1340  _transferOwnership */\n      tag_80\n        /* \"contracts/test.sol\":1322:1352  _transferOwnership(address(0)) */\n      jump\t// in\n    tag_79:\n        /* \"contracts/test.sol\":1257:1360  function renounceOwnership() public virtual onlyOwner {... */\n      jump\t// out\n        /* \"contracts/test.sol\":2110:2135  Payment[] public payments */\n    tag_31:\n      0x02\n      dup2\n      dup2\n      sload\n      dup2\n      lt\n      tag_81\n      jumpi\n      0x00\n      dup1\n      revert\n    tag_81:\n      swap1\n      0x00\n      mstore\n      keccak256(0x00, 0x20)\n      swap1\n      0x03\n      mul\n      add\n      0x00\n      swap2\n      pop\n      swap1\n      pop\n      dup1\n      0x00\n      add\n      0x00\n      swap1\n      sload\n      swap1\n      0x0100\n      exp\n      swap1\n      div\n      0xffffffffffffffffffffffffffffffffffffffff\n      and\n      swap1\n      dup1\n      0x01\n      add\n      dup1\n      sload\n      tag_83\n      swap1\n      tag_84\n      jump\t// in\n    tag_83:\n      dup1\n      0x1f\n      add\n      0x20\n      dup1\n      swap2\n      div\n      mul\n      0x20\n      add\n      mload(0x40)\n      swap1\n      dup2\n      add\n      0x40\n      mstore\n      dup1\n      swap3\n      swap2\n      swap1\n      dup2\n      dup2\n      mstore\n      0x20\n      add\n      dup3\n      dup1\n      sload\n      tag_85\n      swap1\n      tag_84\n      jump\t// in\n    tag_85:\n      dup1\n      iszero\n      tag_86\n      jumpi\n      dup1\n      0x1f\n      lt\n      tag_87\n      jumpi\n      0x0100\n      dup1\n      dup4\n      sload\n      div\n      mul\n      dup4\n      mstore\n      swap2\n      0x20\n      add\n      swap2\n      jump(tag_86)\n    tag_87:\n      dup3\n      add\n      swap2\n      swap1\n      0x00\n      mstore\n      keccak256(0x00, 0x20)\n      swap1\n    tag_88:\n      dup2\n      sload\n      dup2\n      mstore\n      swap1\n      0x01\n      add\n      swap1\n      0x20\n      add\n      dup1\n      dup4\n      gt\n      tag_88\n      jumpi\n      dup3\n      swap1\n      sub\n      0x1f\n      and\n      dup3\n      add\n      swap2\n    tag_86:\n      pop\n      pop\n      pop\n      pop\n      pop\n      swap1\n      dup1\n      0x02\n      add\n      sload\n      swap1\n      pop\n      dup4\n      jump\t// out\n        /* \"contracts/test.sol\":654:741  function owner() public view virtual returns (address) {... */\n    tag_36:\n        /* \"contracts/test.sol\":700:707  address */\n      0x00\n        /* \"contracts/test.sol\":727:733  _owner */\n      0x00\n      0x00\n      swap1\n      sload\n      swap1\n      0x0100\n      exp\n      swap1\n      div\n      0xffffffffffffffffffffffffffffffffffffffff\n      and\n        /* \"contracts/test.sol\":720:733  return _owner */\n      swap1\n      pop\n        /* \"contracts/test.sol\":654:741  function owner() public view virtual returns (address) {... */\n      swap1\n      jump\t// out\n        /* \"contracts/test.sol\":2892:3512  function getPaymentsByUser(address userAddress) public view returns (Payment[] memory) {... */\n    tag_43:\n        /* \"contracts/test.sol\":2961:2977  Payment[] memory */\n      0x60\n        /* \"contracts/test.sol\":2990:3003  uint256 count */\n      0x00\n        /* \"contracts/test.sol\":3006:3007  0 */\n      0x00\n        /* \"contracts/test.sol\":2990:3007  uint256 count = 0 */\n      swap1\n      pop\n        /* \"contracts/test.sol\":3025:3031  uint i */\n      0x00\n        /* \"contracts/test.sol\":3034:3035  0 */\n      0x00\n        /* \"contracts/test.sol\":3025:3035  uint i = 0 */\n      swap1\n      pop\n        /* \"contracts/test.sol\":3020:3168  for (uint i = 0; i < payments.length; i++) {... */\n    tag_91:\n        /* \"contracts/test.sol\":3041:3049  payments */\n      0x02\n        /* \"contracts/test.sol\":3041:3056  payments.length */\n      dup1\n      sload\n      swap1\n      pop\n        /* \"contracts/test.sol\":3037:3038  i */\n      dup2\n        /* \"contracts/test.sol\":3037:3056  i < payments.length */\n      lt\n        /* \"contracts/test.sol\":3020:3168  for (uint i = 0; i < payments.length; i++) {... */\n      iszero\n      tag_92\n      jumpi\n        /* \"contracts/test.sol\":3102:3113  userAddress */\n      dup4\n        /* \"contracts/test.sol\":3082:3113  payments[i].user == userAddress */\n      0xffffffffffffffffffffffffffffffffffffffff\n      and\n        /* \"contracts/test.sol\":3082:3090  payments */\n      0x02\n        /* \"contracts/test.sol\":3091:3092  i */\n      dup3\n        /* \"contracts/test.sol\":3082:3093  payments[i] */\n      dup2\n      sload\n      dup2\n      lt\n      tag_94\n      jumpi\n      tag_95\n      tag_96\n      jump\t// in\n    tag_95:\n    tag_94:\n      swap1\n      0x00\n      mstore\n      keccak256(0x00, 0x20)\n      swap1\n      0x03\n      mul\n      add\n        /* \"contracts/test.sol\":3082:3098  payments[i].user */\n      0x00\n      add\n      0x00\n      swap1\n      sload\n      swap1\n      0x0100\n      exp\n      swap1\n      div\n      0xffffffffffffffffffffffffffffffffffffffff\n      and\n        /* \"contracts/test.sol\":3082:3113  payments[i].user == userAddress */\n      0xffffffffffffffffffffffffffffffffffffffff\n      and\n      sub\n        /* \"contracts/test.sol\":3078:3157  if (payments[i].user == userAddress) {... */\n      tag_98\n      jumpi\n        /* \"contracts/test.sol\":3134:3141  count++ */\n      dup2\n      dup1\n      tag_99\n      swap1\n      tag_100\n      jump\t// in\n    tag_99:\n      swap3\n      pop\n      pop\n        /* \"contracts/test.sol\":3078:3157  if (payments[i].user == userAddress) {... */\n    tag_98:\n        /* \"contracts/test.sol\":3058:3061  i++ */\n      dup1\n      dup1\n      0x01\n      add\n      swap2\n      pop\n      pop\n        /* \"contracts/test.sol\":3020:3168  for (uint i = 0; i < payments.length; i++) {... */\n      jump(tag_91)\n    tag_92:\n      pop\n        /* \"contracts/test.sol\":3180:3209  Payment[] memory userPayments */\n      0x00\n        /* \"contracts/test.sol\":3226:3231  count */\n      dup2\n        /* \"contracts/test.sol\":3212:3232  new Payment[](count) */\n      0xffffffffffffffff\n      dup2\n      gt\n      iszero\n      tag_101\n      jumpi\n      tag_102\n      tag_103\n      jump\t// in\n    tag_102:\n    tag_101:\n      mload(0x40)\n      swap1\n      dup1\n      dup3\n      mstore\n      dup1\n      0x20\n      mul\n      0x20\n      add\n      dup3\n      add\n      0x40\n      mstore\n      dup1\n      iszero\n      tag_104\n      jumpi\n      dup2\n      0x20\n      add\n    tag_105:\n      tag_106\n      tag_107\n      jump\t// in\n    tag_106:\n      dup2\n      mstore\n      0x20\n      add\n      swap1\n      0x01\n      swap1\n      sub\n      swap1\n      dup2\n      tag_105\n      jumpi\n      swap1\n      pop\n    tag_104:\n      pop\n        /* \"contracts/test.sol\":3180:3232  Payment[] memory userPayments = new Payment[](count) */\n      swap1\n      pop\n        /* \"contracts/test.sol\":3245:3258  uint256 index */\n      0x00\n        /* \"contracts/test.sol\":3261:3262  0 */\n      0x00\n        /* \"contracts/test.sol\":3245:3262  uint256 index = 0 */\n      swap1\n      pop\n        /* \"contracts/test.sol\":3278:3284  uint i */\n      0x00\n        /* \"contracts/test.sol\":3287:3288  0 */\n      0x00\n        /* \"contracts/test.sol\":3278:3288  uint i = 0 */\n      swap1\n      pop\n        /* \"contracts/test.sol\":3273:3473  for (uint i = 0; i < payments.length; i++) {... */\n    tag_108:\n        /* \"contracts/test.sol\":3294:3302  payments */\n      0x02\n        /* \"contracts/test.sol\":3294:3309  payments.length */\n      dup1\n      sload\n      swap1\n      pop\n        /* \"contracts/test.sol\":3290:3291  i */\n      dup2\n        /* \"contracts/test.sol\":3290:3309  i < payments.length */\n      lt\n        /* \"contracts/test.sol\":3273:3473  for (uint i = 0; i < payments.length; i++) {... */\n      iszero\n      tag_109\n      jumpi\n        /* \"contracts/test.sol\":3355:3366  userAddress */\n      dup6\n        /* \"contracts/test.sol\":3335:3366  payments[i].user == userAddress */\n      0xffffffffffffffffffffffffffffffffffffffff\n      and\n        /* \"contracts/test.sol\":3335:3343  payments */\n      0x02\n        /* \"contracts/test.sol\":3344:3345  i */\n      dup3\n        /* \"contracts/test.sol\":3335:3346  payments[i] */\n      dup2\n      sload\n      dup2\n      lt\n      tag_111\n      jumpi\n      tag_112\n      tag_96\n      jump\t// in\n    tag_112:\n    tag_111:\n      swap1\n      0x00\n      mstore\n      keccak256(0x00, 0x20)\n      swap1\n      0x03\n      mul\n      add\n        /* \"contracts/test.sol\":3335:3351  payments[i].user */\n      0x00\n      add\n      0x00\n      swap1\n      sload\n      swap1\n      0x0100\n      exp\n      swap1\n      div\n      0xffffffffffffffffffffffffffffffffffffffff\n      and\n        /* \"contracts/test.sol\":3335:3366  payments[i].user == userAddress */\n      0xffffffffffffffffffffffffffffffffffffffff\n      and\n      sub\n        /* \"contracts/test.sol\":3331:3462  if (payments[i].user == userAddress) {... */\n      tag_114\n      jumpi\n        /* \"contracts/test.sol\":3409:3417  payments */\n      0x02\n        /* \"contracts/test.sol\":3418:3419  i */\n      dup2\n        /* \"contracts/test.sol\":3409:3420  payments[i] */\n      dup2\n      sload\n      dup2\n      lt\n      tag_115\n      jumpi\n      tag_116\n      tag_96\n      jump\t// in\n    tag_116:\n    tag_115:\n      swap1\n      0x00\n      mstore\n      keccak256(0x00, 0x20)\n      swap1\n      0x03\n      mul\n      add\n        /* \"contracts/test.sol\":3387:3420  userPayments[index] = payments[i] */\n      mload(0x40)\n      dup1\n      0x60\n      add\n      0x40\n      mstore\n      swap1\n      dup2\n      0x00\n      dup3\n      add\n      0x00\n      swap1\n      sload\n      swap1\n      0x0100\n      exp\n      swap1\n      div\n      0xffffffffffffffffffffffffffffffffffffffff\n      and\n      0xffffffffffffffffffffffffffffffffffffffff\n      and\n      0xffffffffffffffffffffffffffffffffffffffff\n      and\n      dup2\n      mstore\n      0x20\n      add\n      0x01\n      dup3\n      add\n      dup1\n      sload\n      tag_118\n      swap1\n      tag_84\n      jump\t// in\n    tag_118:\n      dup1\n      0x1f\n      add\n      0x20\n      dup1\n      swap2\n      div\n      mul\n      0x20\n      add\n      mload(0x40)\n      swap1\n      dup2\n      add\n      0x40\n      mstore\n      dup1\n      swap3\n      swap2\n      swap1\n      dup2\n      dup2\n      mstore\n      0x20\n      add\n      dup3\n      dup1\n      sload\n      tag_119\n      swap1\n      tag_84\n      jump\t// in\n    tag_119:\n      dup1\n      iszero\n      tag_120\n      jumpi\n      dup1\n      0x1f\n      lt\n      tag_121\n      jumpi\n      0x0100\n      dup1\n      dup4\n      sload\n      div\n      mul\n      dup4\n      mstore\n      swap2\n      0x20\n      add\n      swap2\n      jump(tag_120)\n    tag_121:\n      dup3\n      add\n      swap2\n      swap1\n      0x00\n      mstore\n      keccak256(0x00, 0x20)\n      swap1\n    tag_122:\n      dup2\n      sload\n      dup2\n      mstore\n      swap1\n      0x01\n      add\n      swap1\n      0x20\n      add\n      dup1\n      dup4\n      gt\n      tag_122\n      jumpi\n      dup3\n      swap1\n      sub\n      0x1f\n      and\n      dup3\n      add\n      swap2\n    tag_120:\n      pop\n      pop\n      pop\n      pop\n      pop\n      dup2\n      mstore\n      0x20\n      add\n      0x02\n      dup3\n      add\n      sload\n      dup2\n      mstore\n      pop\n      pop\n        /* \"contracts/test.sol\":3387:3399  userPayments */\n      dup4\n        /* \"contracts/test.sol\":3400:3405  index */\n      dup4\n        /* \"contracts/test.sol\":3387:3406  userPayments[index] */\n      dup2\n      mload\n      dup2\n      lt\n      tag_123\n      jumpi\n      tag_124\n      tag_96\n      jump\t// in\n    tag_124:\n    tag_123:\n      0x20\n      mul\n      0x20\n      add\n      add\n        /* \"contracts/test.sol\":3387:3420  userPayments[index] = payments[i] */\n      dup2\n      swap1\n      mstore\n      pop\n        /* \"contracts/test.sol\":3439:3446  index++ */\n      dup2\n      dup1\n      tag_125\n      swap1\n      tag_100\n      jump\t// in\n    tag_125:\n      swap3\n      pop\n      pop\n        /* \"contracts/test.sol\":3331:3462  if (payments[i].user == userAddress) {... */\n    tag_114:\n        /* \"contracts/test.sol\":3311:3314  i++ */\n      dup1\n      dup1\n      0x01\n      add\n      swap2\n      pop\n      pop\n        /* \"contracts/test.sol\":3273:3473  for (uint i = 0; i < payments.length; i++) {... */\n      jump(tag_108)\n    tag_109:\n      pop\n        /* \"contracts/test.sol\":3492:3504  userPayments */\n      dup2\n        /* \"contracts/test.sol\":3485:3504  return userPayments */\n      swap4\n      pop\n      pop\n      pop\n      pop\n        /* \"contracts/test.sol\":2892:3512  function getPaymentsByUser(address userAddress) public view returns (Payment[] memory) {... */\n      swap2\n      swap1\n      pop\n      jump\t// out\n        /* \"contracts/test.sol\":1515:1673  function transferOwnership(address newOwner) public virtual onlyOwner {... */\n    tag_49:\n        /* \"contracts/test.sol\":540:553  _checkOwner() */\n      tag_127\n        /* \"contracts/test.sol\":540:551  _checkOwner */\n      tag_56\n        /* \"contracts/test.sol\":540:553  _checkOwner() */\n      jump\t// in\n    tag_127:\n        /* \"contracts/test.sol\":1615:1625  msg.sender */\n      caller\n        /* \"contracts/test.sol\":1604:1625  owner() == msg.sender */\n      0xffffffffffffffffffffffffffffffffffffffff\n      and\n        /* \"contracts/test.sol\":1604:1611  owner() */\n      tag_129\n        /* \"contracts/test.sol\":1604:1609  owner */\n      tag_36\n        /* \"contracts/test.sol\":1604:1611  owner() */\n      jump\t// in\n    tag_129:\n        /* \"contracts/test.sol\":1604:1625  owner() == msg.sender */\n      0xffffffffffffffffffffffffffffffffffffffff\n      and\n      eq\n        /* \"contracts/test.sol\":1596:1626  require(owner() == msg.sender) */\n      tag_130\n      jumpi\n      revert(0x00, 0x00)\n    tag_130:\n        /* \"contracts/test.sol\":1637:1665  _transferOwnership(newOwner) */\n      tag_131\n        /* \"contracts/test.sol\":1656:1664  newOwner */\n      dup2\n        /* \"contracts/test.sol\":1637:1655  _transferOwnership */\n      tag_80\n        /* \"contracts/test.sol\":1637:1665  _transferOwnership(newOwner) */\n      jump\t// in\n    tag_131:\n        /* \"contracts/test.sol\":1515:1673  function transferOwnership(address newOwner) public virtual onlyOwner {... */\n      pop\n      jump\t// out\n        /* \"contracts/test.sol\":3520:3619  function getAllPayments() public view returns (Payment[] memory) {... */\n    tag_52:\n        /* \"contracts/test.sol\":3567:3583  Payment[] memory */\n      0x60\n        /* \"contracts/test.sol\":3603:3611  payments */\n      0x02\n        /* \"contracts/test.sol\":3596:3611  return payments */\n      dup1\n      sload\n      dup1\n      0x20\n      mul\n      0x20\n      add\n      mload(0x40)\n      swap1\n      dup2\n      add\n      0x40\n      mstore\n      dup1\n      swap3\n      swap2\n      swap1\n      dup2\n      dup2\n      mstore\n      0x20\n      add\n      0x00\n      swap1\n    tag_133:\n      dup3\n      dup3\n      lt\n      iszero\n      tag_134\n      jumpi\n      dup4\n      dup3\n      swap1\n      0x00\n      mstore\n      keccak256(0x00, 0x20)\n      swap1\n      0x03\n      mul\n      add\n      mload(0x40)\n      dup1\n      0x60\n      add\n      0x40\n      mstore\n      swap1\n      dup2\n      0x00\n      dup3\n      add\n      0x00\n      swap1\n      sload\n      swap1\n      0x0100\n      exp\n      swap1\n      div\n      0xffffffffffffffffffffffffffffffffffffffff\n      and\n      0xffffffffffffffffffffffffffffffffffffffff\n      and\n      0xffffffffffffffffffffffffffffffffffffffff\n      and\n      dup2\n      mstore\n      0x20\n      add\n      0x01\n      dup3\n      add\n      dup1\n      sload\n      tag_136\n      swap1\n      tag_84\n      jump\t// in\n    tag_136:\n      dup1\n      0x1f\n      add\n      0x20\n      dup1\n      swap2\n      div\n      mul\n      0x20\n      add\n      mload(0x40)\n      swap1\n      dup2\n      add\n      0x40\n      mstore\n      dup1\n      swap3\n      swap2\n      swap1\n      dup2\n      dup2\n      mstore\n      0x20\n      add\n      dup3\n      dup1\n      sload\n      tag_137\n      swap1\n      tag_84\n      jump\t// in\n    tag_137:\n      dup1\n      iszero\n      tag_138\n      jumpi\n      dup1\n      0x1f\n      lt\n      tag_139\n      jumpi\n      0x0100\n      dup1\n      dup4\n      sload\n      div\n      mul\n      dup4\n      mstore\n      swap2\n      0x20\n      add\n      swap2\n      jump(tag_138)\n    tag_139:\n      dup3\n      add\n      swap2\n      swap1\n      0x00\n      mstore\n      keccak256(0x00, 0x20)\n      swap1\n    tag_140:\n      dup2\n      sload\n      dup2\n      mstore\n      swap1\n      0x01\n      add\n      swap1\n      0x20\n      add\n      dup1\n      dup4\n      gt\n      tag_140\n      jumpi\n      dup3\n      swap1\n      sub\n      0x1f\n      and\n      dup3\n      add\n      swap2\n    tag_138:\n      pop\n      pop\n      pop\n      pop\n      pop\n      dup2\n      mstore\n      0x20\n      add\n      0x02\n      dup3\n      add\n      sload\n      dup2\n      mstore\n      pop\n      pop\n      dup2\n      mstore\n      0x20\n      add\n      swap1\n      0x01\n      add\n      swap1\n      jump(tag_133)\n    tag_134:\n      pop\n      pop\n      pop\n      pop\n      swap1\n      pop\n        /* \"contracts/test.sol\":3520:3619  function getAllPayments() public view returns (Payment[] memory) {... */\n      swap1\n      jump\t// out\n        /* \"contracts/test.sol\":819:913  function _checkOwner() internal view virtual {... */\n    tag_56:\n        /* \"contracts/test.sol\":894:904  msg.sender */\n      caller\n        /* \"contracts/test.sol\":883:904  owner() == msg.sender */\n      0xffffffffffffffffffffffffffffffffffffffff\n      and\n        /* \"contracts/test.sol\":883:890  owner() */\n      tag_142\n        /* \"contracts/test.sol\":883:888  owner */\n      tag_36\n        /* \"contracts/test.sol\":883:890  owner() */\n      jump\t// in\n    tag_142:\n        /* \"contracts/test.sol\":883:904  owner() == msg.sender */\n      0xffffffffffffffffffffffffffffffffffffffff\n      and\n      eq\n        /* \"contracts/test.sol\":875:905  require(owner() == msg.sender) */\n      tag_143\n      jumpi\n      revert(0x00, 0x00)\n    tag_143:\n        /* \"contracts/test.sol\":819:913  function _checkOwner() internal view virtual {... */\n      jump\t// out\n        /* \"contracts/test.sol\":1833:2024  function _transferOwnership(address newOwner) internal virtual {... */\n    tag_80:\n        /* \"contracts/test.sol\":1907:1923  address oldOwner */\n      0x00\n        /* \"contracts/test.sol\":1926:1932  _owner */\n      0x00\n      0x00\n      swap1\n      sload\n      swap1\n      0x0100\n      exp\n      swap1\n      div\n      0xffffffffffffffffffffffffffffffffffffffff\n      and\n        /* \"contracts/test.sol\":1907:1932  address oldOwner = _owner */\n      swap1\n      pop\n        /* \"contracts/test.sol\":1952:1960  newOwner */\n      dup2\n        /* \"contracts/test.sol\":1943:1949  _owner */\n      0x00\n      0x00\n        /* \"contracts/test.sol\":1943:1960  _owner = newOwner */\n      0x0100\n      exp\n      dup2\n      sload\n      dup2\n      0xffffffffffffffffffffffffffffffffffffffff\n      mul\n      not\n      and\n      swap1\n      dup4\n      0xffffffffffffffffffffffffffffffffffffffff\n      and\n      mul\n      or\n      swap1\n      sstore\n      pop\n        /* \"contracts/test.sol\":2007:2015  newOwner */\n      dup2\n        /* \"contracts/test.sol\":1976:2016  OwnershipTransferred(oldOwner, newOwner) */\n      0xffffffffffffffffffffffffffffffffffffffff\n      and\n        /* \"contracts/test.sol\":1997:2005  oldOwner */\n      dup2\n        /* \"contracts/test.sol\":1976:2016  OwnershipTransferred(oldOwner, newOwner) */\n      0xffffffffffffffffffffffffffffffffffffffff\n      and\n      0x8be0079c531659141344cd1fd0a4f28419497f9722a3daafe3b4186f6b6457e0\n      mload(0x40)\n      mload(0x40)\n      dup1\n      swap2\n      sub\n      swap1\n      log3\n        /* \"contracts/test.sol\":1896:2024  {... */\n      pop\n        /* \"contracts/test.sol\":1833:2024  function _transferOwnership(address newOwner) internal virtual {... */\n      pop\n      jump\t// out\n    tag_107:\n      mload(0x40)\n      dup1\n      0x60\n      add\n      0x40\n      mstore\n      dup1\n      and(0xffffffffffffffffffffffffffffffffffffffff, 0x00)\n      dup2\n      mstore\n      0x20\n      add\n      0x60\n      dup2\n      mstore\n      0x20\n      add\n      0x00\n      dup2\n      mstore\n      pop\n      swap1\n      jump\t// out\n        /* \"#utility.yul\":7:82   */\n    tag_145:\n        /* \"#utility.yul\":40:46   */\n      0x00\n        /* \"#utility.yul\":73:75   */\n      0x40\n        /* \"#utility.yul\":67:76   */\n      mload\n        /* \"#utility.yul\":57:76   */\n      swap1\n      pop\n        /* \"#utility.yul\":7:82   */\n      swap1\n      jump\t// out\n        /* \"#utility.yul\":88:205   */\n    tag_146:\n        /* \"#utility.yul\":197:198   */\n      0x00\n        /* \"#utility.yul\":194:195   */\n      0x00\n        /* \"#utility.yul\":187:199   */\n      revert\n        /* \"#utility.yul\":211:328   */\n    tag_147:\n        /* \"#utility.yul\":320:321   */\n      0x00\n        /* \"#utility.yul\":317:318   */\n      0x00\n        /* \"#utility.yul\":310:322   */\n      revert\n        /* \"#utility.yul\":334:451   */\n    tag_148:\n        /* \"#utility.yul\":443:444   */\n      0x00\n        /* \"#utility.yul\":440:441   */\n      0x00\n        /* \"#utility.yul\":433:445   */\n      revert\n        /* \"#utility.yul\":457:574   */\n    tag_149:\n        /* \"#utility.yul\":566:567   */\n      0x00\n        /* \"#utility.yul\":563:564   */\n      0x00\n        /* \"#utility.yul\":556:568   */\n      revert\n        /* \"#utility.yul\":580:682   */\n    tag_150:\n        /* \"#utility.yul\":621:627   */\n      0x00\n        /* \"#utility.yul\":672:674   */\n      0x1f\n        /* \"#utility.yul\":668:675   */\n      not\n        /* \"#utility.yul\":663:665   */\n      0x1f\n        /* \"#utility.yul\":656:661   */\n      dup4\n        /* \"#utility.yul\":652:666   */\n      add\n        /* \"#utility.yul\":648:676   */\n      and\n        /* \"#utility.yul\":638:676   */\n      swap1\n      pop\n        /* \"#utility.yul\":580:682   */\n      swap2\n      swap1\n      pop\n      jump\t// out\n        /* \"#utility.yul\":688:868   */\n    tag_103:\n        /* \"#utility.yul\":736:813   */\n      0x4e487b7100000000000000000000000000000000000000000000000000000000\n        /* \"#utility.yul\":733:734   */\n      0x00\n        /* \"#utility.yul\":726:814   */\n      mstore\n        /* \"#utility.yul\":833:837   */\n      0x41\n        /* \"#utility.yul\":830:831   */\n      0x04\n        /* \"#utility.yul\":823:838   */\n      mstore\n        /* \"#utility.yul\":857:861   */\n      0x24\n        /* \"#utility.yul\":854:855   */\n      0x00\n        /* \"#utility.yul\":847:862   */\n      revert\n        /* \"#utility.yul\":874:1155   */\n    tag_151:\n        /* \"#utility.yul\":957:984   */\n      tag_214\n        /* \"#utility.yul\":979:983   */\n      dup3\n        /* \"#utility.yul\":957:984   */\n      tag_150\n      jump\t// in\n    tag_214:\n        /* \"#utility.yul\":949:955   */\n      dup2\n        /* \"#utility.yul\":945:985   */\n      add\n        /* \"#utility.yul\":1087:1093   */\n      dup2\n        /* \"#utility.yul\":1075:1085   */\n      dup2\n        /* \"#utility.yul\":1072:1094   */\n      lt\n        /* \"#utility.yul\":1051:1069   */\n      0xffffffffffffffff\n        /* \"#utility.yul\":1039:1049   */\n      dup3\n        /* \"#utility.yul\":1036:1070   */\n      gt\n        /* \"#utility.yul\":1033:1095   */\n      or\n        /* \"#utility.yul\":1030:1118   */\n      iszero\n      tag_215\n      jumpi\n        /* \"#utility.yul\":1098:1116   */\n      tag_216\n      tag_103\n      jump\t// in\n    tag_216:\n        /* \"#utility.yul\":1030:1118   */\n    tag_215:\n        /* \"#utility.yul\":1138:1148   */\n      dup1\n        /* \"#utility.yul\":1134:1136   */\n      0x40\n        /* \"#utility.yul\":1127:1149   */\n      mstore\n        /* \"#utility.yul\":917:1155   */\n      pop\n        /* \"#utility.yul\":874:1155   */\n      pop\n      pop\n      jump\t// out\n        /* \"#utility.yul\":1161:1290   */\n    tag_152:\n        /* \"#utility.yul\":1195:1201   */\n      0x00\n        /* \"#utility.yul\":1222:1242   */\n      tag_218\n      tag_145\n      jump\t// in\n    tag_218:\n        /* \"#utility.yul\":1212:1242   */\n      swap1\n      pop\n        /* \"#utility.yul\":1251:1284   */\n      tag_219\n        /* \"#utility.yul\":1279:1283   */\n      dup3\n        /* \"#utility.yul\":1271:1277   */\n      dup3\n        /* \"#utility.yul\":1251:1284   */\n      tag_151\n      jump\t// in\n    tag_219:\n        /* \"#utility.yul\":1161:1290   */\n      swap2\n      swap1\n      pop\n      jump\t// out\n        /* \"#utility.yul\":1296:1604   */\n    tag_153:\n        /* \"#utility.yul\":1358:1362   */\n      0x00\n        /* \"#utility.yul\":1448:1466   */\n      0xffffffffffffffff\n        /* \"#utility.yul\":1440:1446   */\n      dup3\n        /* \"#utility.yul\":1437:1467   */\n      gt\n        /* \"#utility.yul\":1434:1490   */\n      iszero\n      tag_221\n      jumpi\n        /* \"#utility.yul\":1470:1488   */\n      tag_222\n      tag_103\n      jump\t// in\n    tag_222:\n        /* \"#utility.yul\":1434:1490   */\n    tag_221:\n        /* \"#utility.yul\":1508:1537   */\n      tag_223\n        /* \"#utility.yul\":1530:1536   */\n      dup3\n        /* \"#utility.yul\":1508:1537   */\n      tag_150\n      jump\t// in\n    tag_223:\n        /* \"#utility.yul\":1500:1537   */\n      swap1\n      pop\n        /* \"#utility.yul\":1592:1596   */\n      0x20\n        /* \"#utility.yul\":1586:1590   */\n      dup2\n        /* \"#utility.yul\":1582:1597   */\n      add\n        /* \"#utility.yul\":1574:1597   */\n      swap1\n      pop\n        /* \"#utility.yul\":1296:1604   */\n      swap2\n      swap1\n      pop\n      jump\t// out\n        /* \"#utility.yul\":1610:1758   */\n    tag_154:\n        /* \"#utility.yul\":1708:1714   */\n      dup3\n        /* \"#utility.yul\":1703:1706   */\n      dup2\n        /* \"#utility.yul\":1698:1701   */\n      dup4\n        /* \"#utility.yul\":1685:1715   */\n      calldatacopy\n        /* \"#utility.yul\":1749:1750   */\n      0x00\n        /* \"#utility.yul\":1740:1746   */\n      dup4\n        /* \"#utility.yul\":1735:1738   */\n      dup4\n        /* \"#utility.yul\":1731:1747   */\n      add\n        /* \"#utility.yul\":1724:1751   */\n      mstore\n        /* \"#utility.yul\":1610:1758   */\n      pop\n      pop\n      pop\n      jump\t// out\n        /* \"#utility.yul\":1764:2189   */\n    tag_155:\n        /* \"#utility.yul\":1842:1847   */\n      0x00\n        /* \"#utility.yul\":1867:1933   */\n      tag_226\n        /* \"#utility.yul\":1883:1932   */\n      tag_227\n        /* \"#utility.yul\":1925:1931   */\n      dup5\n        /* \"#utility.yul\":1883:1932   */\n      tag_153\n      jump\t// in\n    tag_227:\n        /* \"#utility.yul\":1867:1933   */\n      tag_152\n      jump\t// in\n    tag_226:\n        /* \"#utility.yul\":1858:1933   */\n      swap1\n      pop\n        /* \"#utility.yul\":1956:1962   */\n      dup3\n        /* \"#utility.yul\":1949:1954   */\n      dup2\n        /* \"#utility.yul\":1942:1963   */\n      mstore\n        /* \"#utility.yul\":1994:1998   */\n      0x20\n        /* \"#utility.yul\":1987:1992   */\n      dup2\n        /* \"#utility.yul\":1983:1999   */\n      add\n        /* \"#utility.yul\":2032:2035   */\n      dup5\n        /* \"#utility.yul\":2023:2029   */\n      dup5\n        /* \"#utility.yul\":2018:2021   */\n      dup5\n        /* \"#utility.yul\":2014:2030   */\n      add\n        /* \"#utility.yul\":2011:2036   */\n      gt\n        /* \"#utility.yul\":2008:2120   */\n      iszero\n      tag_228\n      jumpi\n        /* \"#utility.yul\":2039:2118   */\n      tag_229\n      tag_149\n      jump\t// in\n    tag_229:\n        /* \"#utility.yul\":2008:2120   */\n    tag_228:\n        /* \"#utility.yul\":2129:2183   */\n      tag_230\n        /* \"#utility.yul\":2176:2182   */\n      dup5\n        /* \"#utility.yul\":2171:2174   */\n      dup3\n        /* \"#utility.yul\":2166:2169   */\n      dup6\n        /* \"#utility.yul\":2129:2183   */\n      tag_154\n      jump\t// in\n    tag_230:\n        /* \"#utility.yul\":1848:2189   */\n      pop\n        /* \"#utility.yul\":1764:2189   */\n      swap4\n      swap3\n      pop\n      pop\n      pop\n      jump\t// out\n        /* \"#utility.yul\":2209:2549   */\n    tag_156:\n        /* \"#utility.yul\":2265:2270   */\n      0x00\n        /* \"#utility.yul\":2314:2317   */\n      dup3\n        /* \"#utility.yul\":2307:2311   */\n      0x1f\n        /* \"#utility.yul\":2299:2305   */\n      dup4\n        /* \"#utility.yul\":2295:2312   */\n      add\n        /* \"#utility.yul\":2291:2318   */\n      slt\n        /* \"#utility.yul\":2281:2403   */\n      tag_232\n      jumpi\n        /* \"#utility.yul\":2322:2401   */\n      tag_233\n      tag_148\n      jump\t// in\n    tag_233:\n        /* \"#utility.yul\":2281:2403   */\n    tag_232:\n        /* \"#utility.yul\":2439:2445   */\n      dup2\n        /* \"#utility.yul\":2426:2446   */\n      calldataload\n        /* \"#utility.yul\":2464:2543   */\n      tag_234\n        /* \"#utility.yul\":2539:2542   */\n      dup5\n        /* \"#utility.yul\":2531:2537   */\n      dup3\n        /* \"#utility.yul\":2524:2528   */\n      0x20\n        /* \"#utility.yul\":2516:2522   */\n      dup7\n        /* \"#utility.yul\":2512:2529   */\n      add\n        /* \"#utility.yul\":2464:2543   */\n      tag_155\n      jump\t// in\n    tag_234:\n        /* \"#utility.yul\":2455:2543   */\n      swap2\n      pop\n        /* \"#utility.yul\":2271:2549   */\n      pop\n        /* \"#utility.yul\":2209:2549   */\n      swap3\n      swap2\n      pop\n      pop\n      jump\t// out\n        /* \"#utility.yul\":2555:3064   */\n    tag_17:\n        /* \"#utility.yul\":2624:2630   */\n      0x00\n        /* \"#utility.yul\":2673:2675   */\n      0x20\n        /* \"#utility.yul\":2661:2670   */\n      dup3\n        /* \"#utility.yul\":2652:2659   */\n      dup5\n        /* \"#utility.yul\":2648:2671   */\n      sub\n        /* \"#utility.yul\":2644:2676   */\n      slt\n        /* \"#utility.yul\":2641:2760   */\n      iszero\n      tag_236\n      jumpi\n        /* \"#utility.yul\":2679:2758   */\n      tag_237\n      tag_146\n      jump\t// in\n    tag_237:\n        /* \"#utility.yul\":2641:2760   */\n    tag_236:\n        /* \"#utility.yul\":2827:2828   */\n      0x00\n        /* \"#utility.yul\":2816:2825   */\n      dup3\n        /* \"#utility.yul\":2812:2829   */\n      add\n        /* \"#utility.yul\":2799:2830   */\n      calldataload\n        /* \"#utility.yul\":2857:2875   */\n      0xffffffffffffffff\n        /* \"#utility.yul\":2849:2855   */\n      dup2\n        /* \"#utility.yul\":2846:2876   */\n      gt\n        /* \"#utility.yul\":2843:2960   */\n      iszero\n      tag_238\n      jumpi\n        /* \"#utility.yul\":2879:2958   */\n      tag_239\n      tag_147\n      jump\t// in\n    tag_239:\n        /* \"#utility.yul\":2843:2960   */\n    tag_238:\n        /* \"#utility.yul\":2984:3047   */\n      tag_240\n        /* \"#utility.yul\":3039:3046   */\n      dup5\n        /* \"#utility.yul\":3030:3036   */\n      dup3\n        /* \"#utility.yul\":3019:3028   */\n      dup6\n        /* \"#utility.yul\":3015:3037   */\n      add\n        /* \"#utility.yul\":2984:3047   */\n      tag_156\n      jump\t// in\n    tag_240:\n        /* \"#utility.yul\":2974:3047   */\n      swap2\n      pop\n        /* \"#utility.yul\":2770:3057   */\n      pop\n        /* \"#utility.yul\":2555:3064   */\n      swap3\n      swap2\n      pop\n      pop\n      jump\t// out\n        /* \"#utility.yul\":3070:3147   */\n    tag_157:\n        /* \"#utility.yul\":3107:3114   */\n      0x00\n        /* \"#utility.yul\":3136:3141   */\n      dup2\n        /* \"#utility.yul\":3125:3141   */\n      swap1\n      pop\n        /* \"#utility.yul\":3070:3147   */\n      swap2\n      swap1\n      pop\n      jump\t// out\n        /* \"#utility.yul\":3153:3271   */\n    tag_158:\n        /* \"#utility.yul\":3240:3264   */\n      tag_243\n        /* \"#utility.yul\":3258:3263   */\n      dup2\n        /* \"#utility.yul\":3240:3264   */\n      tag_157\n      jump\t// in\n    tag_243:\n        /* \"#utility.yul\":3235:3238   */\n      dup3\n        /* \"#utility.yul\":3228:3265   */\n      mstore\n        /* \"#utility.yul\":3153:3271   */\n      pop\n      pop\n      jump\t// out\n        /* \"#utility.yul\":3277:3499   */\n    tag_23:\n        /* \"#utility.yul\":3370:3374   */\n      0x00\n        /* \"#utility.yul\":3408:3410   */\n      0x20\n        /* \"#utility.yul\":3397:3406   */\n      dup3\n        /* \"#utility.yul\":3393:3411   */\n      add\n        /* \"#utility.yul\":3385:3411   */\n      swap1\n      pop\n        /* \"#utility.yul\":3421:3492   */\n      tag_245\n        /* \"#utility.yul\":3489:3490   */\n      0x00\n        /* \"#utility.yul\":3478:3487   */\n      dup4\n        /* \"#utility.yul\":3474:3491   */\n      add\n        /* \"#utility.yul\":3465:3471   */\n      dup5\n        /* \"#utility.yul\":3421:3492   */\n      tag_158\n      jump\t// in\n    tag_245:\n        /* \"#utility.yul\":3277:3499   */\n      swap3\n      swap2\n      pop\n      pop\n      jump\t// out\n        /* \"#utility.yul\":3505:3627   */\n    tag_159:\n        /* \"#utility.yul\":3578:3602   */\n      tag_247\n        /* \"#utility.yul\":3596:3601   */\n      dup2\n        /* \"#utility.yul\":3578:3602   */\n      tag_157\n      jump\t// in\n    tag_247:\n        /* \"#utility.yul\":3571:3576   */\n      dup2\n        /* \"#utility.yul\":3568:3603   */\n      eq\n        /* \"#utility.yul\":3558:3621   */\n      tag_248\n      jumpi\n        /* \"#utility.yul\":3617:3618   */\n      0x00\n        /* \"#utility.yul\":3614:3615   */\n      0x00\n        /* \"#utility.yul\":3607:3619   */\n      revert\n        /* \"#utility.yul\":3558:3621   */\n    tag_248:\n        /* \"#utility.yul\":3505:3627   */\n      pop\n      jump\t// out\n        /* \"#utility.yul\":3633:3772   */\n    tag_160:\n        /* \"#utility.yul\":3679:3684   */\n      0x00\n        /* \"#utility.yul\":3717:3723   */\n      dup2\n        /* \"#utility.yul\":3704:3724   */\n      calldataload\n        /* \"#utility.yul\":3695:3724   */\n      swap1\n      pop\n        /* \"#utility.yul\":3733:3766   */\n      tag_250\n        /* \"#utility.yul\":3760:3765   */\n      dup2\n        /* \"#utility.yul\":3733:3766   */\n      tag_159\n      jump\t// in\n    tag_250:\n        /* \"#utility.yul\":3633:3772   */\n      swap3\n      swap2\n      pop\n      pop\n      jump\t// out\n        /* \"#utility.yul\":3778:4107   */\n    tag_30:\n        /* \"#utility.yul\":3837:3843   */\n      0x00\n        /* \"#utility.yul\":3886:3888   */\n      0x20\n        /* \"#utility.yul\":3874:3883   */\n      dup3\n        /* \"#utility.yul\":3865:3872   */\n      dup5\n        /* \"#utility.yul\":3861:3884   */\n      sub\n        /* \"#utility.yul\":3857:3889   */\n      slt\n        /* \"#utility.yul\":3854:3973   */\n      iszero\n      tag_252\n      jumpi\n        /* \"#utility.yul\":3892:3971   */\n      tag_253\n      tag_146\n      jump\t// in\n    tag_253:\n        /* \"#utility.yul\":3854:3973   */\n    tag_252:\n        /* \"#utility.yul\":4012:4013   */\n      0x00\n        /* \"#utility.yul\":4037:4090   */\n      tag_254\n        /* \"#utility.yul\":4082:4089   */\n      dup5\n        /* \"#utility.yul\":4073:4079   */\n      dup3\n        /* \"#utility.yul\":4062:4071   */\n      dup6\n        /* \"#utility.yul\":4058:4080   */\n      add\n        /* \"#utility.yul\":4037:4090   */\n      tag_160\n      jump\t// in\n    tag_254:\n        /* \"#utility.yul\":4027:4090   */\n      swap2\n      pop\n        /* \"#utility.yul\":3983:4100   */\n      pop\n        /* \"#utility.yul\":3778:4107   */\n      swap3\n      swap2\n      pop\n      pop\n      jump\t// out\n        /* \"#utility.yul\":4113:4239   */\n    tag_161:\n        /* \"#utility.yul\":4150:4157   */\n      0x00\n        /* \"#utility.yul\":4190:4232   */\n      0xffffffffffffffffffffffffffffffffffffffff\n        /* \"#utility.yul\":4183:4188   */\n      dup3\n        /* \"#utility.yul\":4179:4233   */\n      and\n        /* \"#utility.yul\":4168:4233   */\n      swap1\n      pop\n        /* \"#utility.yul\":4113:4239   */\n      swap2\n      swap1\n      pop\n      jump\t// out\n        /* \"#utility.yul\":4245:4341   */\n    tag_162:\n        /* \"#utility.yul\":4282:4289   */\n      0x00\n        /* \"#utility.yul\":4311:4335   */\n      tag_257\n        /* \"#utility.yul\":4329:4334   */\n      dup3\n        /* \"#utility.yul\":4311:4335   */\n      tag_161\n      jump\t// in\n    tag_257:\n        /* \"#utility.yul\":4300:4335   */\n      swap1\n      pop\n        /* \"#utility.yul\":4245:4341   */\n      swap2\n      swap1\n      pop\n      jump\t// out\n        /* \"#utility.yul\":4347:4465   */\n    tag_163:\n        /* \"#utility.yul\":4434:4458   */\n      tag_259\n        /* \"#utility.yul\":4452:4457   */\n      dup2\n        /* \"#utility.yul\":4434:4458   */\n      tag_162\n      jump\t// in\n    tag_259:\n        /* \"#utility.yul\":4429:4432   */\n      dup3\n        /* \"#utility.yul\":4422:4459   */\n      mstore\n        /* \"#utility.yul\":4347:4465   */\n      pop\n      pop\n      jump\t// out\n        /* \"#utility.yul\":4471:4570   */\n    tag_164:\n        /* \"#utility.yul\":4523:4529   */\n      0x00\n        /* \"#utility.yul\":4557:4562   */\n      dup2\n        /* \"#utility.yul\":4551:4563   */\n      mload\n        /* \"#utility.yul\":4541:4563   */\n      swap1\n      pop\n        /* \"#utility.yul\":4471:4570   */\n      swap2\n      swap1\n      pop\n      jump\t// out\n        /* \"#utility.yul\":4576:4745   */\n    tag_165:\n        /* \"#utility.yul\":4660:4671   */\n      0x00\n        /* \"#utility.yul\":4694:4700   */\n      dup3\n        /* \"#utility.yul\":4689:4692   */\n      dup3\n        /* \"#utility.yul\":4682:4701   */\n      mstore\n        /* \"#utility.yul\":4734:4738   */\n      0x20\n        /* \"#utility.yul\":4729:4732   */\n      dup3\n        /* \"#utility.yul\":4725:4739   */\n      add\n        /* \"#utility.yul\":4710:4739   */\n      swap1\n      pop\n        /* \"#utility.yul\":4576:4745   */\n      swap3\n      swap2\n      pop\n      pop\n      jump\t// out\n        /* \"#utility.yul\":4751:4890   */\n    tag_166:\n        /* \"#utility.yul\":4840:4846   */\n      dup3\n        /* \"#utility.yul\":4835:4838   */\n      dup2\n        /* \"#utility.yul\":4830:4833   */\n      dup4\n        /* \"#utility.yul\":4824:4847   */\n      mcopy\n        /* \"#utility.yul\":4881:4882   */\n      0x00\n        /* \"#utility.yul\":4872:4878   */\n      dup4\n        /* \"#utility.yul\":4867:4870   */\n      dup4\n        /* \"#utility.yul\":4863:4879   */\n      add\n        /* \"#utility.yul\":4856:4883   */\n      mstore\n        /* \"#utility.yul\":4751:4890   */\n      pop\n      pop\n      pop\n      jump\t// out\n        /* \"#utility.yul\":4896:5273   */\n    tag_167:\n        /* \"#utility.yul\":4984:4987   */\n      0x00\n        /* \"#utility.yul\":5012:5051   */\n      tag_264\n        /* \"#utility.yul\":5045:5050   */\n      dup3\n        /* \"#utility.yul\":5012:5051   */\n      tag_164\n      jump\t// in\n    tag_264:\n        /* \"#utility.yul\":5067:5138   */\n      tag_265\n        /* \"#utility.yul\":5131:5137   */\n      dup2\n        /* \"#utility.yul\":5126:5129   */\n      dup6\n        /* \"#utility.yul\":5067:5138   */\n      tag_165\n      jump\t// in\n    tag_265:\n        /* \"#utility.yul\":5060:5138   */\n      swap4\n      pop\n        /* \"#utility.yul\":5147:5212   */\n      tag_266\n        /* \"#utility.yul\":5205:5211   */\n      dup2\n        /* \"#utility.yul\":5200:5203   */\n      dup6\n        /* \"#utility.yul\":5193:5197   */\n      0x20\n        /* \"#utility.yul\":5186:5191   */\n      dup7\n        /* \"#utility.yul\":5182:5198   */\n      add\n        /* \"#utility.yul\":5147:5212   */\n      tag_166\n      jump\t// in\n    tag_266:\n        /* \"#utility.yul\":5237:5266   */\n      tag_267\n        /* \"#utility.yul\":5259:5265   */\n      dup2\n        /* \"#utility.yul\":5237:5266   */\n      tag_150\n      jump\t// in\n    tag_267:\n        /* \"#utility.yul\":5232:5235   */\n      dup5\n        /* \"#utility.yul\":5228:5267   */\n      add\n        /* \"#utility.yul\":5221:5267   */\n      swap2\n      pop\n        /* \"#utility.yul\":4988:5273   */\n      pop\n        /* \"#utility.yul\":4896:5273   */\n      swap3\n      swap2\n      pop\n      pop\n      jump\t// out\n        /* \"#utility.yul\":5279:5812   */\n    tag_33:\n        /* \"#utility.yul\":5448:5452   */\n      0x00\n        /* \"#utility.yul\":5486:5488   */\n      0x60\n        /* \"#utility.yul\":5475:5484   */\n      dup3\n        /* \"#utility.yul\":5471:5489   */\n      add\n        /* \"#utility.yul\":5463:5489   */\n      swap1\n      pop\n        /* \"#utility.yul\":5499:5570   */\n      tag_269\n        /* \"#utility.yul\":5567:5568   */\n      0x00\n        /* \"#utility.yul\":5556:5565   */\n      dup4\n        /* \"#utility.yul\":5552:5569   */\n      add\n        /* \"#utility.yul\":5543:5549   */\n      dup7\n        /* \"#utility.yul\":5499:5570   */\n      tag_163\n      jump\t// in\n    tag_269:\n        /* \"#utility.yul\":5617:5626   */\n      dup2\n        /* \"#utility.yul\":5611:5615   */\n      dup2\n        /* \"#utility.yul\":5607:5627   */\n      sub\n        /* \"#utility.yul\":5602:5604   */\n      0x20\n        /* \"#utility.yul\":5591:5600   */\n      dup4\n        /* \"#utility.yul\":5587:5605   */\n      add\n        /* \"#utility.yul\":5580:5628   */\n      mstore\n        /* \"#utility.yul\":5645:5723   */\n      tag_270\n        /* \"#utility.yul\":5718:5722   */\n      dup2\n        /* \"#utility.yul\":5709:5715   */\n      dup6\n        /* \"#utility.yul\":5645:5723   */\n      tag_167\n      jump\t// in\n    tag_270:\n        /* \"#utility.yul\":5637:5723   */\n      swap1\n      pop\n        /* \"#utility.yul\":5733:5805   */\n      tag_271\n        /* \"#utility.yul\":5801:5803   */\n      0x40\n        /* \"#utility.yul\":5790:5799   */\n      dup4\n        /* \"#utility.yul\":5786:5804   */\n      add\n        /* \"#utility.yul\":5777:5783   */\n      dup5\n        /* \"#utility.yul\":5733:5805   */\n      tag_158\n      jump\t// in\n    tag_271:\n        /* \"#utility.yul\":5279:5812   */\n      swap5\n      swap4\n      pop\n      pop\n      pop\n      pop\n      jump\t// out\n        /* \"#utility.yul\":5818:6040   */\n    tag_38:\n        /* \"#utility.yul\":5911:5915   */\n      0x00\n        /* \"#utility.yul\":5949:5951   */\n      0x20\n        /* \"#utility.yul\":5938:5947   */\n      dup3\n        /* \"#utility.yul\":5934:5952   */\n      add\n        /* \"#utility.yul\":5926:5952   */\n      swap1\n      pop\n        /* \"#utility.yul\":5962:6033   */\n      tag_273\n        /* \"#utility.yul\":6030:6031   */\n      0x00\n        /* \"#utility.yul\":6019:6028   */\n      dup4\n        /* \"#utility.yul\":6015:6032   */\n      add\n        /* \"#utility.yul\":6006:6012   */\n      dup5\n        /* \"#utility.yul\":5962:6033   */\n      tag_163\n      jump\t// in\n    tag_273:\n        /* \"#utility.yul\":5818:6040   */\n      swap3\n      swap2\n      pop\n      pop\n      jump\t// out\n        /* \"#utility.yul\":6046:6168   */\n    tag_168:\n        /* \"#utility.yul\":6119:6143   */\n      tag_275\n        /* \"#utility.yul\":6137:6142   */\n      dup2\n        /* \"#utility.yul\":6119:6143   */\n      tag_162\n      jump\t// in\n    tag_275:\n        /* \"#utility.yul\":6112:6117   */\n      dup2\n        /* \"#utility.yul\":6109:6144   */\n      eq\n        /* \"#utility.yul\":6099:6162   */\n      tag_276\n      jumpi\n        /* \"#utility.yul\":6158:6159   */\n      0x00\n        /* \"#utility.yul\":6155:6156   */\n      0x00\n        /* \"#utility.yul\":6148:6160   */\n      revert\n        /* \"#utility.yul\":6099:6162   */\n    tag_276:\n        /* \"#utility.yul\":6046:6168   */\n      pop\n      jump\t// out\n        /* \"#utility.yul\":6174:6313   */\n    tag_169:\n        /* \"#utility.yul\":6220:6225   */\n      0x00\n        /* \"#utility.yul\":6258:6264   */\n      dup2\n        /* \"#utility.yul\":6245:6265   */\n      calldataload\n        /* \"#utility.yul\":6236:6265   */\n      swap1\n      pop\n        /* \"#utility.yul\":6274:6307   */\n      tag_278\n        /* \"#utility.yul\":6301:6306   */\n      dup2\n        /* \"#utility.yul\":6274:6307   */\n      tag_168\n      jump\t// in\n    tag_278:\n        /* \"#utility.yul\":6174:6313   */\n      swap3\n      swap2\n      pop\n      pop\n      jump\t// out\n        /* \"#utility.yul\":6319:6648   */\n    tag_42:\n        /* \"#utility.yul\":6378:6384   */\n      0x00\n        /* \"#utility.yul\":6427:6429   */\n      0x20\n        /* \"#utility.yul\":6415:6424   */\n      dup3\n        /* \"#utility.yul\":6406:6413   */\n      dup5\n        /* \"#utility.yul\":6402:6425   */\n      sub\n        /* \"#utility.yul\":6398:6430   */\n      slt\n        /* \"#utility.yul\":6395:6514   */\n      iszero\n      tag_280\n      jumpi\n        /* \"#utility.yul\":6433:6512   */\n      tag_281\n      tag_146\n      jump\t// in\n    tag_281:\n        /* \"#utility.yul\":6395:6514   */\n    tag_280:\n        /* \"#utility.yul\":6553:6554   */\n      0x00\n        /* \"#utility.yul\":6578:6631   */\n      tag_282\n        /* \"#utility.yul\":6623:6630   */\n      dup5\n        /* \"#utility.yul\":6614:6620   */\n      dup3\n        /* \"#utility.yul\":6603:6612   */\n      dup6\n        /* \"#utility.yul\":6599:6621   */\n      add\n        /* \"#utility.yul\":6578:6631   */\n      tag_169\n      jump\t// in\n    tag_282:\n        /* \"#utility.yul\":6568:6631   */\n      swap2\n      pop\n        /* \"#utility.yul\":6524:6641   */\n      pop\n        /* \"#utility.yul\":6319:6648   */\n      swap3\n      swap2\n      pop\n      pop\n      jump\t// out\n        /* \"#utility.yul\":6654:6792   */\n    tag_170:\n        /* \"#utility.yul\":6745:6751   */\n      0x00\n        /* \"#utility.yul\":6779:6784   */\n      dup2\n        /* \"#utility.yul\":6773:6785   */\n      mload\n        /* \"#utility.yul\":6763:6785   */\n      swap1\n      pop\n        /* \"#utility.yul\":6654:6792   */\n      swap2\n      swap1\n      pop\n      jump\t// out\n        /* \"#utility.yul\":6798:7006   */\n    tag_171:\n        /* \"#utility.yul\":6921:6932   */\n      0x00\n        /* \"#utility.yul\":6955:6961   */\n      dup3\n        /* \"#utility.yul\":6950:6953   */\n      dup3\n        /* \"#utility.yul\":6943:6962   */\n      mstore\n        /* \"#utility.yul\":6995:6999   */\n      0x20\n        /* \"#utility.yul\":6990:6993   */\n      dup3\n        /* \"#utility.yul\":6986:7000   */\n      add\n        /* \"#utility.yul\":6971:7000   */\n      swap1\n      pop\n        /* \"#utility.yul\":6798:7006   */\n      swap3\n      swap2\n      pop\n      pop\n      jump\t// out\n        /* \"#utility.yul\":7012:7168   */\n    tag_172:\n        /* \"#utility.yul\":7103:7107   */\n      0x00\n        /* \"#utility.yul\":7126:7129   */\n      dup2\n        /* \"#utility.yul\":7118:7129   */\n      swap1\n      pop\n        /* \"#utility.yul\":7156:7160   */\n      0x20\n        /* \"#utility.yul\":7151:7154   */\n      dup3\n        /* \"#utility.yul\":7147:7161   */\n      add\n        /* \"#utility.yul\":7139:7161   */\n      swap1\n      pop\n        /* \"#utility.yul\":7012:7168   */\n      swap2\n      swap1\n      pop\n      jump\t// out\n        /* \"#utility.yul\":7174:7282   */\n    tag_173:\n        /* \"#utility.yul\":7251:7275   */\n      tag_287\n        /* \"#utility.yul\":7269:7274   */\n      dup2\n        /* \"#utility.yul\":7251:7275   */\n      tag_162\n      jump\t// in\n    tag_287:\n        /* \"#utility.yul\":7246:7249   */\n      dup3\n        /* \"#utility.yul\":7239:7276   */\n      mstore\n        /* \"#utility.yul\":7174:7282   */\n      pop\n      pop\n      jump\t// out\n        /* \"#utility.yul\":7288:7447   */\n    tag_174:\n        /* \"#utility.yul\":7362:7373   */\n      0x00\n        /* \"#utility.yul\":7396:7402   */\n      dup3\n        /* \"#utility.yul\":7391:7394   */\n      dup3\n        /* \"#utility.yul\":7384:7403   */\n      mstore\n        /* \"#utility.yul\":7436:7440   */\n      0x20\n        /* \"#utility.yul\":7431:7434   */\n      dup3\n        /* \"#utility.yul\":7427:7441   */\n      add\n        /* \"#utility.yul\":7412:7441   */\n      swap1\n      pop\n        /* \"#utility.yul\":7288:7447   */\n      swap3\n      swap2\n      pop\n      pop\n      jump\t// out\n        /* \"#utility.yul\":7453:7810   */\n    tag_175:\n        /* \"#utility.yul\":7531:7534   */\n      0x00\n        /* \"#utility.yul\":7559:7598   */\n      tag_290\n        /* \"#utility.yul\":7592:7597   */\n      dup3\n        /* \"#utility.yul\":7559:7598   */\n      tag_164\n      jump\t// in\n    tag_290:\n        /* \"#utility.yul\":7614:7675   */\n      tag_291\n        /* \"#utility.yul\":7668:7674   */\n      dup2\n        /* \"#utility.yul\":7663:7666   */\n      dup6\n        /* \"#utility.yul\":7614:7675   */\n      tag_174\n      jump\t// in\n    tag_291:\n        /* \"#utility.yul\":7607:7675   */\n      swap4\n      pop\n        /* \"#utility.yul\":7684:7749   */\n      tag_292\n        /* \"#utility.yul\":7742:7748   */\n      dup2\n        /* \"#utility.yul\":7737:7740   */\n      dup6\n        /* \"#utility.yul\":7730:7734   */\n      0x20\n        /* \"#utility.yul\":7723:7728   */\n      dup7\n        /* \"#utility.yul\":7719:7735   */\n      add\n        /* \"#utility.yul\":7684:7749   */\n      tag_166\n      jump\t// in\n    tag_292:\n        /* \"#utility.yul\":7774:7803   */\n      tag_293\n        /* \"#utility.yul\":7796:7802   */\n      dup2\n        /* \"#utility.yul\":7774:7803   */\n      tag_150\n      jump\t// in\n    tag_293:\n        /* \"#utility.yul\":7769:7772   */\n      dup5\n        /* \"#utility.yul\":7765:7804   */\n      add\n        /* \"#utility.yul\":7758:7804   */\n      swap2\n      pop\n        /* \"#utility.yul\":7535:7810   */\n      pop\n        /* \"#utility.yul\":7453:7810   */\n      swap3\n      swap2\n      pop\n      pop\n      jump\t// out\n        /* \"#utility.yul\":7816:7924   */\n    tag_176:\n        /* \"#utility.yul\":7893:7917   */\n      tag_295\n        /* \"#utility.yul\":7911:7916   */\n      dup2\n        /* \"#utility.yul\":7893:7917   */\n      tag_157\n      jump\t// in\n    tag_295:\n        /* \"#utility.yul\":7888:7891   */\n      dup3\n        /* \"#utility.yul\":7881:7918   */\n      mstore\n        /* \"#utility.yul\":7816:7924   */\n      pop\n      pop\n      jump\t// out\n        /* \"#utility.yul\":8008:8779   */\n    tag_177:\n        /* \"#utility.yul\":8115:8118   */\n      0x00\n        /* \"#utility.yul\":8151:8155   */\n      0x60\n        /* \"#utility.yul\":8146:8149   */\n      dup4\n        /* \"#utility.yul\":8142:8156   */\n      add\n        /* \"#utility.yul\":8238:8242   */\n      0x00\n        /* \"#utility.yul\":8231:8236   */\n      dup4\n        /* \"#utility.yul\":8227:8243   */\n      add\n        /* \"#utility.yul\":8221:8244   */\n      mload\n        /* \"#utility.yul\":8257:8320   */\n      tag_297\n        /* \"#utility.yul\":8314:8318   */\n      0x00\n        /* \"#utility.yul\":8309:8312   */\n      dup7\n        /* \"#utility.yul\":8305:8319   */\n      add\n        /* \"#utility.yul\":8291:8303   */\n      dup3\n        /* \"#utility.yul\":8257:8320   */\n      tag_173\n      jump\t// in\n    tag_297:\n        /* \"#utility.yul\":8166:8330   */\n      pop\n        /* \"#utility.yul\":8413:8417   */\n      0x20\n        /* \"#utility.yul\":8406:8411   */\n      dup4\n        /* \"#utility.yul\":8402:8418   */\n      add\n        /* \"#utility.yul\":8396:8419   */\n      mload\n        /* \"#utility.yul\":8466:8469   */\n      dup5\n        /* \"#utility.yul\":8460:8464   */\n      dup3\n        /* \"#utility.yul\":8456:8470   */\n      sub\n        /* \"#utility.yul\":8449:8453   */\n      0x20\n        /* \"#utility.yul\":8444:8447   */\n      dup7\n        /* \"#utility.yul\":8440:8454   */\n      add\n        /* \"#utility.yul\":8433:8471   */\n      mstore\n        /* \"#utility.yul\":8492:8565   */\n      tag_298\n        /* \"#utility.yul\":8560:8564   */\n      dup3\n        /* \"#utility.yul\":8546:8558   */\n      dup3\n        /* \"#utility.yul\":8492:8565   */\n      tag_175\n      jump\t// in\n    tag_298:\n        /* \"#utility.yul\":8484:8565   */\n      swap2\n      pop\n        /* \"#utility.yul\":8340:8576   */\n      pop\n        /* \"#utility.yul\":8660:8664   */\n      0x40\n        /* \"#utility.yul\":8653:8658   */\n      dup4\n        /* \"#utility.yul\":8649:8665   */\n      add\n        /* \"#utility.yul\":8643:8666   */\n      mload\n        /* \"#utility.yul\":8679:8742   */\n      tag_299\n        /* \"#utility.yul\":8736:8740   */\n      0x40\n        /* \"#utility.yul\":8731:8734   */\n      dup7\n        /* \"#utility.yul\":8727:8741   */\n      add\n        /* \"#utility.yul\":8713:8725   */\n      dup3\n        /* \"#utility.yul\":8679:8742   */\n      tag_176\n      jump\t// in\n    tag_299:\n        /* \"#utility.yul\":8586:8752   */\n      pop\n        /* \"#utility.yul\":8769:8773   */\n      dup1\n        /* \"#utility.yul\":8762:8773   */\n      swap2\n      pop\n        /* \"#utility.yul\":8120:8779   */\n      pop\n        /* \"#utility.yul\":8008:8779   */\n      swap3\n      swap2\n      pop\n      pop\n      jump\t// out\n        /* \"#utility.yul\":8785:9037   */\n    tag_178:\n        /* \"#utility.yul\":8902:8912   */\n      0x00\n        /* \"#utility.yul\":8937:9031   */\n      tag_301\n        /* \"#utility.yul\":9027:9030   */\n      dup4\n        /* \"#utility.yul\":9019:9025   */\n      dup4\n        /* \"#utility.yul\":8937:9031   */\n      tag_177\n      jump\t// in\n    tag_301:\n        /* \"#utility.yul\":8923:9031   */\n      swap1\n      pop\n        /* \"#utility.yul\":8785:9037   */\n      swap3\n      swap2\n      pop\n      pop\n      jump\t// out\n        /* \"#utility.yul\":9043:9180   */\n    tag_179:\n        /* \"#utility.yul\":9137:9141   */\n      0x00\n        /* \"#utility.yul\":9169:9173   */\n      0x20\n        /* \"#utility.yul\":9164:9167   */\n      dup3\n        /* \"#utility.yul\":9160:9174   */\n      add\n        /* \"#utility.yul\":9152:9174   */\n      swap1\n      pop\n        /* \"#utility.yul\":9043:9180   */\n      swap2\n      swap1\n      pop\n      jump\t// out\n        /* \"#utility.yul\":9268:10371   */\n    tag_180:\n        /* \"#utility.yul\":9435:9438   */\n      0x00\n        /* \"#utility.yul\":9464:9542   */\n      tag_304\n        /* \"#utility.yul\":9536:9541   */\n      dup3\n        /* \"#utility.yul\":9464:9542   */\n      tag_170\n      jump\t// in\n    tag_304:\n        /* \"#utility.yul\":9558:9668   */\n      tag_305\n        /* \"#utility.yul\":9661:9667   */\n      dup2\n        /* \"#utility.yul\":9656:9659   */\n      dup6\n        /* \"#utility.yul\":9558:9668   */\n      tag_171\n      jump\t// in\n    tag_305:\n        /* \"#utility.yul\":9551:9668   */\n      swap4\n      pop\n        /* \"#utility.yul\":9694:9697   */\n      dup4\n        /* \"#utility.yul\":9739:9743   */\n      0x20\n        /* \"#utility.yul\":9731:9737   */\n      dup3\n        /* \"#utility.yul\":9727:9744   */\n      mul\n        /* \"#utility.yul\":9722:9725   */\n      dup6\n        /* \"#utility.yul\":9718:9745   */\n      add\n        /* \"#utility.yul\":9769:9849   */\n      tag_306\n        /* \"#utility.yul\":9843:9848   */\n      dup6\n        /* \"#utility.yul\":9769:9849   */\n      tag_172\n      jump\t// in\n    tag_306:\n        /* \"#utility.yul\":9872:9879   */\n      dup1\n        /* \"#utility.yul\":9903:9904   */\n      0x00\n        /* \"#utility.yul\":9888:10326   */\n    tag_307:\n        /* \"#utility.yul\":9913:9919   */\n      dup6\n        /* \"#utility.yul\":9910:9911   */\n      dup2\n        /* \"#utility.yul\":9907:9920   */\n      lt\n        /* \"#utility.yul\":9888:10326   */\n      iszero\n      tag_309\n      jumpi\n        /* \"#utility.yul\":9984:9993   */\n      dup5\n        /* \"#utility.yul\":9978:9982   */\n      dup5\n        /* \"#utility.yul\":9974:9994   */\n      sub\n        /* \"#utility.yul\":9969:9972   */\n      dup10\n        /* \"#utility.yul\":9962:9995   */\n      mstore\n        /* \"#utility.yul\":10035:10041   */\n      dup2\n        /* \"#utility.yul\":10029:10042   */\n      mload\n        /* \"#utility.yul\":10063:10175   */\n      tag_310\n        /* \"#utility.yul\":10170:10174   */\n      dup6\n        /* \"#utility.yul\":10155:10168   */\n      dup3\n        /* \"#utility.yul\":10063:10175   */\n      tag_178\n      jump\t// in\n    tag_310:\n        /* \"#utility.yul\":10055:10175   */\n      swap5\n      pop\n        /* \"#utility.yul\":10198:10282   */\n      tag_311\n        /* \"#utility.yul\":10275:10281   */\n      dup4\n        /* \"#utility.yul\":10198:10282   */\n      tag_179\n      jump\t// in\n    tag_311:\n        /* \"#utility.yul\":10188:10282   */\n      swap3\n      pop\n        /* \"#utility.yul\":10311:10315   */\n      0x20\n        /* \"#utility.yul\":10306:10309   */\n      dup11\n        /* \"#utility.yul\":10302:10316   */\n      add\n        /* \"#utility.yul\":10295:10316   */\n      swap10\n      pop\n        /* \"#utility.yul\":9948:10326   */\n      pop\n        /* \"#utility.yul\":9935:9936   */\n      0x01\n        /* \"#utility.yul\":9932:9933   */\n      dup2\n        /* \"#utility.yul\":9928:9937   */\n      add\n        /* \"#utility.yul\":9923:9937   */\n      swap1\n      pop\n        /* \"#utility.yul\":9888:10326   */\n      jump(tag_307)\n    tag_309:\n        /* \"#utility.yul\":9892:9906   */\n      pop\n        /* \"#utility.yul\":10342:10346   */\n      dup3\n        /* \"#utility.yul\":10335:10346   */\n      swap8\n      pop\n        /* \"#utility.yul\":10362:10365   */\n      dup8\n        /* \"#utility.yul\":10355:10365   */\n      swap6\n      pop\n        /* \"#utility.yul\":9440:10371   */\n      pop\n      pop\n      pop\n      pop\n      pop\n        /* \"#utility.yul\":9268:10371   */\n      swap3\n      swap2\n      pop\n      pop\n      jump\t// out\n        /* \"#utility.yul\":10377:10846   */\n    tag_45:\n        /* \"#utility.yul\":10568:10572   */\n      0x00\n        /* \"#utility.yul\":10606:10608   */\n      0x20\n        /* \"#utility.yul\":10595:10604   */\n      dup3\n        /* \"#utility.yul\":10591:10609   */\n      add\n        /* \"#utility.yul\":10583:10609   */\n      swap1\n      pop\n        /* \"#utility.yul\":10655:10664   */\n      dup2\n        /* \"#utility.yul\":10649:10653   */\n      dup2\n        /* \"#utility.yul\":10645:10665   */\n      sub\n        /* \"#utility.yul\":10641:10642   */\n      0x00\n        /* \"#utility.yul\":10630:10639   */\n      dup4\n        /* \"#utility.yul\":10626:10643   */\n      add\n        /* \"#utility.yul\":10619:10666   */\n      mstore\n        /* \"#utility.yul\":10683:10839   */\n      tag_313\n        /* \"#utility.yul\":10834:10838   */\n      dup2\n        /* \"#utility.yul\":10825:10831   */\n      dup5\n        /* \"#utility.yul\":10683:10839   */\n      tag_180\n      jump\t// in\n    tag_313:\n        /* \"#utility.yul\":10675:10839   */\n      swap1\n      pop\n        /* \"#utility.yul\":10377:10846   */\n      swap3\n      swap2\n      pop\n      pop\n      jump\t// out\n        /* \"#utility.yul\":10852:10999   */\n    tag_181:\n        /* \"#utility.yul\":10953:10964   */\n      0x00\n        /* \"#utility.yul\":10990:10993   */\n      dup2\n        /* \"#utility.yul\":10975:10993   */\n      swap1\n      pop\n        /* \"#utility.yul\":10852:10999   */\n      swap3\n      swap2\n      pop\n      pop\n      jump\t// out\n        /* \"#utility.yul\":11005:11119   */\n    tag_182:\n      pop\n      jump\t// out\n        /* \"#utility.yul\":11125:11523   */\n    tag_183:\n        /* \"#utility.yul\":11284:11287   */\n      0x00\n        /* \"#utility.yul\":11305:11388   */\n      tag_317\n        /* \"#utility.yul\":11386:11387   */\n      0x00\n        /* \"#utility.yul\":11381:11384   */\n      dup4\n        /* \"#utility.yul\":11305:11388   */\n      tag_181\n      jump\t// in\n    tag_317:\n        /* \"#utility.yul\":11298:11388   */\n      swap2\n      pop\n        /* \"#utility.yul\":11397:11490   */\n      tag_318\n        /* \"#utility.yul\":11486:11489   */\n      dup3\n        /* \"#utility.yul\":11397:11490   */\n      tag_182\n      jump\t// in\n    tag_318:\n        /* \"#utility.yul\":11515:11516   */\n      0x00\n        /* \"#utility.yul\":11510:11513   */\n      dup3\n        /* \"#utility.yul\":11506:11517   */\n      add\n        /* \"#utility.yul\":11499:11517   */\n      swap1\n      pop\n        /* \"#utility.yul\":11125:11523   */\n      swap2\n      swap1\n      pop\n      jump\t// out\n        /* \"#utility.yul\":11529:11908   */\n    tag_60:\n        /* \"#utility.yul\":11713:11716   */\n      0x00\n        /* \"#utility.yul\":11735:11882   */\n      tag_320\n        /* \"#utility.yul\":11878:11881   */\n      dup3\n        /* \"#utility.yul\":11735:11882   */\n      tag_183\n      jump\t// in\n    tag_320:\n        /* \"#utility.yul\":11728:11882   */\n      swap2\n      pop\n        /* \"#utility.yul\":11899:11902   */\n      dup2\n        /* \"#utility.yul\":11892:11902   */\n      swap1\n      pop\n        /* \"#utility.yul\":11529:11908   */\n      swap2\n      swap1\n      pop\n      jump\t// out\n        /* \"#utility.yul\":11914:12079   */\n    tag_184:\n        /* \"#utility.yul\":12054:12071   */\n      0x5472616e73666572206661696c65640000000000000000000000000000000000\n        /* \"#utility.yul\":12050:12051   */\n      0x00\n        /* \"#utility.yul\":12042:12048   */\n      dup3\n        /* \"#utility.yul\":12038:12052   */\n      add\n        /* \"#utility.yul\":12031:12072   */\n      mstore\n        /* \"#utility.yul\":11914:12079   */\n      pop\n      jump\t// out\n        /* \"#utility.yul\":12085:12451   */\n    tag_185:\n        /* \"#utility.yul\":12227:12230   */\n      0x00\n        /* \"#utility.yul\":12248:12315   */\n      tag_323\n        /* \"#utility.yul\":12312:12314   */\n      0x0f\n        /* \"#utility.yul\":12307:12310   */\n      dup4\n        /* \"#utility.yul\":12248:12315   */\n      tag_165\n      jump\t// in\n    tag_323:\n        /* \"#utility.yul\":12241:12315   */\n      swap2\n      pop\n        /* \"#utility.yul\":12324:12417   */\n      tag_324\n        /* \"#utility.yul\":12413:12416   */\n      dup3\n        /* \"#utility.yul\":12324:12417   */\n      tag_184\n      jump\t// in\n    tag_324:\n        /* \"#utility.yul\":12442:12444   */\n      0x20\n        /* \"#utility.yul\":12437:12440   */\n      dup3\n        /* \"#utility.yul\":12433:12445   */\n      add\n        /* \"#utility.yul\":12426:12445   */\n      swap1\n      pop\n        /* \"#utility.yul\":12085:12451   */\n      swap2\n      swap1\n      pop\n      jump\t// out\n        /* \"#utility.yul\":12457:12876   */\n    tag_66:\n        /* \"#utility.yul\":12623:12627   */\n      0x00\n        /* \"#utility.yul\":12661:12663   */\n      0x20\n        /* \"#utility.yul\":12650:12659   */\n      dup3\n        /* \"#utility.yul\":12646:12664   */\n      add\n        /* \"#utility.yul\":12638:12664   */\n      swap1\n      pop\n        /* \"#utility.yul\":12710:12719   */\n      dup2\n        /* \"#utility.yul\":12704:12708   */\n      dup2\n        /* \"#utility.yul\":12700:12720   */\n      sub\n        /* \"#utility.yul\":12696:12697   */\n      0x00\n        /* \"#utility.yul\":12685:12694   */\n      dup4\n        /* \"#utility.yul\":12681:12698   */\n      add\n        /* \"#utility.yul\":12674:12721   */\n      mstore\n        /* \"#utility.yul\":12738:12869   */\n      tag_326\n        /* \"#utility.yul\":12864:12868   */\n      dup2\n        /* \"#utility.yul\":12738:12869   */\n      tag_185\n      jump\t// in\n    tag_326:\n        /* \"#utility.yul\":12730:12869   */\n      swap1\n      pop\n        /* \"#utility.yul\":12457:12876   */\n      swap2\n      swap1\n      pop\n      jump\t// out\n        /* \"#utility.yul\":12882:13108   */\n    tag_186:\n        /* \"#utility.yul\":13022:13056   */\n      0x5061796d656e74206d75737420626520657175616c20746f2074686520636f75\n        /* \"#utility.yul\":13018:13019   */\n      0x00\n        /* \"#utility.yul\":13010:13016   */\n      dup3\n        /* \"#utility.yul\":13006:13020   */\n      add\n        /* \"#utility.yul\":12999:13057   */\n      mstore\n        /* \"#utility.yul\":13091:13100   */\n      0x7273652066656500000000000000000000000000000000000000000000000000\n        /* \"#utility.yul\":13086:13088   */\n      0x20\n        /* \"#utility.yul\":13078:13084   */\n      dup3\n        /* \"#utility.yul\":13074:13089   */\n      add\n        /* \"#utility.yul\":13067:13101   */\n      mstore\n        /* \"#utility.yul\":12882:13108   */\n      pop\n      jump\t// out\n        /* \"#utility.yul\":13114:13480   */\n    tag_187:\n        /* \"#utility.yul\":13256:13259   */\n      0x00\n        /* \"#utility.yul\":13277:13344   */\n      tag_329\n        /* \"#utility.yul\":13341:13343   */\n      0x27\n        /* \"#utility.yul\":13336:13339   */\n      dup4\n        /* \"#utility.yul\":13277:13344   */\n      tag_165\n      jump\t// in\n    tag_329:\n        /* \"#utility.yul\":13270:13344   */\n      swap2\n      pop\n        /* \"#utility.yul\":13353:13446   */\n      tag_330\n        /* \"#utility.yul\":13442:13445   */\n      dup3\n        /* \"#utility.yul\":13353:13446   */\n      tag_186\n      jump\t// in\n    tag_330:\n        /* \"#utility.yul\":13471:13473   */\n      0x40\n        /* \"#utility.yul\":13466:13469   */\n      dup3\n        /* \"#utility.yul\":13462:13474   */\n      add\n        /* \"#utility.yul\":13455:13474   */\n      swap1\n      pop\n        /* \"#utility.yul\":13114:13480   */\n      swap2\n      swap1\n      pop\n      jump\t// out\n        /* \"#utility.yul\":13486:13905   */\n    tag_70:\n        /* \"#utility.yul\":13652:13656   */\n      0x00\n        /* \"#utility.yul\":13690:13692   */\n      0x20\n        /* \"#utility.yul\":13679:13688   */\n      dup3\n        /* \"#utility.yul\":13675:13693   */\n      add\n        /* \"#utility.yul\":13667:13693   */\n      swap1\n      pop\n        /* \"#utility.yul\":13739:13748   */\n      dup2\n        /* \"#utility.yul\":13733:13737   */\n      dup2\n        /* \"#utility.yul\":13729:13749   */\n      sub\n        /* \"#utility.yul\":13725:13726   */\n      0x00\n        /* \"#utility.yul\":13714:13723   */\n      dup4\n        /* \"#utility.yul\":13710:13727   */\n      add\n        /* \"#utility.yul\":13703:13750   */\n      mstore\n        /* \"#utility.yul\":13767:13898   */\n      tag_332\n        /* \"#utility.yul\":13893:13897   */\n      dup2\n        /* \"#utility.yul\":13767:13898   */\n      tag_187\n      jump\t// in\n    tag_332:\n        /* \"#utility.yul\":13759:13898   */\n      swap1\n      pop\n        /* \"#utility.yul\":13486:13905   */\n      swap2\n      swap1\n      pop\n      jump\t// out\n        /* \"#utility.yul\":13911:14091   */\n    tag_188:\n        /* \"#utility.yul\":13959:14036   */\n      0x4e487b7100000000000000000000000000000000000000000000000000000000\n        /* \"#utility.yul\":13956:13957   */\n      0x00\n        /* \"#utility.yul\":13949:14037   */\n      mstore\n        /* \"#utility.yul\":14056:14060   */\n      0x22\n        /* \"#utility.yul\":14053:14054   */\n      0x04\n        /* \"#utility.yul\":14046:14061   */\n      mstore\n        /* \"#utility.yul\":14080:14084   */\n      0x24\n        /* \"#utility.yul\":14077:14078   */\n      0x00\n        /* \"#utility.yul\":14070:14085   */\n      revert\n        /* \"#utility.yul\":14097:14417   */\n    tag_84:\n        /* \"#utility.yul\":14141:14147   */\n      0x00\n        /* \"#utility.yul\":14178:14179   */\n      0x02\n        /* \"#utility.yul\":14172:14176   */\n      dup3\n        /* \"#utility.yul\":14168:14180   */\n      div\n        /* \"#utility.yul\":14158:14180   */\n      swap1\n      pop\n        /* \"#utility.yul\":14225:14226   */\n      0x01\n        /* \"#utility.yul\":14219:14223   */\n      dup3\n        /* \"#utility.yul\":14215:14227   */\n      and\n        /* \"#utility.yul\":14246:14264   */\n      dup1\n        /* \"#utility.yul\":14236:14317   */\n      tag_335\n      jumpi\n        /* \"#utility.yul\":14302:14306   */\n      0x7f\n        /* \"#utility.yul\":14294:14300   */\n      dup3\n        /* \"#utility.yul\":14290:14307   */\n      and\n        /* \"#utility.yul\":14280:14307   */\n      swap2\n      pop\n        /* \"#utility.yul\":14236:14317   */\n    tag_335:\n        /* \"#utility.yul\":14364:14366   */\n      0x20\n        /* \"#utility.yul\":14356:14362   */\n      dup3\n        /* \"#utility.yul\":14353:14367   */\n      lt\n        /* \"#utility.yul\":14333:14351   */\n      dup2\n        /* \"#utility.yul\":14330:14368   */\n      sub\n        /* \"#utility.yul\":14327:14411   */\n      tag_336\n      jumpi\n        /* \"#utility.yul\":14383:14401   */\n      tag_337\n      tag_188\n      jump\t// in\n    tag_337:\n        /* \"#utility.yul\":14327:14411   */\n    tag_336:\n        /* \"#utility.yul\":14148:14417   */\n      pop\n        /* \"#utility.yul\":14097:14417   */\n      swap2\n      swap1\n      pop\n      jump\t// out\n        /* \"#utility.yul\":14423:14564   */\n    tag_189:\n        /* \"#utility.yul\":14472:14476   */\n      0x00\n        /* \"#utility.yul\":14495:14498   */\n      dup2\n        /* \"#utility.yul\":14487:14498   */\n      swap1\n      pop\n        /* \"#utility.yul\":14518:14521   */\n      dup2\n        /* \"#utility.yul\":14515:14516   */\n      0x00\n        /* \"#utility.yul\":14508:14522   */\n      mstore\n        /* \"#utility.yul\":14552:14556   */\n      0x20\n        /* \"#utility.yul\":14549:14550   */\n      0x00\n        /* \"#utility.yul\":14539:14557   */\n      keccak256\n        /* \"#utility.yul\":14531:14557   */\n      swap1\n      pop\n        /* \"#utility.yul\":14423:14564   */\n      swap2\n      swap1\n      pop\n      jump\t// out\n        /* \"#utility.yul\":14570:14663   */\n    tag_190:\n        /* \"#utility.yul\":14607:14613   */\n      0x00\n        /* \"#utility.yul\":14654:14656   */\n      0x20\n        /* \"#utility.yul\":14649:14651   */\n      0x1f\n        /* \"#utility.yul\":14642:14647   */\n      dup4\n        /* \"#utility.yul\":14638:14652   */\n      add\n        /* \"#utility.yul\":14634:14657   */\n      div\n        /* \"#utility.yul\":14624:14657   */\n      swap1\n      pop\n        /* \"#utility.yul\":14570:14663   */\n      swap2\n      swap1\n      pop\n      jump\t// out\n        /* \"#utility.yul\":14669:14776   */\n    tag_191:\n        /* \"#utility.yul\":14713:14721   */\n      0x00\n        /* \"#utility.yul\":14763:14768   */\n      dup3\n        /* \"#utility.yul\":14757:14761   */\n      dup3\n        /* \"#utility.yul\":14753:14769   */\n      shl\n        /* \"#utility.yul\":14732:14769   */\n      swap1\n      pop\n        /* \"#utility.yul\":14669:14776   */\n      swap3\n      swap2\n      pop\n      pop\n      jump\t// out\n        /* \"#utility.yul\":14782:15175   */\n    tag_192:\n        /* \"#utility.yul\":14851:14857   */\n      0x00\n        /* \"#utility.yul\":14901:14902   */\n      0x08\n        /* \"#utility.yul\":14889:14899   */\n      dup4\n        /* \"#utility.yul\":14885:14903   */\n      mul\n        /* \"#utility.yul\":14924:15021   */\n      tag_342\n        /* \"#utility.yul\":14954:15020   */\n      0xffffffffffffffffffffffffffffffffffffffffffffffffffffffffffffffff\n        /* \"#utility.yul\":14943:14952   */\n      dup3\n        /* \"#utility.yul\":14924:15021   */\n      tag_191\n      jump\t// in\n    tag_342:\n        /* \"#utility.yul\":15042:15081   */\n      tag_343\n        /* \"#utility.yul\":15072:15080   */\n      dup7\n        /* \"#utility.yul\":15061:15070   */\n      dup4\n        /* \"#utility.yul\":15042:15081   */\n      tag_191\n      jump\t// in\n    tag_343:\n        /* \"#utility.yul\":15030:15081   */\n      swap6\n      pop\n        /* \"#utility.yul\":15114:15118   */\n      dup1\n        /* \"#utility.yul\":15110:15119   */\n      not\n        /* \"#utility.yul\":15103:15108   */\n      dup5\n        /* \"#utility.yul\":15099:15120   */\n      and\n        /* \"#utility.yul\":15090:15120   */\n      swap4\n      pop\n        /* \"#utility.yul\":15163:15167   */\n      dup1\n        /* \"#utility.yul\":15153:15161   */\n      dup7\n        /* \"#utility.yul\":15149:15168   */\n      and\n        /* \"#utility.yul\":15142:15147   */\n      dup5\n        /* \"#utility.yul\":15139:15169   */\n      or\n        /* \"#utility.yul\":15129:15169   */\n      swap3\n      pop\n        /* \"#utility.yul\":14858:15175   */\n      pop\n      pop\n        /* \"#utility.yul\":14782:15175   */\n      swap4\n      swap3\n      pop\n      pop\n      pop\n      jump\t// out\n        /* \"#utility.yul\":15181:15241   */\n    tag_193:\n        /* \"#utility.yul\":15209:15212   */\n      0x00\n        /* \"#utility.yul\":15230:15235   */\n      dup2\n        /* \"#utility.yul\":15223:15235   */\n      swap1\n      pop\n        /* \"#utility.yul\":15181:15241   */\n      swap2\n      swap1\n      pop\n      jump\t// out\n        /* \"#utility.yul\":15247:15389   */\n    tag_194:\n        /* \"#utility.yul\":15297:15306   */\n      0x00\n        /* \"#utility.yul\":15330:15383   */\n      tag_346\n        /* \"#utility.yul\":15348:15382   */\n      tag_347\n        /* \"#utility.yul\":15357:15381   */\n      tag_348\n        /* \"#utility.yul\":15375:15380   */\n      dup5\n        /* \"#utility.yul\":15357:15381   */\n      tag_157\n      jump\t// in\n    tag_348:\n        /* \"#utility.yul\":15348:15382   */\n      tag_193\n      jump\t// in\n    tag_347:\n        /* \"#utility.yul\":15330:15383   */\n      tag_157\n      jump\t// in\n    tag_346:\n        /* \"#utility.yul\":15317:15383   */\n      swap1\n      pop\n        /* \"#utility.yul\":15247:15389   */\n      swap2\n      swap1\n      pop\n      jump\t// out\n        /* \"#utility.yul\":15395:15470   */\n    tag_195:\n        /* \"#utility.yul\":15438:15441   */\n      0x00\n        /* \"#utility.yul\":15459:15464   */\n      dup2\n        /* \"#utility.yul\":15452:15464   */\n      swap1\n      pop\n        /* \"#utility.yul\":15395:15470   */\n      swap2\n      swap1\n      pop\n      jump\t// out\n        /* \"#utility.yul\":15476:15745   */\n    tag_196:\n        /* \"#utility.yul\":15586:15625   */\n      tag_351\n        /* \"#utility.yul\":15617:15624   */\n      dup4\n        /* \"#utility.yul\":15586:15625   */\n      tag_194\n      jump\t// in\n    tag_351:\n        /* \"#utility.yul\":15647:15738   */\n      tag_352\n        /* \"#utility.yul\":15696:15737   */\n      tag_353\n        /* \"#utility.yul\":15720:15736   */\n      dup3\n        /* \"#utility.yul\":15696:15737   */\n      tag_195\n      jump\t// in\n    tag_353:\n        /* \"#utility.yul\":15688:15694   */\n      dup5\n        /* \"#utility.yul\":15681:15685   */\n      dup5\n        /* \"#utility.yul\":15675:15686   */\n      sload\n        /* \"#utility.yul\":15647:15738   */\n      tag_192\n      jump\t// in\n    tag_352:\n        /* \"#utility.yul\":15641:15645   */\n      dup3\n        /* \"#utility.yul\":15634:15739   */\n      sstore\n        /* \"#utility.yul\":15552:15745   */\n      pop\n        /* \"#utility.yul\":15476:15745   */\n      pop\n      pop\n      pop\n      jump\t// out\n        /* \"#utility.yul\":15751:15824   */\n    tag_197:\n        /* \"#utility.yul\":15796:15799   */\n      0x00\n        /* \"#utility.yul\":15817:15818   */\n      0x00\n        /* \"#utility.yul\":15810:15818   */\n      swap1\n      pop\n        /* \"#utility.yul\":15751:15824   */\n      swap1\n      jump\t// out\n        /* \"#utility.yul\":15830:16019   */\n    tag_198:\n        /* \"#utility.yul\":15907:15939   */\n      tag_356\n      tag_197\n      jump\t// in\n    tag_356:\n        /* \"#utility.yul\":15948:16013   */\n      tag_357\n        /* \"#utility.yul\":16006:16012   */\n      dup2\n        /* \"#utility.yul\":15998:16004   */\n      dup5\n        /* \"#utility.yul\":15992:15996   */\n      dup5\n        /* \"#utility.yul\":15948:16013   */\n      tag_196\n      jump\t// in\n    tag_357:\n        /* \"#utility.yul\":15883:16019   */\n      pop\n        /* \"#utility.yul\":15830:16019   */\n      pop\n      pop\n      jump\t// out\n        /* \"#utility.yul\":16025:16211   */\n    tag_199:\n        /* \"#utility.yul\":16085:16205   */\n    tag_359:\n        /* \"#utility.yul\":16102:16105   */\n      dup2\n        /* \"#utility.yul\":16095:16100   */\n      dup2\n        /* \"#utility.yul\":16092:16106   */\n      lt\n        /* \"#utility.yul\":16085:16205   */\n      iszero\n      tag_361\n      jumpi\n        /* \"#utility.yul\":16156:16195   */\n      tag_362\n        /* \"#utility.yul\":16193:16194   */\n      0x00\n        /* \"#utility.yul\":16186:16191   */\n      dup3\n        /* \"#utility.yul\":16156:16195   */\n      tag_198\n      jump\t// in\n    tag_362:\n        /* \"#utility.yul\":16129:16130   */\n      0x01\n        /* \"#utility.yul\":16122:16127   */\n      dup2\n        /* \"#utility.yul\":16118:16131   */\n      add\n        /* \"#utility.yul\":16109:16131   */\n      swap1\n      pop\n        /* \"#utility.yul\":16085:16205   */\n      jump(tag_359)\n    tag_361:\n        /* \"#utility.yul\":16025:16211   */\n      pop\n      pop\n      jump\t// out\n        /* \"#utility.yul\":16217:16760   */\n    tag_200:\n        /* \"#utility.yul\":16318:16320   */\n      0x1f\n        /* \"#utility.yul\":16313:16316   */\n      dup3\n        /* \"#utility.yul\":16310:16321   */\n      gt\n        /* \"#utility.yul\":16307:16753   */\n      iszero\n      tag_364\n      jumpi\n        /* \"#utility.yul\":16352:16390   */\n      tag_365\n        /* \"#utility.yul\":16384:16389   */\n      dup2\n        /* \"#utility.yul\":16352:16390   */\n      tag_189\n      jump\t// in\n    tag_365:\n        /* \"#utility.yul\":16436:16465   */\n      tag_366\n        /* \"#utility.yul\":16454:16464   */\n      dup5\n        /* \"#utility.yul\":16436:16465   */\n      tag_190\n      jump\t// in\n    tag_366:\n        /* \"#utility.yul\":16426:16434   */\n      dup2\n        /* \"#utility.yul\":16422:16466   */\n      add\n        /* \"#utility.yul\":16619:16621   */\n      0x20\n        /* \"#utility.yul\":16607:16617   */\n      dup6\n        /* \"#utility.yul\":16604:16622   */\n      lt\n        /* \"#utility.yul\":16601:16650   */\n      iszero\n      tag_367\n      jumpi\n        /* \"#utility.yul\":16640:16648   */\n      dup2\n        /* \"#utility.yul\":16625:16648   */\n      swap1\n      pop\n        /* \"#utility.yul\":16601:16650   */\n    tag_367:\n        /* \"#utility.yul\":16663:16743   */\n      tag_368\n        /* \"#utility.yul\":16719:16741   */\n      tag_369\n        /* \"#utility.yul\":16737:16740   */\n      dup6\n        /* \"#utility.yul\":16719:16741   */\n      tag_190\n      jump\t// in\n    tag_369:\n        /* \"#utility.yul\":16709:16717   */\n      dup4\n        /* \"#utility.yul\":16705:16742   */\n      add\n        /* \"#utility.yul\":16692:16703   */\n      dup3\n        /* \"#utility.yul\":16663:16743   */\n      tag_199\n      jump\t// in\n    tag_368:\n        /* \"#utility.yul\":16322:16753   */\n      pop\n      pop\n        /* \"#utility.yul\":16307:16753   */\n    tag_364:\n        /* \"#utility.yul\":16217:16760   */\n      pop\n      pop\n      pop\n      jump\t// out\n        /* \"#utility.yul\":16766:16883   */\n    tag_201:\n        /* \"#utility.yul\":16820:16828   */\n      0x00\n        /* \"#utility.yul\":16870:16875   */\n      dup3\n        /* \"#utility.yul\":16864:16868   */\n      dup3\n        /* \"#utility.yul\":16860:16876   */\n      shr\n        /* \"#utility.yul\":16839:16876   */\n      swap1\n      pop\n        /* \"#utility.yul\":16766:16883   */\n      swap3\n      swap2\n      pop\n      pop\n      jump\t// out\n        /* \"#utility.yul\":16889:17058   */\n    tag_202:\n        /* \"#utility.yul\":16933:16939   */\n      0x00\n        /* \"#utility.yul\":16966:17017   */\n      tag_372\n        /* \"#utility.yul\":17014:17015   */\n      0x00\n        /* \"#utility.yul\":17010:17016   */\n      not\n        /* \"#utility.yul\":17002:17007   */\n      dup5\n        /* \"#utility.yul\":16999:17000   */\n      0x08\n        /* \"#utility.yul\":16995:17008   */\n      mul\n        /* \"#utility.yul\":16966:17017   */\n      tag_201\n      jump\t// in\n    tag_372:\n        /* \"#utility.yul\":16962:17018   */\n      not\n        /* \"#utility.yul\":17047:17051   */\n      dup1\n        /* \"#utility.yul\":17041:17045   */\n      dup4\n        /* \"#utility.yul\":17037:17052   */\n      and\n        /* \"#utility.yul\":17027:17052   */\n      swap2\n      pop\n        /* \"#utility.yul\":16940:17058   */\n      pop\n        /* \"#utility.yul\":16889:17058   */\n      swap3\n      swap2\n      pop\n      pop\n      jump\t// out\n        /* \"#utility.yul\":17063:17358   */\n    tag_203:\n        /* \"#utility.yul\":17139:17143   */\n      0x00\n        /* \"#utility.yul\":17285:17314   */\n      tag_374\n        /* \"#utility.yul\":17310:17313   */\n      dup4\n        /* \"#utility.yul\":17304:17308   */\n      dup4\n        /* \"#utility.yul\":17285:17314   */\n      tag_202\n      jump\t// in\n    tag_374:\n        /* \"#utility.yul\":17277:17314   */\n      swap2\n      pop\n        /* \"#utility.yul\":17347:17350   */\n      dup3\n        /* \"#utility.yul\":17344:17345   */\n      0x02\n        /* \"#utility.yul\":17340:17351   */\n      mul\n        /* \"#utility.yul\":17334:17338   */\n      dup3\n        /* \"#utility.yul\":17331:17352   */\n      or\n        /* \"#utility.yul\":17323:17352   */\n      swap1\n      pop\n        /* \"#utility.yul\":17063:17358   */\n      swap3\n      swap2\n      pop\n      pop\n      jump\t// out\n        /* \"#utility.yul\":17363:18758   */\n    tag_73:\n        /* \"#utility.yul\":17480:17517   */\n      tag_376\n        /* \"#utility.yul\":17513:17516   */\n      dup3\n        /* \"#utility.yul\":17480:17517   */\n      tag_164\n      jump\t// in\n    tag_376:\n        /* \"#utility.yul\":17582:17600   */\n      0xffffffffffffffff\n        /* \"#utility.yul\":17574:17580   */\n      dup2\n        /* \"#utility.yul\":17571:17601   */\n      gt\n        /* \"#utility.yul\":17568:17624   */\n      iszero\n      tag_377\n      jumpi\n        /* \"#utility.yul\":17604:17622   */\n      tag_378\n      tag_103\n      jump\t// in\n    tag_378:\n        /* \"#utility.yul\":17568:17624   */\n    tag_377:\n        /* \"#utility.yul\":17648:17686   */\n      tag_379\n        /* \"#utility.yul\":17680:17684   */\n      dup3\n        /* \"#utility.yul\":17674:17685   */\n      sload\n        /* \"#utility.yul\":17648:17686   */\n      tag_84\n      jump\t// in\n    tag_379:\n        /* \"#utility.yul\":17733:17800   */\n      tag_380\n        /* \"#utility.yul\":17793:17799   */\n      dup3\n        /* \"#utility.yul\":17785:17791   */\n      dup3\n        /* \"#utility.yul\":17779:17783   */\n      dup6\n        /* \"#utility.yul\":17733:17800   */\n      tag_200\n      jump\t// in\n    tag_380:\n        /* \"#utility.yul\":17827:17828   */\n      0x00\n        /* \"#utility.yul\":17851:17855   */\n      0x20\n        /* \"#utility.yul\":17838:17855   */\n      swap1\n      pop\n        /* \"#utility.yul\":17883:17885   */\n      0x1f\n        /* \"#utility.yul\":17875:17881   */\n      dup4\n        /* \"#utility.yul\":17872:17886   */\n      gt\n        /* \"#utility.yul\":17900:17901   */\n      0x01\n        /* \"#utility.yul\":17895:18513   */\n      dup2\n      eq\n      tag_382\n      jumpi\n        /* \"#utility.yul\":18557:18558   */\n      0x00\n        /* \"#utility.yul\":18574:18580   */\n      dup5\n        /* \"#utility.yul\":18571:18648   */\n      iszero\n      tag_383\n      jumpi\n        /* \"#utility.yul\":18623:18632   */\n      dup3\n        /* \"#utility.yul\":18618:18621   */\n      dup8\n        /* \"#utility.yul\":18614:18633   */\n      add\n        /* \"#utility.yul\":18608:18634   */\n      mload\n        /* \"#utility.yul\":18599:18634   */\n      swap1\n      pop\n        /* \"#utility.yul\":18571:18648   */\n    tag_383:\n        /* \"#utility.yul\":18674:18741   */\n      tag_384\n        /* \"#utility.yul\":18734:18740   */\n      dup6\n        /* \"#utility.yul\":18727:18732   */\n      dup3\n        /* \"#utility.yul\":18674:18741   */\n      tag_203\n      jump\t// in\n    tag_384:\n        /* \"#utility.yul\":18668:18672   */\n      dup7\n        /* \"#utility.yul\":18661:18742   */\n      sstore\n        /* \"#utility.yul\":18530:18752   */\n      pop\n        /* \"#utility.yul\":17865:18752   */\n      jump(tag_381)\n        /* \"#utility.yul\":17895:18513   */\n    tag_382:\n        /* \"#utility.yul\":17947:17951   */\n      0x1f\n        /* \"#utility.yul\":17943:17952   */\n      not\n        /* \"#utility.yul\":17935:17941   */\n      dup5\n        /* \"#utility.yul\":17931:17953   */\n      and\n        /* \"#utility.yul\":17981:18018   */\n      tag_385\n        /* \"#utility.yul\":18013:18017   */\n      dup7\n        /* \"#utility.yul\":17981:18018   */\n      tag_189\n      jump\t// in\n    tag_385:\n        /* \"#utility.yul\":18040:18041   */\n      0x00\n        /* \"#utility.yul\":18054:18262   */\n    tag_386:\n        /* \"#utility.yul\":18068:18075   */\n      dup3\n        /* \"#utility.yul\":18065:18066   */\n      dup2\n        /* \"#utility.yul\":18062:18076   */\n      lt\n        /* \"#utility.yul\":18054:18262   */\n      iszero\n      tag_388\n      jumpi\n        /* \"#utility.yul\":18147:18156   */\n      dup5\n        /* \"#utility.yul\":18142:18145   */\n      dup10\n        /* \"#utility.yul\":18138:18157   */\n      add\n        /* \"#utility.yul\":18132:18158   */\n      mload\n        /* \"#utility.yul\":18124:18130   */\n      dup3\n        /* \"#utility.yul\":18117:18159   */\n      sstore\n        /* \"#utility.yul\":18198:18199   */\n      0x01\n        /* \"#utility.yul\":18190:18196   */\n      dup3\n        /* \"#utility.yul\":18186:18200   */\n      add\n        /* \"#utility.yul\":18176:18200   */\n      swap2\n      pop\n        /* \"#utility.yul\":18245:18247   */\n      0x20\n        /* \"#utility.yul\":18234:18243   */\n      dup6\n        /* \"#utility.yul\":18230:18248   */\n      add\n        /* \"#utility.yul\":18217:18248   */\n      swap5\n      pop\n        /* \"#utility.yul\":18091:18095   */\n      0x20\n        /* \"#utility.yul\":18088:18089   */\n      dup2\n        /* \"#utility.yul\":18084:18096   */\n      add\n        /* \"#utility.yul\":18079:18096   */\n      swap1\n      pop\n        /* \"#utility.yul\":18054:18262   */\n      jump(tag_386)\n    tag_388:\n        /* \"#utility.yul\":18290:18296   */\n      dup7\n        /* \"#utility.yul\":18281:18288   */\n      dup4\n        /* \"#utility.yul\":18278:18297   */\n      lt\n        /* \"#utility.yul\":18275:18454   */\n      iszero\n      tag_389\n      jumpi\n        /* \"#utility.yul\":18348:18357   */\n      dup5\n        /* \"#utility.yul\":18343:18346   */\n      dup10\n        /* \"#utility.yul\":18339:18358   */\n      add\n        /* \"#utility.yul\":18333:18359   */\n      mload\n        /* \"#utility.yul\":18391:18439   */\n      tag_390\n        /* \"#utility.yul\":18433:18437   */\n      0x1f\n        /* \"#utility.yul\":18425:18431   */\n      dup10\n        /* \"#utility.yul\":18421:18438   */\n      and\n        /* \"#utility.yul\":18410:18419   */\n      dup3\n        /* \"#utility.yul\":18391:18439   */\n      tag_202\n      jump\t// in\n    tag_390:\n        /* \"#utility.yul\":18383:18389   */\n      dup4\n        /* \"#utility.yul\":18376:18440   */\n      sstore\n        /* \"#utility.yul\":18298:18454   */\n      pop\n        /* \"#utility.yul\":18275:18454   */\n    tag_389:\n        /* \"#utility.yul\":18500:18501   */\n      0x01\n        /* \"#utility.yul\":18496:18497   */\n      0x02\n        /* \"#utility.yul\":18488:18494   */\n      dup9\n        /* \"#utility.yul\":18484:18498   */\n      mul\n        /* \"#utility.yul\":18480:18502   */\n      add\n        /* \"#utility.yul\":18474:18478   */\n      dup9\n        /* \"#utility.yul\":18467:18503   */\n      sstore\n        /* \"#utility.yul\":17902:18513   */\n      pop\n      pop\n      pop\n        /* \"#utility.yul\":17865:18752   */\n    tag_381:\n      pop\n        /* \"#utility.yul\":17455:18758   */\n      pop\n      pop\n      pop\n        /* \"#utility.yul\":17363:18758   */\n      pop\n      pop\n      jump\t// out\n        /* \"#utility.yul\":18764:19187   */\n    tag_75:\n        /* \"#utility.yul\":18905:18909   */\n      0x00\n        /* \"#utility.yul\":18943:18945   */\n      0x40\n        /* \"#utility.yul\":18932:18941   */\n      dup3\n        /* \"#utility.yul\":18928:18946   */\n      add\n        /* \"#utility.yul\":18920:18946   */\n      swap1\n      pop\n        /* \"#utility.yul\":18992:19001   */\n      dup2\n        /* \"#utility.yul\":18986:18990   */\n      dup2\n        /* \"#utility.yul\":18982:19002   */\n      sub\n        /* \"#utility.yul\":18978:18979   */\n      0x00\n        /* \"#utility.yul\":18967:18976   */\n      dup4\n        /* \"#utility.yul\":18963:18980   */\n      add\n        /* \"#utility.yul\":18956:19003   */\n      mstore\n        /* \"#utility.yul\":19020:19098   */\n      tag_392\n        /* \"#utility.yul\":19093:19097   */\n      dup2\n        /* \"#utility.yul\":19084:19090   */\n      dup6\n        /* \"#utility.yul\":19020:19098   */\n      tag_167\n      jump\t// in\n    tag_392:\n        /* \"#utility.yul\":19012:19098   */\n      swap1\n      pop\n        /* \"#utility.yul\":19108:19180   */\n      tag_393\n        /* \"#utility.yul\":19176:19178   */\n      0x20\n        /* \"#utility.yul\":19165:19174   */\n      dup4\n        /* \"#utility.yul\":19161:19179   */\n      add\n        /* \"#utility.yul\":19152:19158   */\n      dup5\n        /* \"#utility.yul\":19108:19180   */\n      tag_158\n      jump\t// in\n    tag_393:\n        /* \"#utility.yul\":18764:19187   */\n      swap4\n      swap3\n      pop\n      pop\n      pop\n      jump\t// out\n        /* \"#utility.yul\":19193:19373   */\n    tag_96:\n        /* \"#utility.yul\":19241:19318   */\n      0x4e487b7100000000000000000000000000000000000000000000000000000000\n        /* \"#utility.yul\":19238:19239   */\n      0x00\n        /* \"#utility.yul\":19231:19319   */\n      mstore\n        /* \"#utility.yul\":19338:19342   */\n      0x32\n        /* \"#utility.yul\":19335:19336   */\n      0x04\n        /* \"#utility.yul\":19328:19343   */\n      mstore\n        /* \"#utility.yul\":19362:19366   */\n      0x24\n        /* \"#utility.yul\":19359:19360   */\n      0x00\n        /* \"#utility.yul\":19352:19367   */\n      revert\n        /* \"#utility.yul\":19379:19559   */\n    tag_204:\n        /* \"#utility.yul\":19427:19504   */\n      0x4e487b7100000000000000000000000000000000000000000000000000000000\n        /* \"#utility.yul\":19424:19425   */\n      0x00\n        /* \"#utility.yul\":19417:19505   */\n      mstore\n        /* \"#utility.yul\":19524:19528   */\n      0x11\n        /* \"#utility.yul\":19521:19522   */\n      0x04\n        /* \"#utility.yul\":19514:19529   */\n      mstore\n        /* \"#utility.yul\":19548:19552   */\n      0x24\n        /* \"#utility.yul\":19545:19546   */\n      0x00\n        /* \"#utility.yul\":19538:19553   */\n      revert\n        /* \"#utility.yul\":19565:19798   */\n    tag_100:\n        /* \"#utility.yul\":19604:19607   */\n      0x00\n        /* \"#utility.yul\":19627:19651   */\n      tag_397\n        /* \"#utility.yul\":19645:19650   */\n      dup3\n        /* \"#utility.yul\":19627:19651   */\n      tag_157\n      jump\t// in\n    tag_397:\n        /* \"#utility.yul\":19618:19651   */\n      swap2\n      pop\n        /* \"#utility.yul\":19673:19739   */\n      0xffffffffffffffffffffffffffffffffffffffffffffffffffffffffffffffff\n        /* \"#utility.yul\":19666:19671   */\n      dup3\n        /* \"#utility.yul\":19663:19740   */\n      sub\n        /* \"#utility.yul\":19660:19763   */\n      tag_398\n      jumpi\n        /* \"#utility.yul\":19743:19761   */\n      tag_399\n      tag_204\n      jump\t// in\n    tag_399:\n        /* \"#utility.yul\":19660:19763   */\n    tag_398:\n        /* \"#utility.yul\":19790:19791   */\n      0x01\n        /* \"#utility.yul\":19783:19788   */\n      dup3\n        /* \"#utility.yul\":19779:19792   */\n      add\n        /* \"#utility.yul\":19772:19792   */\n      swap1\n      pop\n        /* \"#utility.yul\":19565:19798   */\n      swap2\n      swap1\n      pop\n      jump\t// out\n\n    auxdata: 0xa26469706673582212205352095549e0fcc1e07d9d7804f50d6edfeb12875b817595ed372b4edd4db4ff64736f6c634300081f0033\n}\n",
				"bytecode": {
					"linkReferences": {},
					"object": "608060405234801561000f575f5ffd5b5060405161164e38038061164e83398181016040528101906100319190610147565b336100418161004f60201b60201c565b508060018190555050610172565b5f5f5f9054906101000a900473ffffffffffffffffffffffffffffffffffffffff169050815f5f6101000a81548173ffffffffffffffffffffffffffffffffffffffff021916908373ffffffffffffffffffffffffffffffffffffffff1602179055508173ffffffffffffffffffffffffffffffffffffffff168173ffffffffffffffffffffffffffffffffffffffff167f8be0079c531659141344cd1fd0a4f28419497f9722a3daafe3b4186f6b6457e060405160405180910390a35050565b5f5ffd5b5f819050919050565b61012681610114565b8114610130575f5ffd5b50565b5f815190506101418161011d565b92915050565b5f6020828403121561015c5761015b610110565b5b5f61016984828501610133565b91505092915050565b6114cf8061017f5f395ff3fe608060405260043610610085575f3560e01c806387d817891161005857806387d81789146100fb5780638da5cb5b14610139578063d6a7b7c414610163578063f2fde38b1461019f578063f8defa3c146101c757610085565b806324600fc3146100895780635ddfdb711461009f5780636e6b7984146100bb578063715018a6146100e5575b5f5ffd5b348015610094575f5ffd5b5061009d6101f1565b005b6100b960048036038101906100b49190610c23565b6102ab565b005b3480156100c6575f5ffd5b506100cf610401565b6040516100dc9190610c82565b60405180910390f35b3480156100f0575f5ffd5b506100f9610407565b005b348015610106575f5ffd5b50610121600480360381019061011c9190610cc5565b61041a565b60405161013093929190610d8f565b60405180910390f35b348015610144575f5ffd5b5061014d6104f4565b60405161015a9190610dcb565b60405180910390f35b34801561016e575f5ffd5b5061018960048036038101906101849190610e0e565b61051b565b6040516101969190610fa7565b60405180910390f35b3480156101aa575f5ffd5b506101c560048036038101906101c09190610e0e565b610804565b005b3480156101d2575f5ffd5b506101db610856565b6040516101e89190610fa7565b60405180910390f35b6101f96109a0565b5f6102026104f4565b73ffffffffffffffffffffffffffffffffffffffff164760405161022590610ff4565b5f6040518083038185875af1925050503d805f811461025f576040519150601f19603f3d011682016040523d82523d5f602084013e610264565b606091505b50509050806102a8576040517f08c379a000000000000000000000000000000000000000000000000000000000815260040161029f90611052565b60405180910390fd5b50565b60015434146102ef576040517f08c379a00000000000000000000000000000000000000000000000000000000081526004016102e6906110e0565b60405180910390fd5b600260405180606001604052803373ffffffffffffffffffffffffffffffffffffffff16815260200183815260200134815250908060018154018082558091505060019003905f5260205f2090600302015f909190919091505f820151815f015f6101000a81548173ffffffffffffffffffffffffffffffffffffffff021916908373ffffffffffffffffffffffffffffffffffffffff16021790555060208201518160010190816103a191906112fb565b506040820151816002015550503373ffffffffffffffffffffffffffffffffffffffff167f2333e159bfab9e5471f0b05de3eb962fc027bedccc2b553ae9068c58cdeb0ef682346040516103f69291906113ca565b60405180910390a250565b60015481565b61040f6109a0565b6104185f6109e0565b565b60028181548110610429575f80fd5b905f5260205f2090600302015f91509050805f015f9054906101000a900473ffffffffffffffffffffffffffffffffffffffff169080600101805461046d9061112b565b80601f01602080910402602001604051908101604052809291908181526020018280546104999061112b565b80156104e45780601f106104bb576101008083540402835291602001916104e4565b820191905f5260205f20905b8154815290600101906020018083116104c757829003601f168201915b5050505050908060020154905083565b5f5f5f9054906101000a900473ffffffffffffffffffffffffffffffffffffffff16905090565b60605f5f90505f5f90505b6002805490508110156105c3578373ffffffffffffffffffffffffffffffffffffffff166002828154811061055e5761055d6113f8565b5b905f5260205f2090600302015f015f9054906101000a900473ffffffffffffffffffffffffffffffffffffffff1673ffffffffffffffffffffffffffffffffffffffff16036105b65781806105b290611452565b9250505b8080600101915050610526565b505f8167ffffffffffffffff8111156105df576105de610aff565b5b60405190808252806020026020018201604052801561061857816020015b610605610aa1565b8152602001906001900390816105fd5790505b5090505f5f90505f5f90505b6002805490508110156107f8578573ffffffffffffffffffffffffffffffffffffffff166002828154811061065c5761065b6113f8565b5b905f5260205f2090600302015f015f9054906101000a900473ffffffffffffffffffffffffffffffffffffffff1673ffffffffffffffffffffffffffffffffffffffff16036107eb57600281815481106106b9576106b86113f8565b5b905f5260205f2090600302016040518060600160405290815f82015f9054906101000a900473ffffffffffffffffffffffffffffffffffffffff1673ffffffffffffffffffffffffffffffffffffffff1673ffffffffffffffffffffffffffffffffffffffff1681526020016001820180546107349061112b565b80601f01602080910402602001604051908101604052809291908181526020018280546107609061112b565b80156107ab5780601f10610782576101008083540402835291602001916107ab565b820191905f5260205f20905b81548152906001019060200180831161078e57829003601f168201915b505050505081526020016002820154815250508383815181106107d1576107d06113f8565b5b602002602001018190525081806107e790611452565b9250505b8080600101915050610624565b50819350505050919050565b61080c6109a0565b3373ffffffffffffffffffffffffffffffffffffffff1661082b6104f4565b73ffffffffffffffffffffffffffffffffffffffff161461084a575f5ffd5b610853816109e0565b50565b60606002805480602002602001604051908101604052809291908181526020015f905b82821015610997578382905f5260205f2090600302016040518060600160405290815f82015f9054906101000a900473ffffffffffffffffffffffffffffffffffffffff1673ffffffffffffffffffffffffffffffffffffffff1673ffffffffffffffffffffffffffffffffffffffff1681526020016001820180546108fe9061112b565b80601f016020809104026020016040519081016040528092919081815260200182805461092a9061112b565b80156109755780601f1061094c57610100808354040283529160200191610975565b820191905f5260205f20905b81548152906001019060200180831161095857829003601f168201915b5050505050815260200160028201548152505081526020019060010190610879565b50505050905090565b3373ffffffffffffffffffffffffffffffffffffffff166109bf6104f4565b73ffffffffffffffffffffffffffffffffffffffff16146109de575f5ffd5b565b5f5f5f9054906101000a900473ffffffffffffffffffffffffffffffffffffffff169050815f5f6101000a81548173ffffffffffffffffffffffffffffffffffffffff021916908373ffffffffffffffffffffffffffffffffffffffff1602179055508173ffffffffffffffffffffffffffffffffffffffff168173ffffffffffffffffffffffffffffffffffffffff167f8be0079c531659141344cd1fd0a4f28419497f9722a3daafe3b4186f6b6457e060405160405180910390a35050565b60405180606001604052805f73ffffffffffffffffffffffffffffffffffffffff168152602001606081526020015f81525090565b5f604051905090565b5f5ffd5b5f5ffd5b5f5ffd5b5f5ffd5b5f601f19601f8301169050919050565b7f4e487b71000000000000000000000000000000000000000000000000000000005f52604160045260245ffd5b610b3582610aef565b810181811067ffffffffffffffff82111715610b5457610b53610aff565b5b80604052505050565b5f610b66610ad6565b9050610b728282610b2c565b919050565b5f67ffffffffffffffff821115610b9157610b90610aff565b5b610b9a82610aef565b9050602081019050919050565b828183375f83830152505050565b5f610bc7610bc284610b77565b610b5d565b905082815260208101848484011115610be357610be2610aeb565b5b610bee848285610ba7565b509392505050565b5f82601f830112610c0a57610c09610ae7565b5b8135610c1a848260208601610bb5565b91505092915050565b5f60208284031215610c3857610c37610adf565b5b5f82013567ffffffffffffffff811115610c5557610c54610ae3565b5b610c6184828501610bf6565b91505092915050565b5f819050919050565b610c7c81610c6a565b82525050565b5f602082019050610c955f830184610c73565b92915050565b610ca481610c6a565b8114610cae575f5ffd5b50565b5f81359050610cbf81610c9b565b92915050565b5f60208284031215610cda57610cd9610adf565b5b5f610ce784828501610cb1565b91505092915050565b5f73ffffffffffffffffffffffffffffffffffffffff82169050919050565b5f610d1982610cf0565b9050919050565b610d2981610d0f565b82525050565b5f81519050919050565b5f82825260208201905092915050565b8281835e5f83830152505050565b5f610d6182610d2f565b610d6b8185610d39565b9350610d7b818560208601610d49565b610d8481610aef565b840191505092915050565b5f606082019050610da25f830186610d20565b8181036020830152610db48185610d57565b9050610dc36040830184610c73565b949350505050565b5f602082019050610dde5f830184610d20565b92915050565b610ded81610d0f565b8114610df7575f5ffd5b50565b5f81359050610e0881610de4565b92915050565b5f60208284031215610e2357610e22610adf565b5b5f610e3084828501610dfa565b91505092915050565b5f81519050919050565b5f82825260208201905092915050565b5f819050602082019050919050565b610e6b81610d0f565b82525050565b5f82825260208201905092915050565b5f610e8b82610d2f565b610e958185610e71565b9350610ea5818560208601610d49565b610eae81610aef565b840191505092915050565b610ec281610c6a565b82525050565b5f606083015f830151610edd5f860182610e62565b5060208301518482036020860152610ef58282610e81565b9150506040830151610f0a6040860182610eb9565b508091505092915050565b5f610f208383610ec8565b905092915050565b5f602082019050919050565b5f610f3e82610e39565b610f488185610e43565b935083602082028501610f5a85610e53565b805f5b85811015610f955784840389528151610f768582610f15565b9450610f8183610f28565b925060208a01995050600181019050610f5d565b50829750879550505050505092915050565b5f6020820190508181035f830152610fbf8184610f34565b905092915050565b5f81905092915050565b50565b5f610fdf5f83610fc7565b9150610fea82610fd1565b5f82019050919050565b5f610ffe82610fd4565b9150819050919050565b7f5472616e73666572206661696c656400000000000000000000000000000000005f82015250565b5f61103c600f83610d39565b915061104782611008565b602082019050919050565b5f6020820190508181035f83015261106981611030565b9050919050565b7f5061796d656e74206d75737420626520657175616c20746f2074686520636f755f8201527f7273652066656500000000000000000000000000000000000000000000000000602082015250565b5f6110ca602783610d39565b91506110d582611070565b604082019050919050565b5f6020820190508181035f8301526110f7816110be565b9050919050565b7f4e487b71000000000000000000000000000000000000000000000000000000005f52602260045260245ffd5b5f600282049050600182168061114257607f821691505b602082108103611155576111546110fe565b5b50919050565b5f819050815f5260205f209050919050565b5f6020601f8301049050919050565b5f82821b905092915050565b5f600883026111b77fffffffffffffffffffffffffffffffffffffffffffffffffffffffffffffffff8261117c565b6111c1868361117c565b95508019841693508086168417925050509392505050565b5f819050919050565b5f6111fc6111f76111f284610c6a565b6111d9565b610c6a565b9050919050565b5f819050919050565b611215836111e2565b61122961122182611203565b848454611188565b825550505050565b5f5f905090565b611240611231565b61124b81848461120c565b505050565b5b8181101561126e576112635f82611238565b600181019050611251565b5050565b601f8211156112b3576112848161115b565b61128d8461116d565b8101602085101561129c578190505b6112b06112a88561116d565b830182611250565b50505b505050565b5f82821c905092915050565b5f6112d35f19846008026112b8565b1980831691505092915050565b5f6112eb83836112c4565b9150826002028217905092915050565b61130482610d2f565b67ffffffffffffffff81111561131d5761131c610aff565b5b611327825461112b565b611332828285611272565b5f60209050601f831160018114611363575f8415611351578287015190505b61135b85826112e0565b8655506113c2565b601f1984166113718661115b565b5f5b8281101561139857848901518255600182019150602085019450602081019050611373565b868310156113b557848901516113b1601f8916826112c4565b8355505b6001600288020188555050505b505050505050565b5f6040820190508181035f8301526113e28185610d57565b90506113f16020830184610c73565b9392505050565b7f4e487b71000000000000000000000000000000000000000000000000000000005f52603260045260245ffd5b7f4e487b71000000000000000000000000000000000000000000000000000000005f52601160045260245ffd5b5f61145c82610c6a565b91507fffffffffffffffffffffffffffffffffffffffffffffffffffffffffffffffff820361148e5761148d611425565b5b60018201905091905056fea26469706673582212205352095549e0fcc1e07d9d7804f50d6edfeb12875b817595ed372b4edd4db4ff64736f6c634300081f0033",
					"opcodes": "PUSH1 0x80 PUSH1 0x40 MSTORE CALLVALUE DUP1 ISZERO PUSH2 0xF JUMPI PUSH0 PUSH0 REVERT JUMPDEST POP PUSH1 0x40 MLOAD PUSH2 0x164E CODESIZE SUB DUP1 PUSH2 0x164E DUP4 CODECOPY DUP2 DUP2 ADD PUSH1 0x40 MSTORE DUP2 ADD SWAP1 PUSH2 0x31 SWAP2 SWAP1 PUSH2 0x147 JUMP JUMPDEST CALLER PUSH2 0x41 DUP2 PUSH2 0x4F PUSH1 0x20 SHL PUSH1 0x20 SHR JUMP JUMPDEST POP DUP1 PUSH1 0x1 DUP2 SWAP1 SSTORE POP POP PUSH2 0x172 JUMP JUMPDEST PUSH0 PUSH0 PUSH0 SWAP1 SLOAD SWAP1 PUSH2 0x100 EXP SWAP1 DIV PUSH20 0xFFFFFFFFFFFFFFFFFFFFFFFFFFFFFFFFFFFFFFFF AND SWAP1 POP DUP2 PUSH0 PUSH0 PUSH2 0x100 EXP DUP2 SLOAD DUP2 PUSH20 0xFFFFFFFFFFFFFFFFFFFFFFFFFFFFFFFFFFFFFFFF MUL NOT AND SWAP1 DUP4 PUSH20 0xFFFFFFFFFFFFFFFFFFFFFFFFFFFFFFFFFFFFFFFF AND MUL OR SWAP1 SSTORE POP DUP2 PUSH20 0xFFFFFFFFFFFFFFFFFFFFFFFFFFFFFFFFFFFFFFFF AND DUP2 PUSH20 0xFFFFFFFFFFFFFFFFFFFFFFFFFFFFFFFFFFFFFFFF AND PUSH32 0x8BE0079C531659141344CD1FD0A4F28419497F9722A3DAAFE3B4186F6B6457E0 PUSH1 0x40 MLOAD PUSH1 0x40 MLOAD DUP1 SWAP2 SUB SWAP1 LOG3 POP POP JUMP JUMPDEST PUSH0 PUSH0 REVERT JUMPDEST PUSH0 DUP2 SWAP1 POP SWAP2 SWAP1 POP JUMP JUMPDEST PUSH2 0x126 DUP2 PUSH2 0x114 JUMP JUMPDEST DUP2 EQ PUSH2 0x130 JUMPI PUSH0 PUSH0 REVERT JUMPDEST POP JUMP JUMPDEST PUSH0 DUP2 MLOAD SWAP1 POP PUSH2 0x141 DUP2 PUSH2 0x11D JUMP JUMPDEST SWAP3 SWAP2 POP POP JUMP JUMPDEST PUSH0 PUSH1 0x20 DUP3 DUP5 SUB SLT ISZERO PUSH2 0x15C JUMPI PUSH2 0x15B PUSH2 0x110 JUMP JUMPDEST JUMPDEST PUSH0 PUSH2 0x169 DUP5 DUP3 DUP6 ADD PUSH2 0x133 JUMP JUMPDEST SWAP2 POP POP SWAP3 SWAP2 POP POP JUMP JUMPDEST PUSH2 0x14CF DUP1 PUSH2 0x17F PUSH0 CODECOPY PUSH0 RETURN INVALID PUSH1 0x80 PUSH1 0x40 MSTORE PUSH1 0x4 CALLDATASIZE LT PUSH2 0x85 JUMPI PUSH0 CALLDATALOAD PUSH1 0xE0 SHR DUP1 PUSH4 0x87D81789 GT PUSH2 0x58 JUMPI DUP1 PUSH4 0x87D81789 EQ PUSH2 0xFB JUMPI DUP1 PUSH4 0x8DA5CB5B EQ PUSH2 0x139 JUMPI DUP1 PUSH4 0xD6A7B7C4 EQ PUSH2 0x163 JUMPI DUP1 PUSH4 0xF2FDE38B EQ PUSH2 0x19F JUMPI DUP1 PUSH4 0xF8DEFA3C EQ PUSH2 0x1C7 JUMPI PUSH2 0x85 JUMP JUMPDEST DUP1 PUSH4 0x24600FC3 EQ PUSH2 0x89 JUMPI DUP1 PUSH4 0x5DDFDB71 EQ PUSH2 0x9F JUMPI DUP1 PUSH4 0x6E6B7984 EQ PUSH2 0xBB JUMPI DUP1 PUSH4 0x715018A6 EQ PUSH2 0xE5 JUMPI JUMPDEST PUSH0 PUSH0 REVERT JUMPDEST CALLVALUE DUP1 ISZERO PUSH2 0x94 JUMPI PUSH0 PUSH0 REVERT JUMPDEST POP PUSH2 0x9D PUSH2 0x1F1 JUMP JUMPDEST STOP JUMPDEST PUSH2 0xB9 PUSH1 0x4 DUP1 CALLDATASIZE SUB DUP2 ADD SWAP1 PUSH2 0xB4 SWAP2 SWAP1 PUSH2 0xC23 JUMP JUMPDEST PUSH2 0x2AB JUMP JUMPDEST STOP JUMPDEST CALLVALUE DUP1 ISZERO PUSH2 0xC6 JUMPI PUSH0 PUSH0 REVERT JUMPDEST POP PUSH2 0xCF PUSH2 0x401 JUMP JUMPDEST PUSH1 0x40 MLOAD PUSH2 0xDC SWAP2 SWAP1 PUSH2 0xC82 JUMP JUMPDEST PUSH1 0x40 MLOAD DUP1 SWAP2 SUB SWAP1 RETURN JUMPDEST CALLVALUE DUP1 ISZERO PUSH2 0xF0 JUMPI PUSH0 PUSH0 REVERT JUMPDEST POP PUSH2 0xF9 PUSH2 0x407 JUMP JUMPDEST STOP JUMPDEST CALLVALUE DUP1 ISZERO PUSH2 0x106 JUMPI PUSH0 PUSH0 REVERT JUMPDEST POP PUSH2 0x121 PUSH1 0x4 DUP1 CALLDATASIZE SUB DUP2 ADD SWAP1 PUSH2 0x11C SWAP2 SWAP1 PUSH2 0xCC5 JUMP JUMPDEST PUSH2 0x41A JUMP JUMPDEST PUSH1 0x40 MLOAD PUSH2 0x130 SWAP4 SWAP3 SWAP2 SWAP1 PUSH2 0xD8F JUMP JUMPDEST PUSH1 0x40 MLOAD DUP1 SWAP2 SUB SWAP1 RETURN JUMPDEST CALLVALUE DUP1 ISZERO PUSH2 0x144 JUMPI PUSH0 PUSH0 REVERT JUMPDEST POP PUSH2 0x14D PUSH2 0x4F4 JUMP JUMPDEST PUSH1 0x40 MLOAD PUSH2 0x15A SWAP2 SWAP1 PUSH2 0xDCB JUMP JUMPDEST PUSH1 0x40 MLOAD DUP1 SWAP2 SUB SWAP1 RETURN JUMPDEST CALLVALUE DUP1 ISZERO PUSH2 0x16E JUMPI PUSH0 PUSH0 REVERT JUMPDEST POP PUSH2 0x189 PUSH1 0x4 DUP1 CALLDATASIZE SUB DUP2 ADD SWAP1 PUSH2 0x184 SWAP2 SWAP1 PUSH2 0xE0E JUMP JUMPDEST PUSH2 0x51B JUMP JUMPDEST PUSH1 0x40 MLOAD PUSH2 0x196 SWAP2 SWAP1 PUSH2 0xFA7 JUMP JUMPDEST PUSH1 0x40 MLOAD DUP1 SWAP2 SUB SWAP1 RETURN JUMPDEST CALLVALUE DUP1 ISZERO PUSH2 0x1AA JUMPI PUSH0 PUSH0 REVERT JUMPDEST POP PUSH2 0x1C5 PUSH1 0x4 DUP1 CALLDATASIZE SUB DUP2 ADD SWAP1 PUSH2 0x1C0 SWAP2 SWAP1 PUSH2 0xE0E JUMP JUMPDEST PUSH2 0x804 JUMP JUMPDEST STOP JUMPDEST CALLVALUE DUP1 ISZERO PUSH2 0x1D2 JUMPI PUSH0 PUSH0 REVERT JUMPDEST POP PUSH2 0x1DB PUSH2 0x856 JUMP JUMPDEST PUSH1 0x40 MLOAD PUSH2 0x1E8 SWAP2 SWAP1 PUSH2 0xFA7 JUMP JUMPDEST PUSH1 0x40 MLOAD DUP1 SWAP2 SUB SWAP1 RETURN JUMPDEST PUSH2 0x1F9 PUSH2 0x9A0 JUMP JUMPDEST PUSH0 PUSH2 0x202 PUSH2 0x4F4 JUMP JUMPDEST PUSH20 0xFFFFFFFFFFFFFFFFFFFFFFFFFFFFFFFFFFFFFFFF AND SELFBALANCE PUSH1 0x40 MLOAD PUSH2 0x225 SWAP1 PUSH2 0xFF4 JUMP JUMPDEST PUSH0 PUSH1 0x40 MLOAD DUP1 DUP4 SUB DUP2 DUP6 DUP8 GAS CALL SWAP3 POP POP POP RETURNDATASIZE DUP1 PUSH0 DUP2 EQ PUSH2 0x25F JUMPI PUSH1 0x40 MLOAD SWAP2 POP PUSH1 0x1F NOT PUSH1 0x3F RETURNDATASIZE ADD AND DUP3 ADD PUSH1 0x40 MSTORE RETURNDATASIZE DUP3 MSTORE RETURNDATASIZE PUSH0 PUSH1 0x20 DUP5 ADD RETURNDATACOPY PUSH2 0x264 JUMP JUMPDEST PUSH1 0x60 SWAP2 POP JUMPDEST POP POP SWAP1 POP DUP1 PUSH2 0x2A8 JUMPI PUSH1 0x40 MLOAD PUSH32 0x8C379A000000000000000000000000000000000000000000000000000000000 DUP2 MSTORE PUSH1 0x4 ADD PUSH2 0x29F SWAP1 PUSH2 0x1052 JUMP JUMPDEST PUSH1 0x40 MLOAD DUP1 SWAP2 SUB SWAP1 REVERT JUMPDEST POP JUMP JUMPDEST PUSH1 0x1 SLOAD CALLVALUE EQ PUSH2 0x2EF JUMPI PUSH1 0x40 MLOAD PUSH32 0x8C379A000000000000000000000000000000000000000000000000000000000 DUP2 MSTORE PUSH1 0x4 ADD PUSH2 0x2E6 SWAP1 PUSH2 0x10E0 JUMP JUMPDEST PUSH1 0x40 MLOAD DUP1 SWAP2 SUB SWAP1 REVERT JUMPDEST PUSH1 0x2 PUSH1 0x40 MLOAD DUP1 PUSH1 0x60 ADD PUSH1 0x40 MSTORE DUP1 CALLER PUSH20 0xFFFFFFFFFFFFFFFFFFFFFFFFFFFFFFFFFFFFFFFF AND DUP2 MSTORE PUSH1 0x20 ADD DUP4 DUP2 MSTORE PUSH1 0x20 ADD CALLVALUE DUP2 MSTORE POP SWAP1 DUP1 PUSH1 0x1 DUP2 SLOAD ADD DUP1 DUP3 SSTORE DUP1 SWAP2 POP POP PUSH1 0x1 SWAP1 SUB SWAP1 PUSH0 MSTORE PUSH1 0x20 PUSH0 KECCAK256 SWAP1 PUSH1 0x3 MUL ADD PUSH0 SWAP1 SWAP2 SWAP1 SWAP2 SWAP1 SWAP2 POP PUSH0 DUP3 ADD MLOAD DUP2 PUSH0 ADD PUSH0 PUSH2 0x100 EXP DUP2 SLOAD DUP2 PUSH20 0xFFFFFFFFFFFFFFFFFFFFFFFFFFFFFFFFFFFFFFFF MUL NOT AND SWAP1 DUP4 PUSH20 0xFFFFFFFFFFFFFFFFFFFFFFFFFFFFFFFFFFFFFFFF AND MUL OR SWAP1 SSTORE POP PUSH1 0x20 DUP3 ADD MLOAD DUP2 PUSH1 0x1 ADD SWAP1 DUP2 PUSH2 0x3A1 SWAP2 SWAP1 PUSH2 0x12FB JUMP JUMPDEST POP PUSH1 0x40 DUP3 ADD MLOAD DUP2 PUSH1 0x2 ADD SSTORE POP POP CALLER PUSH20 0xFFFFFFFFFFFFFFFFFFFFFFFFFFFFFFFFFFFFFFFF AND PUSH32 0x2333E159BFAB9E5471F0B05DE3EB962FC027BEDCCC2B553AE9068C58CDEB0EF6 DUP3 CALLVALUE PUSH1 0x40 MLOAD PUSH2 0x3F6 SWAP3 SWAP2 SWAP1 PUSH2 0x13CA JUMP JUMPDEST PUSH1 0x40 MLOAD DUP1 SWAP2 SUB SWAP1 LOG2 POP JUMP JUMPDEST PUSH1 0x1 SLOAD DUP2 JUMP JUMPDEST PUSH2 0x40F PUSH2 0x9A0 JUMP JUMPDEST PUSH2 0x418 PUSH0 PUSH2 0x9E0 JUMP JUMPDEST JUMP JUMPDEST PUSH1 0x2 DUP2 DUP2 SLOAD DUP2 LT PUSH2 0x429 JUMPI PUSH0 DUP1 REVERT JUMPDEST SWAP1 PUSH0 MSTORE PUSH1 0x20 PUSH0 KECCAK256 SWAP1 PUSH1 0x3 MUL ADD PUSH0 SWAP2 POP SWAP1 POP DUP1 PUSH0 ADD PUSH0 SWAP1 SLOAD SWAP1 PUSH2 0x100 EXP SWAP1 DIV PUSH20 0xFFFFFFFFFFFFFFFFFFFFFFFFFFFFFFFFFFFFFFFF AND SWAP1 DUP1 PUSH1 0x1 ADD DUP1 SLOAD PUSH2 0x46D SWAP1 PUSH2 0x112B JUMP JUMPDEST DUP1 PUSH1 0x1F ADD PUSH1 0x20 DUP1 SWAP2 DIV MUL PUSH1 0x20 ADD PUSH1 0x40 MLOAD SWAP1 DUP2 ADD PUSH1 0x40 MSTORE DUP1 SWAP3 SWAP2 SWAP1 DUP2 DUP2 MSTORE PUSH1 0x20 ADD DUP3 DUP1 SLOAD PUSH2 0x499 SWAP1 PUSH2 0x112B JUMP JUMPDEST DUP1 ISZERO PUSH2 0x4E4 JUMPI DUP1 PUSH1 0x1F LT PUSH2 0x4BB JUMPI PUSH2 0x100 DUP1 DUP4 SLOAD DIV MUL DUP4 MSTORE SWAP2 PUSH1 0x20 ADD SWAP2 PUSH2 0x4E4 JUMP JUMPDEST DUP3 ADD SWAP2 SWAP1 PUSH0 MSTORE PUSH1 0x20 PUSH0 KECCAK256 SWAP1 JUMPDEST DUP2 SLOAD DUP2 MSTORE SWAP1 PUSH1 0x1 ADD SWAP1 PUSH1 0x20 ADD DUP1 DUP4 GT PUSH2 0x4C7 JUMPI DUP3 SWAP1 SUB PUSH1 0x1F AND DUP3 ADD SWAP2 JUMPDEST POP POP POP POP POP SWAP1 DUP1 PUSH1 0x2 ADD SLOAD SWAP1 POP DUP4 JUMP JUMPDEST PUSH0 PUSH0 PUSH0 SWAP1 SLOAD SWAP1 PUSH2 0x100 EXP SWAP1 DIV PUSH20 0xFFFFFFFFFFFFFFFFFFFFFFFFFFFFFFFFFFFFFFFF AND SWAP1 POP SWAP1 JUMP JUMPDEST PUSH1 0x60 PUSH0 PUSH0 SWAP1 POP PUSH0 PUSH0 SWAP1 POP JUMPDEST PUSH1 0x2 DUP1 SLOAD SWAP1 POP DUP2 LT ISZERO PUSH2 0x5C3 JUMPI DUP4 PUSH20 0xFFFFFFFFFFFFFFFFFFFFFFFFFFFFFFFFFFFFFFFF AND PUSH1 0x2 DUP3 DUP2 SLOAD DUP2 LT PUSH2 0x55E JUMPI PUSH2 0x55D PUSH2 0x13F8 JUMP JUMPDEST JUMPDEST SWAP1 PUSH0 MSTORE PUSH1 0x20 PUSH0 KECCAK256 SWAP1 PUSH1 0x3 MUL ADD PUSH0 ADD PUSH0 SWAP1 SLOAD SWAP1 PUSH2 0x100 EXP SWAP1 DIV PUSH20 0xFFFFFFFFFFFFFFFFFFFFFFFFFFFFFFFFFFFFFFFF AND PUSH20 0xFFFFFFFFFFFFFFFFFFFFFFFFFFFFFFFFFFFFFFFF AND SUB PUSH2 0x5B6 JUMPI DUP2 DUP1 PUSH2 0x5B2 SWAP1 PUSH2 0x1452 JUMP JUMPDEST SWAP3 POP POP JUMPDEST DUP1 DUP1 PUSH1 0x1 ADD SWAP2 POP POP PUSH2 0x526 JUMP JUMPDEST POP PUSH0 DUP2 PUSH8 0xFFFFFFFFFFFFFFFF DUP2 GT ISZERO PUSH2 0x5DF JUMPI PUSH2 0x5DE PUSH2 0xAFF JUMP JUMPDEST JUMPDEST PUSH1 0x40 MLOAD SWAP1 DUP1 DUP3 MSTORE DUP1 PUSH1 0x20 MUL PUSH1 0x20 ADD DUP3 ADD PUSH1 0x40 MSTORE DUP1 ISZERO PUSH2 0x618 JUMPI DUP2 PUSH1 0x20 ADD JUMPDEST PUSH2 0x605 PUSH2 0xAA1 JUMP JUMPDEST DUP2 MSTORE PUSH1 0x20 ADD SWAP1 PUSH1 0x1 SWAP1 SUB SWAP1 DUP2 PUSH2 0x5FD JUMPI SWAP1 POP JUMPDEST POP SWAP1 POP PUSH0 PUSH0 SWAP1 POP PUSH0 PUSH0 SWAP1 POP JUMPDEST PUSH1 0x2 DUP1 SLOAD SWAP1 POP DUP2 LT ISZERO PUSH2 0x7F8 JUMPI DUP6 PUSH20 0xFFFFFFFFFFFFFFFFFFFFFFFFFFFFFFFFFFFFFFFF AND PUSH1 0x2 DUP3 DUP2 SLOAD DUP2 LT PUSH2 0x65C JUMPI PUSH2 0x65B PUSH2 0x13F8 JUMP JUMPDEST JUMPDEST SWAP1 PUSH0 MSTORE PUSH1 0x20 PUSH0 KECCAK256 SWAP1 PUSH1 0x3 MUL ADD PUSH0 ADD PUSH0 SWAP1 SLOAD SWAP1 PUSH2 0x100 EXP SWAP1 DIV PUSH20 0xFFFFFFFFFFFFFFFFFFFFFFFFFFFFFFFFFFFFFFFF AND PUSH20 0xFFFFFFFFFFFFFFFFFFFFFFFFFFFFFFFFFFFFFFFF AND SUB PUSH2 0x7EB JUMPI PUSH1 0x2 DUP2 DUP2 SLOAD DUP2 LT PUSH2 0x6B9 JUMPI PUSH2 0x6B8 PUSH2 0x13F8 JUMP JUMPDEST JUMPDEST SWAP1 PUSH0 MSTORE PUSH1 0x20 PUSH0 KECCAK256 SWAP1 PUSH1 0x3 MUL ADD PUSH1 0x40 MLOAD DUP1 PUSH1 0x60 ADD PUSH1 0x40 MSTORE SWAP1 DUP2 PUSH0 DUP3 ADD PUSH0 SWAP1 SLOAD SWAP1 PUSH2 0x100 EXP SWAP1 DIV PUSH20 0xFFFFFFFFFFFFFFFFFFFFFFFFFFFFFFFFFFFFFFFF AND PUSH20 0xFFFFFFFFFFFFFFFFFFFFFFFFFFFFFFFFFFFFFFFF AND PUSH20 0xFFFFFFFFFFFFFFFFFFFFFFFFFFFFFFFFFFFFFFFF AND DUP2 MSTORE PUSH1 0x20 ADD PUSH1 0x1 DUP3 ADD DUP1 SLOAD PUSH2 0x734 SWAP1 PUSH2 0x112B JUMP JUMPDEST DUP1 PUSH1 0x1F ADD PUSH1 0x20 DUP1 SWAP2 DIV MUL PUSH1 0x20 ADD PUSH1 0x40 MLOAD SWAP1 DUP2 ADD PUSH1 0x40 MSTORE DUP1 SWAP3 SWAP2 SWAP1 DUP2 DUP2 MSTORE PUSH1 0x20 ADD DUP3 DUP1 SLOAD PUSH2 0x760 SWAP1 PUSH2 0x112B JUMP JUMPDEST DUP1 ISZERO PUSH2 0x7AB JUMPI DUP1 PUSH1 0x1F LT PUSH2 0x782 JUMPI PUSH2 0x100 DUP1 DUP4 SLOAD DIV MUL DUP4 MSTORE SWAP2 PUSH1 0x20 ADD SWAP2 PUSH2 0x7AB JUMP JUMPDEST DUP3 ADD SWAP2 SWAP1 PUSH0 MSTORE PUSH1 0x20 PUSH0 KECCAK256 SWAP1 JUMPDEST DUP2 SLOAD DUP2 MSTORE SWAP1 PUSH1 0x1 ADD SWAP1 PUSH1 0x20 ADD DUP1 DUP4 GT PUSH2 0x78E JUMPI DUP3 SWAP1 SUB PUSH1 0x1F AND DUP3 ADD SWAP2 JUMPDEST POP POP POP POP POP DUP2 MSTORE PUSH1 0x20 ADD PUSH1 0x2 DUP3 ADD SLOAD DUP2 MSTORE POP POP DUP4 DUP4 DUP2 MLOAD DUP2 LT PUSH2 0x7D1 JUMPI PUSH2 0x7D0 PUSH2 0x13F8 JUMP JUMPDEST JUMPDEST PUSH1 0x20 MUL PUSH1 0x20 ADD ADD DUP2 SWAP1 MSTORE POP DUP2 DUP1 PUSH2 0x7E7 SWAP1 PUSH2 0x1452 JUMP JUMPDEST SWAP3 POP POP JUMPDEST DUP1 DUP1 PUSH1 0x1 ADD SWAP2 POP POP PUSH2 0x624 JUMP JUMPDEST POP DUP2 SWAP4 POP POP POP POP SWAP2 SWAP1 POP JUMP JUMPDEST PUSH2 0x80C PUSH2 0x9A0 JUMP JUMPDEST CALLER PUSH20 0xFFFFFFFFFFFFFFFFFFFFFFFFFFFFFFFFFFFFFFFF AND PUSH2 0x82B PUSH2 0x4F4 JUMP JUMPDEST PUSH20 0xFFFFFFFFFFFFFFFFFFFFFFFFFFFFFFFFFFFFFFFF AND EQ PUSH2 0x84A JUMPI PUSH0 PUSH0 REVERT JUMPDEST PUSH2 0x853 DUP2 PUSH2 0x9E0 JUMP JUMPDEST POP JUMP JUMPDEST PUSH1 0x60 PUSH1 0x2 DUP1 SLOAD DUP1 PUSH1 0x20 MUL PUSH1 0x20 ADD PUSH1 0x40 MLOAD SWAP1 DUP2 ADD PUSH1 0x40 MSTORE DUP1 SWAP3 SWAP2 SWAP1 DUP2 DUP2 MSTORE PUSH1 0x20 ADD PUSH0 SWAP1 JUMPDEST DUP3 DUP3 LT ISZERO PUSH2 0x997 JUMPI DUP4 DUP3 SWAP1 PUSH0 MSTORE PUSH1 0x20 PUSH0 KECCAK256 SWAP1 PUSH1 0x3 MUL ADD PUSH1 0x40 MLOAD DUP1 PUSH1 0x60 ADD PUSH1 0x40 MSTORE SWAP1 DUP2 PUSH0 DUP3 ADD PUSH0 SWAP1 SLOAD SWAP1 PUSH2 0x100 EXP SWAP1 DIV PUSH20 0xFFFFFFFFFFFFFFFFFFFFFFFFFFFFFFFFFFFFFFFF AND PUSH20 0xFFFFFFFFFFFFFFFFFFFFFFFFFFFFFFFFFFFFFFFF AND PUSH20 0xFFFFFFFFFFFFFFFFFFFFFFFFFFFFFFFFFFFFFFFF AND DUP2 MSTORE PUSH1 0x20 ADD PUSH1 0x1 DUP3 ADD DUP1 SLOAD PUSH2 0x8FE SWAP1 PUSH2 0x112B JUMP JUMPDEST DUP1 PUSH1 0x1F ADD PUSH1 0x20 DUP1 SWAP2 DIV MUL PUSH1 0x20 ADD PUSH1 0x40 MLOAD SWAP1 DUP2 ADD PUSH1 0x40 MSTORE DUP1 SWAP3 SWAP2 SWAP1 DUP2 DUP2 MSTORE PUSH1 0x20 ADD DUP3 DUP1 SLOAD PUSH2 0x92A SWAP1 PUSH2 0x112B JUMP JUMPDEST DUP1 ISZERO PUSH2 0x975 JUMPI DUP1 PUSH1 0x1F LT PUSH2 0x94C JUMPI PUSH2 0x100 DUP1 DUP4 SLOAD DIV MUL DUP4 MSTORE SWAP2 PUSH1 0x20 ADD SWAP2 PUSH2 0x975 JUMP JUMPDEST DUP3 ADD SWAP2 SWAP1 PUSH0 MSTORE PUSH1 0x20 PUSH0 KECCAK256 SWAP1 JUMPDEST DUP2 SLOAD DUP2 MSTORE SWAP1 PUSH1 0x1 ADD SWAP1 PUSH1 0x20 ADD DUP1 DUP4 GT PUSH2 0x958 JUMPI DUP3 SWAP1 SUB PUSH1 0x1F AND DUP3 ADD SWAP2 JUMPDEST POP POP POP POP POP DUP2 MSTORE PUSH1 0x20 ADD PUSH1 0x2 DUP3 ADD SLOAD DUP2 MSTORE POP POP DUP2 MSTORE PUSH1 0x20 ADD SWAP1 PUSH1 0x1 ADD SWAP1 PUSH2 0x879 JUMP JUMPDEST POP POP POP POP SWAP1 POP SWAP1 JUMP JUMPDEST CALLER PUSH20 0xFFFFFFFFFFFFFFFFFFFFFFFFFFFFFFFFFFFFFFFF AND PUSH2 0x9BF PUSH2 0x4F4 JUMP JUMPDEST PUSH20 0xFFFFFFFFFFFFFFFFFFFFFFFFFFFFFFFFFFFFFFFF AND EQ PUSH2 0x9DE JUMPI PUSH0 PUSH0 REVERT JUMPDEST JUMP JUMPDEST PUSH0 PUSH0 PUSH0 SWAP1 SLOAD SWAP1 PUSH2 0x100 EXP SWAP1 DIV PUSH20 0xFFFFFFFFFFFFFFFFFFFFFFFFFFFFFFFFFFFFFFFF AND SWAP1 POP DUP2 PUSH0 PUSH0 PUSH2 0x100 EXP DUP2 SLOAD DUP2 PUSH20 0xFFFFFFFFFFFFFFFFFFFFFFFFFFFFFFFFFFFFFFFF MUL NOT AND SWAP1 DUP4 PUSH20 0xFFFFFFFFFFFFFFFFFFFFFFFFFFFFFFFFFFFFFFFF AND MUL OR SWAP1 SSTORE POP DUP2 PUSH20 0xFFFFFFFFFFFFFFFFFFFFFFFFFFFFFFFFFFFFFFFF AND DUP2 PUSH20 0xFFFFFFFFFFFFFFFFFFFFFFFFFFFFFFFFFFFFFFFF AND PUSH32 0x8BE0079C531659141344CD1FD0A4F28419497F9722A3DAAFE3B4186F6B6457E0 PUSH1 0x40 MLOAD PUSH1 0x40 MLOAD DUP1 SWAP2 SUB SWAP1 LOG3 POP POP JUMP JUMPDEST PUSH1 0x40 MLOAD DUP1 PUSH1 0x60 ADD PUSH1 0x40 MSTORE DUP1 PUSH0 PUSH20 0xFFFFFFFFFFFFFFFFFFFFFFFFFFFFFFFFFFFFFFFF AND DUP2 MSTORE PUSH1 0x20 ADD PUSH1 0x60 DUP2 MSTORE PUSH1 0x20 ADD PUSH0 DUP2 MSTORE POP SWAP1 JUMP JUMPDEST PUSH0 PUSH1 0x40 MLOAD SWAP1 POP SWAP1 JUMP JUMPDEST PUSH0 PUSH0 REVERT JUMPDEST PUSH0 PUSH0 REVERT JUMPDEST PUSH0 PUSH0 REVERT JUMPDEST PUSH0 PUSH0 REVERT JUMPDEST PUSH0 PUSH1 0x1F NOT PUSH1 0x1F DUP4 ADD AND SWAP1 POP SWAP2 SWAP1 POP JUMP JUMPDEST PUSH32 0x4E487B7100000000000000000000000000000000000000000000000000000000 PUSH0 MSTORE PUSH1 0x41 PUSH1 0x4 MSTORE PUSH1 0x24 PUSH0 REVERT JUMPDEST PUSH2 0xB35 DUP3 PUSH2 0xAEF JUMP JUMPDEST DUP2 ADD DUP2 DUP2 LT PUSH8 0xFFFFFFFFFFFFFFFF DUP3 GT OR ISZERO PUSH2 0xB54 JUMPI PUSH2 0xB53 PUSH2 0xAFF JUMP JUMPDEST JUMPDEST DUP1 PUSH1 0x40 MSTORE POP POP POP JUMP JUMPDEST PUSH0 PUSH2 0xB66 PUSH2 0xAD6 JUMP JUMPDEST SWAP1 POP PUSH2 0xB72 DUP3 DUP3 PUSH2 0xB2C JUMP JUMPDEST SWAP2 SWAP1 POP JUMP JUMPDEST PUSH0 PUSH8 0xFFFFFFFFFFFFFFFF DUP3 GT ISZERO PUSH2 0xB91 JUMPI PUSH2 0xB90 PUSH2 0xAFF JUMP JUMPDEST JUMPDEST PUSH2 0xB9A DUP3 PUSH2 0xAEF JUMP JUMPDEST SWAP1 POP PUSH1 0x20 DUP2 ADD SWAP1 POP SWAP2 SWAP1 POP JUMP JUMPDEST DUP3 DUP2 DUP4 CALLDATACOPY PUSH0 DUP4 DUP4 ADD MSTORE POP POP POP JUMP JUMPDEST PUSH0 PUSH2 0xBC7 PUSH2 0xBC2 DUP5 PUSH2 0xB77 JUMP JUMPDEST PUSH2 0xB5D JUMP JUMPDEST SWAP1 POP DUP3 DUP2 MSTORE PUSH1 0x20 DUP2 ADD DUP5 DUP5 DUP5 ADD GT ISZERO PUSH2 0xBE3 JUMPI PUSH2 0xBE2 PUSH2 0xAEB JUMP JUMPDEST JUMPDEST PUSH2 0xBEE DUP5 DUP3 DUP6 PUSH2 0xBA7 JUMP JUMPDEST POP SWAP4 SWAP3 POP POP POP JUMP JUMPDEST PUSH0 DUP3 PUSH1 0x1F DUP4 ADD SLT PUSH2 0xC0A JUMPI PUSH2 0xC09 PUSH2 0xAE7 JUMP JUMPDEST JUMPDEST DUP2 CALLDATALOAD PUSH2 0xC1A DUP5 DUP3 PUSH1 0x20 DUP7 ADD PUSH2 0xBB5 JUMP JUMPDEST SWAP2 POP POP SWAP3 SWAP2 POP POP JUMP JUMPDEST PUSH0 PUSH1 0x20 DUP3 DUP5 SUB SLT ISZERO PUSH2 0xC38 JUMPI PUSH2 0xC37 PUSH2 0xADF JUMP JUMPDEST JUMPDEST PUSH0 DUP3 ADD CALLDATALOAD PUSH8 0xFFFFFFFFFFFFFFFF DUP2 GT ISZERO PUSH2 0xC55 JUMPI PUSH2 0xC54 PUSH2 0xAE3 JUMP JUMPDEST JUMPDEST PUSH2 0xC61 DUP5 DUP3 DUP6 ADD PUSH2 0xBF6 JUMP JUMPDEST SWAP2 POP POP SWAP3 SWAP2 POP POP JUMP JUMPDEST PUSH0 DUP2 SWAP1 POP SWAP2 SWAP1 POP JUMP JUMPDEST PUSH2 0xC7C DUP2 PUSH2 0xC6A JUMP JUMPDEST DUP3 MSTORE POP POP JUMP JUMPDEST PUSH0 PUSH1 0x20 DUP3 ADD SWAP1 POP PUSH2 0xC95 PUSH0 DUP4 ADD DUP5 PUSH2 0xC73 JUMP JUMPDEST SWAP3 SWAP2 POP POP JUMP JUMPDEST PUSH2 0xCA4 DUP2 PUSH2 0xC6A JUMP JUMPDEST DUP2 EQ PUSH2 0xCAE JUMPI PUSH0 PUSH0 REVERT JUMPDEST POP JUMP JUMPDEST PUSH0 DUP2 CALLDATALOAD SWAP1 POP PUSH2 0xCBF DUP2 PUSH2 0xC9B JUMP JUMPDEST SWAP3 SWAP2 POP POP JUMP JUMPDEST PUSH0 PUSH1 0x20 DUP3 DUP5 SUB SLT ISZERO PUSH2 0xCDA JUMPI PUSH2 0xCD9 PUSH2 0xADF JUMP JUMPDEST JUMPDEST PUSH0 PUSH2 0xCE7 DUP5 DUP3 DUP6 ADD PUSH2 0xCB1 JUMP JUMPDEST SWAP2 POP POP SWAP3 SWAP2 POP POP JUMP JUMPDEST PUSH0 PUSH20 0xFFFFFFFFFFFFFFFFFFFFFFFFFFFFFFFFFFFFFFFF DUP3 AND SWAP1 POP SWAP2 SWAP1 POP JUMP JUMPDEST PUSH0 PUSH2 0xD19 DUP3 PUSH2 0xCF0 JUMP JUMPDEST SWAP1 POP SWAP2 SWAP1 POP JUMP JUMPDEST PUSH2 0xD29 DUP2 PUSH2 0xD0F JUMP JUMPDEST DUP3 MSTORE POP POP JUMP JUMPDEST PUSH0 DUP2 MLOAD SWAP1 POP SWAP2 SWAP1 POP JUMP JUMPDEST PUSH0 DUP3 DUP3 MSTORE PUSH1 0x20 DUP3 ADD SWAP1 POP SWAP3 SWAP2 POP POP JUMP JUMPDEST DUP3 DUP2 DUP4 MCOPY PUSH0 DUP4 DUP4 ADD MSTORE POP POP POP JUMP JUMPDEST PUSH0 PUSH2 0xD61 DUP3 PUSH2 0xD2F JUMP JUMPDEST PUSH2 0xD6B DUP2 DUP6 PUSH2 0xD39 JUMP JUMPDEST SWAP4 POP PUSH2 0xD7B DUP2 DUP6 PUSH1 0x20 DUP7 ADD PUSH2 0xD49 JUMP JUMPDEST PUSH2 0xD84 DUP2 PUSH2 0xAEF JUMP JUMPDEST DUP5 ADD SWAP2 POP POP SWAP3 SWAP2 POP POP JUMP JUMPDEST PUSH0 PUSH1 0x60 DUP3 ADD SWAP1 POP PUSH2 0xDA2 PUSH0 DUP4 ADD DUP7 PUSH2 0xD20 JUMP JUMPDEST DUP2 DUP2 SUB PUSH1 0x20 DUP4 ADD MSTORE PUSH2 0xDB4 DUP2 DUP6 PUSH2 0xD57 JUMP JUMPDEST SWAP1 POP PUSH2 0xDC3 PUSH1 0x40 DUP4 ADD DUP5 PUSH2 0xC73 JUMP JUMPDEST SWAP5 SWAP4 POP POP POP POP JUMP JUMPDEST PUSH0 PUSH1 0x20 DUP3 ADD SWAP1 POP PUSH2 0xDDE PUSH0 DUP4 ADD DUP5 PUSH2 0xD20 JUMP JUMPDEST SWAP3 SWAP2 POP POP JUMP JUMPDEST PUSH2 0xDED DUP2 PUSH2 0xD0F JUMP JUMPDEST DUP2 EQ PUSH2 0xDF7 JUMPI PUSH0 PUSH0 REVERT JUMPDEST POP JUMP JUMPDEST PUSH0 DUP2 CALLDATALOAD SWAP1 POP PUSH2 0xE08 DUP2 PUSH2 0xDE4 JUMP JUMPDEST SWAP3 SWAP2 POP POP JUMP JUMPDEST PUSH0 PUSH1 0x20 DUP3 DUP5 SUB SLT ISZERO PUSH2 0xE23 JUMPI PUSH2 0xE22 PUSH2 0xADF JUMP JUMPDEST JUMPDEST PUSH0 PUSH2 0xE30 DUP5 DUP3 DUP6 ADD PUSH2 0xDFA JUMP JUMPDEST SWAP2 POP POP SWAP3 SWAP2 POP POP JUMP JUMPDEST PUSH0 DUP2 MLOAD SWAP1 POP SWAP2 SWAP1 POP JUMP JUMPDEST PUSH0 DUP3 DUP3 MSTORE PUSH1 0x20 DUP3 ADD SWAP1 POP SWAP3 SWAP2 POP POP JUMP JUMPDEST PUSH0 DUP2 SWAP1 POP PUSH1 0x20 DUP3 ADD SWAP1 POP SWAP2 SWAP1 POP JUMP JUMPDEST PUSH2 0xE6B DUP2 PUSH2 0xD0F JUMP JUMPDEST DUP3 MSTORE POP POP JUMP JUMPDEST PUSH0 DUP3 DUP3 MSTORE PUSH1 0x20 DUP3 ADD SWAP1 POP SWAP3 SWAP2 POP POP JUMP JUMPDEST PUSH0 PUSH2 0xE8B DUP3 PUSH2 0xD2F JUMP JUMPDEST PUSH2 0xE95 DUP2 DUP6 PUSH2 0xE71 JUMP JUMPDEST SWAP4 POP PUSH2 0xEA5 DUP2 DUP6 PUSH1 0x20 DUP7 ADD PUSH2 0xD49 JUMP JUMPDEST PUSH2 0xEAE DUP2 PUSH2 0xAEF JUMP JUMPDEST DUP5 ADD SWAP2 POP POP SWAP3 SWAP2 POP POP JUMP JUMPDEST PUSH2 0xEC2 DUP2 PUSH2 0xC6A JUMP JUMPDEST DUP3 MSTORE POP POP JUMP JUMPDEST PUSH0 PUSH1 0x60 DUP4 ADD PUSH0 DUP4 ADD MLOAD PUSH2 0xEDD PUSH0 DUP7 ADD DUP3 PUSH2 0xE62 JUMP JUMPDEST POP PUSH1 0x20 DUP4 ADD MLOAD DUP5 DUP3 SUB PUSH1 0x20 DUP7 ADD MSTORE PUSH2 0xEF5 DUP3 DUP3 PUSH2 0xE81 JUMP JUMPDEST SWAP2 POP POP PUSH1 0x40 DUP4 ADD MLOAD PUSH2 0xF0A PUSH1 0x40 DUP7 ADD DUP3 PUSH2 0xEB9 JUMP JUMPDEST POP DUP1 SWAP2 POP POP SWAP3 SWAP2 POP POP JUMP JUMPDEST PUSH0 PUSH2 0xF20 DUP4 DUP4 PUSH2 0xEC8 JUMP JUMPDEST SWAP1 POP SWAP3 SWAP2 POP POP JUMP JUMPDEST PUSH0 PUSH1 0x20 DUP3 ADD SWAP1 POP SWAP2 SWAP1 POP JUMP JUMPDEST PUSH0 PUSH2 0xF3E DUP3 PUSH2 0xE39 JUMP JUMPDEST PUSH2 0xF48 DUP2 DUP6 PUSH2 0xE43 JUMP JUMPDEST SWAP4 POP DUP4 PUSH1 0x20 DUP3 MUL DUP6 ADD PUSH2 0xF5A DUP6 PUSH2 0xE53 JUMP JUMPDEST DUP1 PUSH0 JUMPDEST DUP6 DUP2 LT ISZERO PUSH2 0xF95 JUMPI DUP5 DUP5 SUB DUP10 MSTORE DUP2 MLOAD PUSH2 0xF76 DUP6 DUP3 PUSH2 0xF15 JUMP JUMPDEST SWAP5 POP PUSH2 0xF81 DUP4 PUSH2 0xF28 JUMP JUMPDEST SWAP3 POP PUSH1 0x20 DUP11 ADD SWAP10 POP POP PUSH1 0x1 DUP2 ADD SWAP1 POP PUSH2 0xF5D JUMP JUMPDEST POP DUP3 SWAP8 POP DUP8 SWAP6 POP POP POP POP POP POP SWAP3 SWAP2 POP POP JUMP JUMPDEST PUSH0 PUSH1 0x20 DUP3 ADD SWAP1 POP DUP2 DUP2 SUB PUSH0 DUP4 ADD MSTORE PUSH2 0xFBF DUP2 DUP5 PUSH2 0xF34 JUMP JUMPDEST SWAP1 POP SWAP3 SWAP2 POP POP JUMP JUMPDEST PUSH0 DUP2 SWAP1 POP SWAP3 SWAP2 POP POP JUMP JUMPDEST POP JUMP JUMPDEST PUSH0 PUSH2 0xFDF PUSH0 DUP4 PUSH2 0xFC7 JUMP JUMPDEST SWAP2 POP PUSH2 0xFEA DUP3 PUSH2 0xFD1 JUMP JUMPDEST PUSH0 DUP3 ADD SWAP1 POP SWAP2 SWAP1 POP JUMP JUMPDEST PUSH0 PUSH2 0xFFE DUP3 PUSH2 0xFD4 JUMP JUMPDEST SWAP2 POP DUP2 SWAP1 POP SWAP2 SWAP1 POP JUMP JUMPDEST PUSH32 0x5472616E73666572206661696C65640000000000000000000000000000000000 PUSH0 DUP3 ADD MSTORE POP JUMP JUMPDEST PUSH0 PUSH2 0x103C PUSH1 0xF DUP4 PUSH2 0xD39 JUMP JUMPDEST SWAP2 POP PUSH2 0x1047 DUP3 PUSH2 0x1008 JUMP JUMPDEST PUSH1 0x20 DUP3 ADD SWAP1 POP SWAP2 SWAP1 POP JUMP JUMPDEST PUSH0 PUSH1 0x20 DUP3 ADD SWAP1 POP DUP2 DUP2 SUB PUSH0 DUP4 ADD MSTORE PUSH2 0x1069 DUP2 PUSH2 0x1030 JUMP JUMPDEST SWAP1 POP SWAP2 SWAP1 POP JUMP JUMPDEST PUSH32 0x5061796D656E74206D75737420626520657175616C20746F2074686520636F75 PUSH0 DUP3 ADD MSTORE PUSH32 0x7273652066656500000000000000000000000000000000000000000000000000 PUSH1 0x20 DUP3 ADD MSTORE POP JUMP JUMPDEST PUSH0 PUSH2 0x10CA PUSH1 0x27 DUP4 PUSH2 0xD39 JUMP JUMPDEST SWAP2 POP PUSH2 0x10D5 DUP3 PUSH2 0x1070 JUMP JUMPDEST PUSH1 0x40 DUP3 ADD SWAP1 POP SWAP2 SWAP1 POP JUMP JUMPDEST PUSH0 PUSH1 0x20 DUP3 ADD SWAP1 POP DUP2 DUP2 SUB PUSH0 DUP4 ADD MSTORE PUSH2 0x10F7 DUP2 PUSH2 0x10BE JUMP JUMPDEST SWAP1 POP SWAP2 SWAP1 POP JUMP JUMPDEST PUSH32 0x4E487B7100000000000000000000000000000000000000000000000000000000 PUSH0 MSTORE PUSH1 0x22 PUSH1 0x4 MSTORE PUSH1 0x24 PUSH0 REVERT JUMPDEST PUSH0 PUSH1 0x2 DUP3 DIV SWAP1 POP PUSH1 0x1 DUP3 AND DUP1 PUSH2 0x1142 JUMPI PUSH1 0x7F DUP3 AND SWAP2 POP JUMPDEST PUSH1 0x20 DUP3 LT DUP2 SUB PUSH2 0x1155 JUMPI PUSH2 0x1154 PUSH2 0x10FE JUMP JUMPDEST JUMPDEST POP SWAP2 SWAP1 POP JUMP JUMPDEST PUSH0 DUP2 SWAP1 POP DUP2 PUSH0 MSTORE PUSH1 0x20 PUSH0 KECCAK256 SWAP1 POP SWAP2 SWAP1 POP JUMP JUMPDEST PUSH0 PUSH1 0x20 PUSH1 0x1F DUP4 ADD DIV SWAP1 POP SWAP2 SWAP1 POP JUMP JUMPDEST PUSH0 DUP3 DUP3 SHL SWAP1 POP SWAP3 SWAP2 POP POP JUMP JUMPDEST PUSH0 PUSH1 0x8 DUP4 MUL PUSH2 0x11B7 PUSH32 0xFFFFFFFFFFFFFFFFFFFFFFFFFFFFFFFFFFFFFFFFFFFFFFFFFFFFFFFFFFFFFFFF DUP3 PUSH2 0x117C JUMP JUMPDEST PUSH2 0x11C1 DUP7 DUP4 PUSH2 0x117C JUMP JUMPDEST SWAP6 POP DUP1 NOT DUP5 AND SWAP4 POP DUP1 DUP7 AND DUP5 OR SWAP3 POP POP POP SWAP4 SWAP3 POP POP POP JUMP JUMPDEST PUSH0 DUP2 SWAP1 POP SWAP2 SWAP1 POP JUMP JUMPDEST PUSH0 PUSH2 0x11FC PUSH2 0x11F7 PUSH2 0x11F2 DUP5 PUSH2 0xC6A JUMP JUMPDEST PUSH2 0x11D9 JUMP JUMPDEST PUSH2 0xC6A JUMP JUMPDEST SWAP1 POP SWAP2 SWAP1 POP JUMP JUMPDEST PUSH0 DUP2 SWAP1 POP SWAP2 SWAP1 POP JUMP JUMPDEST PUSH2 0x1215 DUP4 PUSH2 0x11E2 JUMP JUMPDEST PUSH2 0x1229 PUSH2 0x1221 DUP3 PUSH2 0x1203 JUMP JUMPDEST DUP5 DUP5 SLOAD PUSH2 0x1188 JUMP JUMPDEST DUP3 SSTORE POP POP POP POP JUMP JUMPDEST PUSH0 PUSH0 SWAP1 POP SWAP1 JUMP JUMPDEST PUSH2 0x1240 PUSH2 0x1231 JUMP JUMPDEST PUSH2 0x124B DUP2 DUP5 DUP5 PUSH2 0x120C JUMP JUMPDEST POP POP POP JUMP JUMPDEST JUMPDEST DUP2 DUP2 LT ISZERO PUSH2 0x126E JUMPI PUSH2 0x1263 PUSH0 DUP3 PUSH2 0x1238 JUMP JUMPDEST PUSH1 0x1 DUP2 ADD SWAP1 POP PUSH2 0x1251 JUMP JUMPDEST POP POP JUMP JUMPDEST PUSH1 0x1F DUP3 GT ISZERO PUSH2 0x12B3 JUMPI PUSH2 0x1284 DUP2 PUSH2 0x115B JUMP JUMPDEST PUSH2 0x128D DUP5 PUSH2 0x116D JUMP JUMPDEST DUP2 ADD PUSH1 0x20 DUP6 LT ISZERO PUSH2 0x129C JUMPI DUP2 SWAP1 POP JUMPDEST PUSH2 0x12B0 PUSH2 0x12A8 DUP6 PUSH2 0x116D JUMP JUMPDEST DUP4 ADD DUP3 PUSH2 0x1250 JUMP JUMPDEST POP POP JUMPDEST POP POP POP JUMP JUMPDEST PUSH0 DUP3 DUP3 SHR SWAP1 POP SWAP3 SWAP2 POP POP JUMP JUMPDEST PUSH0 PUSH2 0x12D3 PUSH0 NOT DUP5 PUSH1 0x8 MUL PUSH2 0x12B8 JUMP JUMPDEST NOT DUP1 DUP4 AND SWAP2 POP POP SWAP3 SWAP2 POP POP JUMP JUMPDEST PUSH0 PUSH2 0x12EB DUP4 DUP4 PUSH2 0x12C4 JUMP JUMPDEST SWAP2 POP DUP3 PUSH1 0x2 MUL DUP3 OR SWAP1 POP SWAP3 SWAP2 POP POP JUMP JUMPDEST PUSH2 0x1304 DUP3 PUSH2 0xD2F JUMP JUMPDEST PUSH8 0xFFFFFFFFFFFFFFFF DUP2 GT ISZERO PUSH2 0x131D JUMPI PUSH2 0x131C PUSH2 0xAFF JUMP JUMPDEST JUMPDEST PUSH2 0x1327 DUP3 SLOAD PUSH2 0x112B JUMP JUMPDEST PUSH2 0x1332 DUP3 DUP3 DUP6 PUSH2 0x1272 JUMP JUMPDEST PUSH0 PUSH1 0x20 SWAP1 POP PUSH1 0x1F DUP4 GT PUSH1 0x1 DUP2 EQ PUSH2 0x1363 JUMPI PUSH0 DUP5 ISZERO PUSH2 0x1351 JUMPI DUP3 DUP8 ADD MLOAD SWAP1 POP JUMPDEST PUSH2 0x135B DUP6 DUP3 PUSH2 0x12E0 JUMP JUMPDEST DUP7 SSTORE POP PUSH2 0x13C2 JUMP JUMPDEST PUSH1 0x1F NOT DUP5 AND PUSH2 0x1371 DUP7 PUSH2 0x115B JUMP JUMPDEST PUSH0 JUMPDEST DUP3 DUP2 LT ISZERO PUSH2 0x1398 JUMPI DUP5 DUP10 ADD MLOAD DUP3 SSTORE PUSH1 0x1 DUP3 ADD SWAP2 POP PUSH1 0x20 DUP6 ADD SWAP5 POP PUSH1 0x20 DUP2 ADD SWAP1 POP PUSH2 0x1373 JUMP JUMPDEST DUP7 DUP4 LT ISZERO PUSH2 0x13B5 JUMPI DUP5 DUP10 ADD MLOAD PUSH2 0x13B1 PUSH1 0x1F DUP10 AND DUP3 PUSH2 0x12C4 JUMP JUMPDEST DUP4 SSTORE POP JUMPDEST PUSH1 0x1 PUSH1 0x2 DUP9 MUL ADD DUP9 SSTORE POP POP POP JUMPDEST POP POP POP POP POP POP JUMP JUMPDEST PUSH0 PUSH1 0x40 DUP3 ADD SWAP1 POP DUP2 DUP2 SUB PUSH0 DUP4 ADD MSTORE PUSH2 0x13E2 DUP2 DUP6 PUSH2 0xD57 JUMP JUMPDEST SWAP1 POP PUSH2 0x13F1 PUSH1 0x20 DUP4 ADD DUP5 PUSH2 0xC73 JUMP JUMPDEST SWAP4 SWAP3 POP POP POP JUMP JUMPDEST PUSH32 0x4E487B7100000000000000000000000000000000000000000000000000000000 PUSH0 MSTORE PUSH1 0x32 PUSH1 0x4 MSTORE PUSH1 0x24 PUSH0 REVERT JUMPDEST PUSH32 0x4E487B7100000000000000000000000000000000000000000000000000000000 PUSH0 MSTORE PUSH1 0x11 PUSH1 0x4 MSTORE PUSH1 0x24 PUSH0 REVERT JUMPDEST PUSH0 PUSH2 0x145C DUP3 PUSH2 0xC6A JUMP JUMPDEST SWAP2 POP PUSH32 0xFFFFFFFFFFFFFFFFFFFFFFFFFFFFFFFFFFFFFFFFFFFFFFFFFFFFFFFFFFFFFFFF DUP3 SUB PUSH2 0x148E JUMPI PUSH2 0x148D PUSH2 0x1425 JUMP JUMPDEST JUMPDEST PUSH1 0x1 DUP3 ADD SWAP1 POP SWAP2 SWAP1 POP JUMP INVALID LOG2 PUSH5 0x6970667358 0x22 SLT KECCAK256 MSTORE8 MSTORE MULMOD SSTORE BLOBHASH RJUMP 0xFCC1 RJUMP 0x7D9D PUSH25 0x4F50D6EDFEB12875B817595ED372B4EDD4DB4FF64736F6C63 NUMBER STOP ADDMOD 0x1F STOP CALLER "
				},
				"gasEstimates": {
					"creation": {
						"codeDepositCost": "1065400",
						"executionCost": "infinite",
						"totalCost": "infinite"
					},
					"external": {
						"courseFee()": "2470",
						"getAllPayments()": "infinite",
						"getPaymentsByUser(address)": "infinite",
						"owner()": "2536",
						"payForCourse(string)": "infinite",
						"payments(uint256)": "infinite",
						"renounceOwnership()": "30420",
						"transferOwnership(address)": "infinite",
						"withdrawFunds()": "infinite"
					}
				},
				"methodIdentifiers": {
					"courseFee()": "6e6b7984",
					"getAllPayments()": "f8defa3c",
					"getPaymentsByUser(address)": "d6a7b7c4",
					"owner()": "8da5cb5b",
					"payForCourse(string)": "5ddfdb71",
					"payments(uint256)": "87d81789",
					"renounceOwnership()": "715018a6",
					"transferOwnership(address)": "f2fde38b",
					"withdrawFunds()": "24600fc3"
				}
			},
			"storageLayout": {
				"storage": [
					{
						"astId": 3,
						"contract": "contracts/test.sol:CourseRegistration",
						"label": "_owner",
						"offset": 0,
						"slot": "0",
						"type": "t_address"
					},
					{
						"astId": 110,
						"contract": "contracts/test.sol:CourseRegistration",
						"label": "courseFee",
						"offset": 0,
						"slot": "1",
						"type": "t_uint256"
					},
					{
						"astId": 114,
						"contract": "contracts/test.sol:CourseRegistration",
						"label": "payments",
						"offset": 0,
						"slot": "2",
						"type": "t_array(t_struct(Payment)129_storage)dyn_storage"
					}
				],
				"types": {
					"t_address": {
						"encoding": "inplace",
						"label": "address",
						"numberOfBytes": "20"
					},
					"t_array(t_struct(Payment)129_storage)dyn_storage": {
						"base": "t_struct(Payment)129_storage",
						"encoding": "dynamic_array",
						"label": "struct CourseRegistration.Payment[]",
						"numberOfBytes": "32"
					},
					"t_string_storage": {
						"encoding": "bytes",
						"label": "string",
						"numberOfBytes": "32"
					},
					"t_struct(Payment)129_storage": {
						"encoding": "inplace",
						"label": "struct CourseRegistration.Payment",
						"members": [
							{
								"astId": 124,
								"contract": "contracts/test.sol:CourseRegistration",
								"label": "user",
								"offset": 0,
								"slot": "0",
								"type": "t_address"
							},
							{
								"astId": 126,
								"contract": "contracts/test.sol:CourseRegistration",
								"label": "email",
								"offset": 0,
								"slot": "1",
								"type": "t_string_storage"
							},
							{
								"astId": 128,
								"contract": "contracts/test.sol:CourseRegistration",
								"label": "amount",
								"offset": 0,
								"slot": "2",
								"type": "t_uint256"
							}
						],
						"numberOfBytes": "96"
					},
					"t_uint256": {
						"encoding": "inplace",
						"label": "uint256",
						"numberOfBytes": "32"
					}
				}
			},
			"userdoc": {
				"kind": "user",
				"methods": {},
				"version": 1
			}
		}
	}
}